ARM GAS  /tmp/cc2Vvk0o.s 			page 1


   1              		.cpu cortex-m4
   2              		.eabi_attribute 27, 1
   3              		.eabi_attribute 28, 1
   4              		.eabi_attribute 20, 1
   5              		.eabi_attribute 21, 1
   6              		.eabi_attribute 23, 3
   7              		.eabi_attribute 24, 1
   8              		.eabi_attribute 25, 1
   9              		.eabi_attribute 26, 1
  10              		.eabi_attribute 30, 1
  11              		.eabi_attribute 34, 1
  12              		.eabi_attribute 18, 4
  13              		.file	"main.c"
  14              		.text
  15              	.Ltext0:
  16              		.cfi_sections	.debug_frame
  17              		.section	.text._ZL12MX_GPIO_Initv,"ax",%progbits
  18              		.align	1
  19              		.arch armv7e-m
  20              		.syntax unified
  21              		.thumb
  22              		.thumb_func
  23              		.fpu fpv4-sp-d16
  25              	_ZL12MX_GPIO_Initv:
  26              		.fnstart
  27              	.LFB1131:
  28              		.file 1 "Src/main.c"
   1:Src/main.c    **** /* USER CODE BEGIN Header */
   2:Src/main.c    **** /**
   3:Src/main.c    ****   ******************************************************************************
   4:Src/main.c    ****   * @file           : main.c
   5:Src/main.c    ****   * @brief          : Main program body
   6:Src/main.c    ****   ******************************************************************************
   7:Src/main.c    ****   * @attention
   8:Src/main.c    ****   *
   9:Src/main.c    ****   * <h2><center>&copy; Copyright (c) 2019 STMicroelectronics.
  10:Src/main.c    ****   * All rights reserved.</center></h2>
  11:Src/main.c    ****   *
  12:Src/main.c    ****   * This software component is licensed by ST under BSD 3-Clause license,
  13:Src/main.c    ****   * the "License"; You may not use this file except in compliance with the
  14:Src/main.c    ****   * License. You may obtain a copy of the License at:
  15:Src/main.c    ****   *                        opensource.org/licenses/BSD-3-Clause
  16:Src/main.c    ****   *
  17:Src/main.c    ****   ******************************************************************************
  18:Src/main.c    ****   */
  19:Src/main.c    **** /* USER CODE END Header */
  20:Src/main.c    **** 
  21:Src/main.c    **** /* Includes ------------------------------------------------------------------*/
  22:Src/main.c    **** #include "main.h"
  23:Src/main.c    **** 
  24:Src/main.c    **** /* Private includes ----------------------------------------------------------*/
  25:Src/main.c    **** /* USER CODE BEGIN Includes */
  26:Src/main.c    **** #include "keypad.h"
  27:Src/main.c    **** #include "lcd.h"
  28:Src/main.c    **** #include <string.h>
  29:Src/main.c    **** #include <string>
  30:Src/main.c    **** #include <cstdio>
ARM GAS  /tmp/cc2Vvk0o.s 			page 2


  31:Src/main.c    **** #include "buzzer.h"
  32:Src/main.c    **** 
  33:Src/main.c    **** #include "main_menu.h"
  34:Src/main.c    **** 
  35:Src/main.c    **** #include "uart_log_manager.h"
  36:Src/main.c    **** /* USER CODE END Includes */
  37:Src/main.c    **** 
  38:Src/main.c    **** /* Private typedef -----------------------------------------------------------*/
  39:Src/main.c    **** /* USER CODE BEGIN PTD */
  40:Src/main.c    **** 
  41:Src/main.c    **** /* USER CODE END PTD */
  42:Src/main.c    **** 
  43:Src/main.c    **** /* Private define ------------------------------------------------------------*/
  44:Src/main.c    **** /* USER CODE BEGIN PD */
  45:Src/main.c    **** 
  46:Src/main.c    **** /* USER CODE END PD */
  47:Src/main.c    **** 
  48:Src/main.c    **** /* Private macro -------------------------------------------------------------*/
  49:Src/main.c    **** /* USER CODE BEGIN PM */
  50:Src/main.c    **** 
  51:Src/main.c    **** /* USER CODE END PM */
  52:Src/main.c    **** 
  53:Src/main.c    **** /* Private variables ---------------------------------------------------------*/
  54:Src/main.c    **** I2C_HandleTypeDef hi2c1;
  55:Src/main.c    **** 
  56:Src/main.c    **** SPI_HandleTypeDef hspi1;
  57:Src/main.c    **** 
  58:Src/main.c    **** TIM_HandleTypeDef htim10;
  59:Src/main.c    **** 
  60:Src/main.c    **** UART_HandleTypeDef huart2;
  61:Src/main.c    **** DMA_HandleTypeDef hdma_usart2_tx;
  62:Src/main.c    **** 
  63:Src/main.c    **** /* USER CODE BEGIN PV */
  64:Src/main.c    **** 
  65:Src/main.c    **** keypad keypad_reader;
  66:Src/main.c    **** lcd_nokia_5110 lcd_driver(&hspi1, LCD_CE_Pin, LCD_DC_Pin, LCD_RST_Pin);
  67:Src/main.c    **** buzzer buz(BUZZER_Pin, &htim10);
  68:Src/main.c    **** 
  69:Src/main.c    **** int alarm_armed = 0;
  70:Src/main.c    **** int alarm_can_be_armed = 1;
  71:Src/main.c    **** int choosen_mode = 0;
  72:Src/main.c    **** int clear_block = 0;
  73:Src/main.c    **** /* USER CODE END PV */
  74:Src/main.c    **** 
  75:Src/main.c    **** /* Private function prototypes -----------------------------------------------*/
  76:Src/main.c    **** void SystemClock_Config(void);
  77:Src/main.c    **** static void MX_GPIO_Init(void);
  78:Src/main.c    **** static void MX_DMA_Init(void);
  79:Src/main.c    **** static void MX_SPI1_Init(void);
  80:Src/main.c    **** static void MX_USART2_UART_Init(void);
  81:Src/main.c    **** static void MX_TIM10_Init(void);
  82:Src/main.c    **** static void MX_I2C1_Init(void);
  83:Src/main.c    **** /* USER CODE BEGIN PFP */
  84:Src/main.c    **** 
  85:Src/main.c    **** /* USER CODE END PFP */
  86:Src/main.c    **** 
  87:Src/main.c    **** /* Private user code ---------------------------------------------------------*/
ARM GAS  /tmp/cc2Vvk0o.s 			page 3


  88:Src/main.c    **** /* USER CODE BEGIN 0 */
  89:Src/main.c    **** const char * msg = "TAP_KEY";
  90:Src/main.c    **** void DMATransferComplete(DMA_HandleTypeDef *hdma)
  91:Src/main.c    **** {
  92:Src/main.c    **** 
  93:Src/main.c    ****   huart2.Instance->CR3 &= ~USART_CR3_DMAT;
  94:Src/main.c    **** }
  95:Src/main.c    **** 
  96:Src/main.c    **** void HAL_GPIO_EXTI_Callback(uint16_t GPIO_Pin)
  97:Src/main.c    **** {
  98:Src/main.c    ****   if(alarm_armed)
  99:Src/main.c    ****   {
 100:Src/main.c    ****     HAL_GPIO_WritePin(GPIOB, LED_ALARM_INDICATOR_Pin, GPIO_PIN_SET);
 101:Src/main.c    ****     HAL_GPIO_WritePin(GPIOC, SIREN_PIN_Pin, GPIO_PIN_SET);
 102:Src/main.c    ****   }
 103:Src/main.c    **** 
 104:Src/main.c    ****   if(alarm_can_be_armed)
 105:Src/main.c    ****   {
 106:Src/main.c    ****     alarm_can_be_armed = 0;
 107:Src/main.c    ****     HAL_GPIO_WritePin(GPIOB, MOTION_DETECT_LED_Pin, GPIO_PIN_RESET);
 108:Src/main.c    ****   }
 109:Src/main.c    ****   else
 110:Src/main.c    ****   {
 111:Src/main.c    ****     alarm_can_be_armed = 1;
 112:Src/main.c    ****     HAL_GPIO_WritePin(GPIOB, MOTION_DETECT_LED_Pin, GPIO_PIN_SET);
 113:Src/main.c    ****   }  
 114:Src/main.c    **** }
 115:Src/main.c    **** 
 116:Src/main.c    **** void arm_alarm()
 117:Src/main.c    **** {
 118:Src/main.c    ****   HAL_GPIO_WritePin(GPIOC, ALARM_STATE_LED_Pin, GPIO_PIN_SET);
 119:Src/main.c    ****   alarm_armed = 1;
 120:Src/main.c    **** }
 121:Src/main.c    **** 
 122:Src/main.c    **** void disarm_alarm()
 123:Src/main.c    **** {
 124:Src/main.c    ****   HAL_GPIO_WritePin(GPIOC, SIREN_PIN_Pin, GPIO_PIN_RESET);
 125:Src/main.c    ****   HAL_GPIO_WritePin(GPIOC, ALARM_STATE_LED_Pin, GPIO_PIN_RESET);
 126:Src/main.c    ****   HAL_GPIO_WritePin(GPIOB, LED_ALARM_INDICATOR_Pin, GPIO_PIN_RESET);
 127:Src/main.c    ****   
 128:Src/main.c    ****   alarm_armed = 0;
 129:Src/main.c    **** }
 130:Src/main.c    **** 
 131:Src/main.c    **** void open_doors()
 132:Src/main.c    **** {
 133:Src/main.c    ****   disarm_alarm();
 134:Src/main.c    ****   HAL_GPIO_WritePin(DOOR_LOCK_GPIO_Port, DOOR_LOCK_Pin, GPIO_PIN_SET);
 135:Src/main.c    ****   buz.positive_soud();
 136:Src/main.c    ****   HAL_Delay(2000);
 137:Src/main.c    ****   HAL_GPIO_WritePin(DOOR_LOCK_GPIO_Port, DOOR_LOCK_Pin, GPIO_PIN_RESET);
 138:Src/main.c    **** }
 139:Src/main.c    **** 
 140:Src/main.c    **** 
 141:Src/main.c    **** 
 142:Src/main.c    **** 
 143:Src/main.c    **** /* USER CODE END 0 */
 144:Src/main.c    **** 
ARM GAS  /tmp/cc2Vvk0o.s 			page 4


 145:Src/main.c    **** /**
 146:Src/main.c    ****   * @brief  The application entry point.
 147:Src/main.c    ****   * @retval int
 148:Src/main.c    ****   */
 149:Src/main.c    **** int main(void)
 150:Src/main.c    **** {
 151:Src/main.c    ****   /* USER CODE BEGIN 1 */
 152:Src/main.c    **** 
 153:Src/main.c    ****   /* USER CODE END 1 */
 154:Src/main.c    ****   
 155:Src/main.c    **** 
 156:Src/main.c    ****   /* MCU Configuration--------------------------------------------------------*/
 157:Src/main.c    **** 
 158:Src/main.c    ****   /* Reset of all peripherals, Initializes the Flash interface and the Systick. */
 159:Src/main.c    ****   HAL_Init();
 160:Src/main.c    **** 
 161:Src/main.c    ****   /* USER CODE BEGIN Init */
 162:Src/main.c    **** 
 163:Src/main.c    ****   /* USER CODE END Init */
 164:Src/main.c    **** 
 165:Src/main.c    ****   /* Configure the system clock */
 166:Src/main.c    ****   SystemClock_Config();
 167:Src/main.c    **** 
 168:Src/main.c    ****   /* USER CODE BEGIN SysInit */
 169:Src/main.c    **** 
 170:Src/main.c    ****   /* USER CODE END SysInit */
 171:Src/main.c    **** 
 172:Src/main.c    ****   /* Initialize all configured peripherals */
 173:Src/main.c    ****   MX_GPIO_Init();
 174:Src/main.c    ****   MX_DMA_Init();
 175:Src/main.c    ****   MX_SPI1_Init();
 176:Src/main.c    ****   MX_USART2_UART_Init();
 177:Src/main.c    ****   MX_TIM10_Init();
 178:Src/main.c    ****   MX_I2C1_Init();
 179:Src/main.c    ****   /* USER CODE BEGIN 2 */
 180:Src/main.c    ****   uint8_t key = '\0';
 181:Src/main.c    **** 
 182:Src/main.c    ****   std::string password("");
 183:Src/main.c    ****   // usart_log_manager usart_driver(&huart2, &hdma_usart2_tx);;
 184:Src/main.c    **** 
 185:Src/main.c    ****   // HAL_I2C_Mem_Write(&hi2c1, 0xa0, 0x00, 1, (uint8_t*)correct_password, 5, 1000);
 186:Src/main.c    ****   // HAL_Delay(1000);
 187:Src/main.c    ****   char correct_password[5];
 188:Src/main.c    **** 
 189:Src/main.c    ****   HAL_I2C_Mem_Read(&hi2c1, 0xa0, 0x00, 1, (uint8_t*)correct_password, 5, 1000);
 190:Src/main.c    ****   HAL_Delay(1000);
 191:Src/main.c    ****   char init_message[] = "1 - open doors2 - arm/dis";
 192:Src/main.c    ****   char password_text[] = "Password:";
 193:Src/main.c    ****   char key_buf[10];
 194:Src/main.c    ****   
 195:Src/main.c    **** 
 196:Src/main.c    ****   lcd_driver.setup();
 197:Src/main.c    ****   lcd_driver.clear();
 198:Src/main.c    ****   lcd_driver.draw_text(0, 0, init_message);
 199:Src/main.c    ****   lcd_driver.copy();
 200:Src/main.c    **** 
 201:Src/main.c    **** 
ARM GAS  /tmp/cc2Vvk0o.s 			page 5


 202:Src/main.c    ****   /* USER CODE END 2 */
 203:Src/main.c    **** 
 204:Src/main.c    ****   /* Infinite loop */
 205:Src/main.c    ****   /* USER CODE BEGIN WHILE */
 206:Src/main.c    **** 
 207:Src/main.c    ****   while (1)
 208:Src/main.c    ****   {
 209:Src/main.c    **** 
 210:Src/main.c    **** 
 211:Src/main.c    ****     /* USER CODE END WHILE */
 212:Src/main.c    **** 
 213:Src/main.c    ****     /* USER CODE BEGIN 3 */
 214:Src/main.c    ****     huart2.Instance->CR3 |= USART_CR3_DMAT;
 215:Src/main.c    ****     
 216:Src/main.c    ****     if(!choosen_mode)
 217:Src/main.c    ****     {
 218:Src/main.c    ****       while(key != '1' && key != '2')
 219:Src/main.c    ****       {
 220:Src/main.c    ****         key = keypad_reader.read_key();
 221:Src/main.c    ****         if(key == '1')
 222:Src/main.c    ****         {
 223:Src/main.c    ****           choosen_mode = 1;
 224:Src/main.c    ****         }
 225:Src/main.c    ****         else
 226:Src/main.c    ****         {
 227:Src/main.c    ****           choosen_mode = 2;
 228:Src/main.c    ****         }
 229:Src/main.c    ****         HAL_Delay(200);
 230:Src/main.c    ****       }
 231:Src/main.c    ****     }
 232:Src/main.c    ****     lcd_driver.clear();
 233:Src/main.c    ****     lcd_driver.draw_text(0,0,password_text);
 234:Src/main.c    ****     lcd_driver.draw_text(1, 0, &password[0]);
 235:Src/main.c    ****     lcd_driver.copy();
 236:Src/main.c    ****     key = keypad_reader.read_key();
 237:Src/main.c    ****     if(key != '*' && key != '#')
 238:Src/main.c    ****     {
 239:Src/main.c    ****       buz.short_beep();
 240:Src/main.c    ****     }
 241:Src/main.c    ****     if(key == '*')
 242:Src/main.c    ****     {
 243:Src/main.c    ****       password.pop_back();
 244:Src/main.c    ****       lcd_driver.clear();
 245:Src/main.c    ****       lcd_driver.draw_text(0,0,password_text);
 246:Src/main.c    ****       lcd_driver.draw_text(1, 0, &password[0]);
 247:Src/main.c    ****       lcd_driver.copy();   
 248:Src/main.c    ****     }
 249:Src/main.c    ****     else if(key == '#')
 250:Src/main.c    ****     {
 251:Src/main.c    ****       lcd_driver.clear();
 252:Src/main.c    **** 
 253:Src/main.c    ****       if(password == correct_password)
 254:Src/main.c    ****       {
 255:Src/main.c    ****         if(choosen_mode == 1)
 256:Src/main.c    ****         {
 257:Src/main.c    ****           lcd_driver.draw_text(0,0, "OPEN");
 258:Src/main.c    ****           lcd_driver.copy();
ARM GAS  /tmp/cc2Vvk0o.s 			page 6


 259:Src/main.c    ****           open_doors();
 260:Src/main.c    **** 
 261:Src/main.c    ****           choosen_mode = 0;
 262:Src/main.c    ****         }
 263:Src/main.c    ****         else
 264:Src/main.c    ****         {
 265:Src/main.c    ****           if(alarm_can_be_armed)
 266:Src/main.c    ****           {
 267:Src/main.c    ****             if(alarm_armed)
 268:Src/main.c    ****             {
 269:Src/main.c    ****               disarm_alarm();
 270:Src/main.c    ****             }
 271:Src/main.c    ****             else
 272:Src/main.c    ****             {
 273:Src/main.c    ****               arm_alarm();
 274:Src/main.c    ****             }
 275:Src/main.c    ****             choosen_mode = 0;
 276:Src/main.c    ****             clear_block = 0;
 277:Src/main.c    ****           }
 278:Src/main.c    ****           else
 279:Src/main.c    ****           {
 280:Src/main.c    ****             clear_block = 1;
 281:Src/main.c    ****           }
 282:Src/main.c    ****         }
 283:Src/main.c    ****       }
 284:Src/main.c    ****       else
 285:Src/main.c    ****       {
 286:Src/main.c    ****         lcd_driver.draw_text(0,0, "Access Denied");
 287:Src/main.c    ****         lcd_driver.copy();
 288:Src/main.c    ****         buz.negative_sound();
 289:Src/main.c    ****         HAL_Delay(1000);
 290:Src/main.c    ****       }
 291:Src/main.c    ****       if(!clear_block)
 292:Src/main.c    ****       {
 293:Src/main.c    ****         password.clear();
 294:Src/main.c    ****         lcd_driver.clear();
 295:Src/main.c    ****         lcd_driver.draw_text(0,0, init_message);
 296:Src/main.c    ****         lcd_driver.copy();
 297:Src/main.c    ****       }
 298:Src/main.c    ****     }
 299:Src/main.c    ****     else if(password.length() < 4)
 300:Src/main.c    ****     {
 301:Src/main.c    ****       password.push_back((char)key);
 302:Src/main.c    ****       lcd_driver.draw_text(1, 0, &password[0]);
 303:Src/main.c    ****       lcd_driver.copy();
 304:Src/main.c    ****     }  
 305:Src/main.c    **** 
 306:Src/main.c    ****     HAL_DMA_Start_IT(&hdma_usart2_tx, (uint32_t)key_buf, (uint32_t)&huart2.Instance->DR, strlen(key
 307:Src/main.c    ****   }
 308:Src/main.c    ****   /* USER CODE END 3 */
 309:Src/main.c    **** }
 310:Src/main.c    **** 
 311:Src/main.c    **** /**
 312:Src/main.c    ****   * @brief System Clock Configuration
 313:Src/main.c    ****   * @retval None
 314:Src/main.c    ****   */
 315:Src/main.c    **** void SystemClock_Config(void)
ARM GAS  /tmp/cc2Vvk0o.s 			page 7


 316:Src/main.c    **** {
 317:Src/main.c    ****   RCC_OscInitTypeDef RCC_OscInitStruct = {0};
 318:Src/main.c    ****   RCC_ClkInitTypeDef RCC_ClkInitStruct = {0};
 319:Src/main.c    **** 
 320:Src/main.c    ****   /** Configure the main internal regulator output voltage 
 321:Src/main.c    ****   */
 322:Src/main.c    ****   __HAL_RCC_PWR_CLK_ENABLE();
 323:Src/main.c    ****   __HAL_PWR_VOLTAGESCALING_CONFIG(PWR_REGULATOR_VOLTAGE_SCALE2);
 324:Src/main.c    ****   /** Initializes the CPU, AHB and APB busses clocks 
 325:Src/main.c    ****   */
 326:Src/main.c    ****   RCC_OscInitStruct.OscillatorType = RCC_OSCILLATORTYPE_HSI;
 327:Src/main.c    ****   RCC_OscInitStruct.HSIState = RCC_HSI_ON;
 328:Src/main.c    ****   RCC_OscInitStruct.HSICalibrationValue = RCC_HSICALIBRATION_DEFAULT;
 329:Src/main.c    ****   RCC_OscInitStruct.PLL.PLLState = RCC_PLL_NONE;
 330:Src/main.c    ****   if (HAL_RCC_OscConfig(&RCC_OscInitStruct) != HAL_OK)
 331:Src/main.c    ****   {
 332:Src/main.c    ****     Error_Handler();
 333:Src/main.c    ****   }
 334:Src/main.c    ****   /** Initializes the CPU, AHB and APB busses clocks 
 335:Src/main.c    ****   */
 336:Src/main.c    ****   RCC_ClkInitStruct.ClockType = RCC_CLOCKTYPE_HCLK|RCC_CLOCKTYPE_SYSCLK
 337:Src/main.c    ****                               |RCC_CLOCKTYPE_PCLK1|RCC_CLOCKTYPE_PCLK2;
 338:Src/main.c    ****   RCC_ClkInitStruct.SYSCLKSource = RCC_SYSCLKSOURCE_HSI;
 339:Src/main.c    ****   RCC_ClkInitStruct.AHBCLKDivider = RCC_SYSCLK_DIV1;
 340:Src/main.c    ****   RCC_ClkInitStruct.APB1CLKDivider = RCC_HCLK_DIV1;
 341:Src/main.c    ****   RCC_ClkInitStruct.APB2CLKDivider = RCC_HCLK_DIV1;
 342:Src/main.c    **** 
 343:Src/main.c    ****   if (HAL_RCC_ClockConfig(&RCC_ClkInitStruct, FLASH_LATENCY_0) != HAL_OK)
 344:Src/main.c    ****   {
 345:Src/main.c    ****     Error_Handler();
 346:Src/main.c    ****   }
 347:Src/main.c    **** }
 348:Src/main.c    **** 
 349:Src/main.c    **** /**
 350:Src/main.c    ****   * @brief I2C1 Initialization Function
 351:Src/main.c    ****   * @param None
 352:Src/main.c    ****   * @retval None
 353:Src/main.c    ****   */
 354:Src/main.c    **** static void MX_I2C1_Init(void)
 355:Src/main.c    **** {
 356:Src/main.c    **** 
 357:Src/main.c    ****   /* USER CODE BEGIN I2C1_Init 0 */
 358:Src/main.c    **** 
 359:Src/main.c    ****   /* USER CODE END I2C1_Init 0 */
 360:Src/main.c    **** 
 361:Src/main.c    ****   /* USER CODE BEGIN I2C1_Init 1 */
 362:Src/main.c    **** 
 363:Src/main.c    ****   /* USER CODE END I2C1_Init 1 */
 364:Src/main.c    ****   hi2c1.Instance = I2C1;
 365:Src/main.c    ****   hi2c1.Init.ClockSpeed = 100000;
 366:Src/main.c    ****   hi2c1.Init.DutyCycle = I2C_DUTYCYCLE_2;
 367:Src/main.c    ****   hi2c1.Init.OwnAddress1 = 0;
 368:Src/main.c    ****   hi2c1.Init.AddressingMode = I2C_ADDRESSINGMODE_7BIT;
 369:Src/main.c    ****   hi2c1.Init.DualAddressMode = I2C_DUALADDRESS_DISABLE;
 370:Src/main.c    ****   hi2c1.Init.OwnAddress2 = 0;
 371:Src/main.c    ****   hi2c1.Init.GeneralCallMode = I2C_GENERALCALL_DISABLE;
 372:Src/main.c    ****   hi2c1.Init.NoStretchMode = I2C_NOSTRETCH_DISABLE;
ARM GAS  /tmp/cc2Vvk0o.s 			page 8


 373:Src/main.c    ****   if (HAL_I2C_Init(&hi2c1) != HAL_OK)
 374:Src/main.c    ****   {
 375:Src/main.c    ****     Error_Handler();
 376:Src/main.c    ****   }
 377:Src/main.c    ****   /* USER CODE BEGIN I2C1_Init 2 */
 378:Src/main.c    **** 
 379:Src/main.c    ****   /* USER CODE END I2C1_Init 2 */
 380:Src/main.c    **** 
 381:Src/main.c    **** }
 382:Src/main.c    **** 
 383:Src/main.c    **** /**
 384:Src/main.c    ****   * @brief SPI1 Initialization Function
 385:Src/main.c    ****   * @param None
 386:Src/main.c    ****   * @retval None
 387:Src/main.c    ****   */
 388:Src/main.c    **** static void MX_SPI1_Init(void)
 389:Src/main.c    **** {
 390:Src/main.c    **** 
 391:Src/main.c    ****   /* USER CODE BEGIN SPI1_Init 0 */
 392:Src/main.c    **** 
 393:Src/main.c    ****   /* USER CODE END SPI1_Init 0 */
 394:Src/main.c    **** 
 395:Src/main.c    ****   /* USER CODE BEGIN SPI1_Init 1 */
 396:Src/main.c    **** 
 397:Src/main.c    ****   /* USER CODE END SPI1_Init 1 */
 398:Src/main.c    ****   /* SPI1 parameter configuration*/
 399:Src/main.c    ****   hspi1.Instance = SPI1;
 400:Src/main.c    ****   hspi1.Init.Mode = SPI_MODE_MASTER;
 401:Src/main.c    ****   hspi1.Init.Direction = SPI_DIRECTION_2LINES;
 402:Src/main.c    ****   hspi1.Init.DataSize = SPI_DATASIZE_8BIT;
 403:Src/main.c    ****   hspi1.Init.CLKPolarity = SPI_POLARITY_LOW;
 404:Src/main.c    ****   hspi1.Init.CLKPhase = SPI_PHASE_1EDGE;
 405:Src/main.c    ****   hspi1.Init.NSS = SPI_NSS_SOFT;
 406:Src/main.c    ****   hspi1.Init.BaudRatePrescaler = SPI_BAUDRATEPRESCALER_2;
 407:Src/main.c    ****   hspi1.Init.FirstBit = SPI_FIRSTBIT_MSB;
 408:Src/main.c    ****   hspi1.Init.TIMode = SPI_TIMODE_DISABLE;
 409:Src/main.c    ****   hspi1.Init.CRCCalculation = SPI_CRCCALCULATION_DISABLE;
 410:Src/main.c    ****   hspi1.Init.CRCPolynomial = 10;
 411:Src/main.c    ****   if (HAL_SPI_Init(&hspi1) != HAL_OK)
 412:Src/main.c    ****   {
 413:Src/main.c    ****     Error_Handler();
 414:Src/main.c    ****   }
 415:Src/main.c    ****   /* USER CODE BEGIN SPI1_Init 2 */
 416:Src/main.c    **** 
 417:Src/main.c    ****   /* USER CODE END SPI1_Init 2 */
 418:Src/main.c    **** 
 419:Src/main.c    **** }
 420:Src/main.c    **** 
 421:Src/main.c    **** /**
 422:Src/main.c    ****   * @brief TIM10 Initialization Function
 423:Src/main.c    ****   * @param None
 424:Src/main.c    ****   * @retval None
 425:Src/main.c    ****   */
 426:Src/main.c    **** static void MX_TIM10_Init(void)
 427:Src/main.c    **** {
 428:Src/main.c    **** 
 429:Src/main.c    ****   /* USER CODE BEGIN TIM10_Init 0 */
ARM GAS  /tmp/cc2Vvk0o.s 			page 9


 430:Src/main.c    **** 
 431:Src/main.c    ****   /* USER CODE END TIM10_Init 0 */
 432:Src/main.c    **** 
 433:Src/main.c    ****   TIM_OC_InitTypeDef sConfigOC = {0};
 434:Src/main.c    **** 
 435:Src/main.c    ****   /* USER CODE BEGIN TIM10_Init 1 */
 436:Src/main.c    **** 
 437:Src/main.c    ****   /* USER CODE END TIM10_Init 1 */
 438:Src/main.c    ****   htim10.Instance = TIM10;
 439:Src/main.c    ****   htim10.Init.Prescaler = 40000;
 440:Src/main.c    ****   htim10.Init.CounterMode = TIM_COUNTERMODE_UP;
 441:Src/main.c    ****   htim10.Init.Period = 500;
 442:Src/main.c    ****   htim10.Init.ClockDivision = TIM_CLOCKDIVISION_DIV1;
 443:Src/main.c    ****   htim10.Init.AutoReloadPreload = TIM_AUTORELOAD_PRELOAD_DISABLE;
 444:Src/main.c    ****   if (HAL_TIM_Base_Init(&htim10) != HAL_OK)
 445:Src/main.c    ****   {
 446:Src/main.c    ****     Error_Handler();
 447:Src/main.c    ****   }
 448:Src/main.c    ****   if (HAL_TIM_OC_Init(&htim10) != HAL_OK)
 449:Src/main.c    ****   {
 450:Src/main.c    ****     Error_Handler();
 451:Src/main.c    ****   }
 452:Src/main.c    ****   sConfigOC.OCMode = TIM_OCMODE_TIMING;
 453:Src/main.c    ****   sConfigOC.Pulse = 0;
 454:Src/main.c    ****   sConfigOC.OCPolarity = TIM_OCPOLARITY_HIGH;
 455:Src/main.c    ****   sConfigOC.OCFastMode = TIM_OCFAST_DISABLE;
 456:Src/main.c    ****   if (HAL_TIM_OC_ConfigChannel(&htim10, &sConfigOC, TIM_CHANNEL_1) != HAL_OK)
 457:Src/main.c    ****   {
 458:Src/main.c    ****     Error_Handler();
 459:Src/main.c    ****   }
 460:Src/main.c    ****   /* USER CODE BEGIN TIM10_Init 2 */
 461:Src/main.c    **** 
 462:Src/main.c    ****   /* USER CODE END TIM10_Init 2 */
 463:Src/main.c    **** 
 464:Src/main.c    **** }
 465:Src/main.c    **** 
 466:Src/main.c    **** /**
 467:Src/main.c    ****   * @brief USART2 Initialization Function
 468:Src/main.c    ****   * @param None
 469:Src/main.c    ****   * @retval None
 470:Src/main.c    ****   */
 471:Src/main.c    **** static void MX_USART2_UART_Init(void)
 472:Src/main.c    **** {
 473:Src/main.c    **** 
 474:Src/main.c    ****   /* USER CODE BEGIN USART2_Init 0 */
 475:Src/main.c    **** 
 476:Src/main.c    ****   /* USER CODE END USART2_Init 0 */
 477:Src/main.c    **** 
 478:Src/main.c    ****   /* USER CODE BEGIN USART2_Init 1 */
 479:Src/main.c    **** 
 480:Src/main.c    ****   /* USER CODE END USART2_Init 1 */
 481:Src/main.c    ****   huart2.Instance = USART2;
 482:Src/main.c    ****   huart2.Init.BaudRate = 921600;
 483:Src/main.c    ****   huart2.Init.WordLength = UART_WORDLENGTH_8B;
 484:Src/main.c    ****   huart2.Init.StopBits = UART_STOPBITS_1;
 485:Src/main.c    ****   huart2.Init.Parity = UART_PARITY_NONE;
 486:Src/main.c    ****   huart2.Init.Mode = UART_MODE_TX;
ARM GAS  /tmp/cc2Vvk0o.s 			page 10


 487:Src/main.c    ****   huart2.Init.HwFlowCtl = UART_HWCONTROL_NONE;
 488:Src/main.c    ****   huart2.Init.OverSampling = UART_OVERSAMPLING_16;
 489:Src/main.c    ****   if (HAL_UART_Init(&huart2) != HAL_OK)
 490:Src/main.c    ****   {
 491:Src/main.c    ****     Error_Handler();
 492:Src/main.c    ****   }
 493:Src/main.c    ****   /* USER CODE BEGIN USART2_Init 2 */
 494:Src/main.c    **** 
 495:Src/main.c    ****   /* USER CODE END USART2_Init 2 */
 496:Src/main.c    **** 
 497:Src/main.c    **** }
 498:Src/main.c    **** 
 499:Src/main.c    **** /** 
 500:Src/main.c    ****   * Enable DMA controller clock
 501:Src/main.c    ****   */
 502:Src/main.c    **** static void MX_DMA_Init(void) 
 503:Src/main.c    **** {
 504:Src/main.c    ****   /* DMA controller clock enable */
 505:Src/main.c    ****   __HAL_RCC_DMA1_CLK_ENABLE();
 506:Src/main.c    **** 
 507:Src/main.c    ****   /* DMA interrupt init */
 508:Src/main.c    ****   /* DMA1_Stream6_IRQn interrupt configuration */
 509:Src/main.c    ****   HAL_NVIC_SetPriority(DMA1_Stream6_IRQn, 0, 0);
 510:Src/main.c    ****   HAL_NVIC_EnableIRQ(DMA1_Stream6_IRQn);
 511:Src/main.c    **** 
 512:Src/main.c    **** }
 513:Src/main.c    **** 
 514:Src/main.c    **** /**
 515:Src/main.c    ****   * @brief GPIO Initialization Function
 516:Src/main.c    ****   * @param None
 517:Src/main.c    ****   * @retval None
 518:Src/main.c    ****   */
 519:Src/main.c    **** static void MX_GPIO_Init(void)
 520:Src/main.c    **** {
  29              		.loc 1 520 1 view -0
  30              		.cfi_startproc
  31              		@ args = 0, pretend = 0, frame = 32
  32              		@ frame_needed = 0, uses_anonymous_args = 0
  33 0000 2DE9F047 		push	{r4, r5, r6, r7, r8, r9, r10, lr}
  34              		.save {r4, r5, r6, r7, r8, r9, r10, lr}
  35              	.LCFI0:
  36              		.cfi_def_cfa_offset 32
  37              		.cfi_offset 4, -32
  38              		.cfi_offset 5, -28
  39              		.cfi_offset 6, -24
  40              		.cfi_offset 7, -20
  41              		.cfi_offset 8, -16
  42              		.cfi_offset 9, -12
  43              		.cfi_offset 10, -8
  44              		.cfi_offset 14, -4
  45              		.pad #32
  46 0004 88B0     		sub	sp, sp, #32
  47              	.LCFI1:
  48              		.cfi_def_cfa_offset 64
 521:Src/main.c    ****   GPIO_InitTypeDef GPIO_InitStruct = {0};
  49              		.loc 1 521 3 view .LVU1
  50              		.loc 1 521 20 is_stmt 0 view .LVU2
ARM GAS  /tmp/cc2Vvk0o.s 			page 11


  51 0006 0024     		movs	r4, #0
  52 0008 0394     		str	r4, [sp, #12]
  53 000a 0494     		str	r4, [sp, #16]
  54 000c 0594     		str	r4, [sp, #20]
  55 000e 0694     		str	r4, [sp, #24]
  56 0010 0794     		str	r4, [sp, #28]
 522:Src/main.c    **** 
 523:Src/main.c    ****   /* GPIO Ports Clock Enable */
 524:Src/main.c    ****   __HAL_RCC_GPIOC_CLK_ENABLE();
  57              		.loc 1 524 3 is_stmt 1 view .LVU3
  58              	.LBB242:
  59              		.loc 1 524 3 view .LVU4
  60 0012 0094     		str	r4, [sp]
  61              		.loc 1 524 3 view .LVU5
  62 0014 484B     		ldr	r3, .L3
  63 0016 1A6B     		ldr	r2, [r3, #48]
  64 0018 42F00402 		orr	r2, r2, #4
  65 001c 1A63     		str	r2, [r3, #48]
  66              		.loc 1 524 3 view .LVU6
  67 001e 1A6B     		ldr	r2, [r3, #48]
  68 0020 02F00402 		and	r2, r2, #4
  69 0024 0092     		str	r2, [sp]
  70              		.loc 1 524 3 view .LVU7
  71 0026 009A     		ldr	r2, [sp]
  72              	.LBE242:
 525:Src/main.c    ****   __HAL_RCC_GPIOA_CLK_ENABLE();
  73              		.loc 1 525 3 view .LVU8
  74              	.LBB243:
  75              		.loc 1 525 3 view .LVU9
  76 0028 0194     		str	r4, [sp, #4]
  77              		.loc 1 525 3 view .LVU10
  78 002a 1A6B     		ldr	r2, [r3, #48]
  79 002c 42F00102 		orr	r2, r2, #1
  80 0030 1A63     		str	r2, [r3, #48]
  81              		.loc 1 525 3 view .LVU11
  82 0032 1A6B     		ldr	r2, [r3, #48]
  83 0034 02F00102 		and	r2, r2, #1
  84 0038 0192     		str	r2, [sp, #4]
  85              		.loc 1 525 3 view .LVU12
  86 003a 019A     		ldr	r2, [sp, #4]
  87              	.LBE243:
 526:Src/main.c    ****   __HAL_RCC_GPIOB_CLK_ENABLE();
  88              		.loc 1 526 3 view .LVU13
  89              	.LBB244:
  90              		.loc 1 526 3 view .LVU14
  91 003c 0294     		str	r4, [sp, #8]
  92              		.loc 1 526 3 view .LVU15
  93 003e 1A6B     		ldr	r2, [r3, #48]
  94 0040 42F00202 		orr	r2, r2, #2
  95 0044 1A63     		str	r2, [r3, #48]
  96              		.loc 1 526 3 view .LVU16
  97 0046 1B6B     		ldr	r3, [r3, #48]
  98 0048 03F00203 		and	r3, r3, #2
  99 004c 0293     		str	r3, [sp, #8]
 100              		.loc 1 526 3 view .LVU17
 101 004e 029B     		ldr	r3, [sp, #8]
 102              	.LBE244:
ARM GAS  /tmp/cc2Vvk0o.s 			page 12


 527:Src/main.c    **** 
 528:Src/main.c    ****   /*Configure GPIO pin Output Level */
 529:Src/main.c    ****   HAL_GPIO_WritePin(GPIOC, BUZZER_Pin|KEY_PAD_3_Pin|KEY_PAD_1_Pin|SIREN_PIN_Pin 
 103              		.loc 1 529 3 view .LVU18
 104              		.loc 1 529 20 is_stmt 0 view .LVU19
 105 0050 DFF8F080 		ldr	r8, .L3+12
 106 0054 2246     		mov	r2, r4
 107 0056 40F2E131 		movw	r1, #993
 108 005a 4046     		mov	r0, r8
 109 005c FFF7FEFF 		bl	HAL_GPIO_WritePin
 110              	.LVL0:
 530:Src/main.c    ****                           |KEY_PAD_5_Pin|ALARM_STATE_LED_Pin, GPIO_PIN_RESET);
 531:Src/main.c    **** 
 532:Src/main.c    ****   /*Configure GPIO pin Output Level */
 533:Src/main.c    ****   HAL_GPIO_WritePin(LCD_RST_GPIO_Port, LCD_RST_Pin, GPIO_PIN_SET);
 111              		.loc 1 533 3 is_stmt 1 view .LVU20
 112              		.loc 1 533 20 is_stmt 0 view .LVU21
 113 0060 0122     		movs	r2, #1
 114 0062 0421     		movs	r1, #4
 115 0064 4046     		mov	r0, r8
 116 0066 FFF7FEFF 		bl	HAL_GPIO_WritePin
 117              	.LVL1:
 534:Src/main.c    **** 
 535:Src/main.c    ****   /*Configure GPIO pin Output Level */
 536:Src/main.c    ****   HAL_GPIO_WritePin(GPIOB, DOOR_LOCK_Pin|MOTION_DETECT_LED_Pin|LED_ALARM_INDICATOR_Pin, GPIO_PIN_RE
 118              		.loc 1 536 3 is_stmt 1 view .LVU22
 119              		.loc 1 536 20 is_stmt 0 view .LVU23
 120 006a 344D     		ldr	r5, .L3+4
 121 006c 2246     		mov	r2, r4
 122 006e 4FF44171 		mov	r1, #772
 123 0072 2846     		mov	r0, r5
 124 0074 FFF7FEFF 		bl	HAL_GPIO_WritePin
 125              	.LVL2:
 537:Src/main.c    **** 
 538:Src/main.c    ****   HAL_GPIO_WritePin(GPIOB, MOTION_DETECT_LED_Pin, GPIO_PIN_SET);
 126              		.loc 1 538 3 is_stmt 1 view .LVU24
 127              		.loc 1 538 20 is_stmt 0 view .LVU25
 128 0078 0122     		movs	r2, #1
 129 007a 4FF48071 		mov	r1, #256
 130 007e 2846     		mov	r0, r5
 131 0080 FFF7FEFF 		bl	HAL_GPIO_WritePin
 132              	.LVL3:
 539:Src/main.c    **** 
 540:Src/main.c    ****   /*Configure GPIO pin Output Level */
 541:Src/main.c    ****   HAL_GPIO_WritePin(GPIOA, LCD_CE_Pin|LCD_DC_Pin, GPIO_PIN_SET);
 133              		.loc 1 541 3 is_stmt 1 view .LVU26
 134              		.loc 1 541 20 is_stmt 0 view .LVU27
 135 0084 DFF8C090 		ldr	r9, .L3+16
 136 0088 0122     		movs	r2, #1
 137 008a 4FF44071 		mov	r1, #768
 138 008e 4846     		mov	r0, r9
 139 0090 FFF7FEFF 		bl	HAL_GPIO_WritePin
 140              	.LVL4:
 542:Src/main.c    **** 
 543:Src/main.c    ****   /*Configure GPIO pins : BUZZER_Pin KEY_PAD_3_Pin KEY_PAD_1_Pin SIREN_PIN_Pin 
 544:Src/main.c    ****                            KEY_PAD_5_Pin ALARM_STATE_LED_Pin */
 545:Src/main.c    ****   GPIO_InitStruct.Pin = BUZZER_Pin|KEY_PAD_3_Pin|KEY_PAD_1_Pin|SIREN_PIN_Pin 
ARM GAS  /tmp/cc2Vvk0o.s 			page 13


 141              		.loc 1 545 3 is_stmt 1 view .LVU28
 142              		.loc 1 545 23 is_stmt 0 view .LVU29
 143 0094 40F2E133 		movw	r3, #993
 144 0098 0393     		str	r3, [sp, #12]
 546:Src/main.c    ****                           |KEY_PAD_5_Pin|ALARM_STATE_LED_Pin;
 547:Src/main.c    ****   GPIO_InitStruct.Mode = GPIO_MODE_OUTPUT_PP;
 145              		.loc 1 547 3 is_stmt 1 view .LVU30
 146              		.loc 1 547 24 is_stmt 0 view .LVU31
 147 009a 0126     		movs	r6, #1
 148 009c 0496     		str	r6, [sp, #16]
 548:Src/main.c    ****   GPIO_InitStruct.Pull = GPIO_NOPULL;
 149              		.loc 1 548 3 is_stmt 1 view .LVU32
 150              		.loc 1 548 24 is_stmt 0 view .LVU33
 151 009e 0594     		str	r4, [sp, #20]
 549:Src/main.c    ****   GPIO_InitStruct.Speed = GPIO_SPEED_FREQ_LOW;
 152              		.loc 1 549 3 is_stmt 1 view .LVU34
 153              		.loc 1 549 25 is_stmt 0 view .LVU35
 154 00a0 0694     		str	r4, [sp, #24]
 550:Src/main.c    ****   HAL_GPIO_Init(GPIOC, &GPIO_InitStruct);
 155              		.loc 1 550 3 is_stmt 1 view .LVU36
 156              		.loc 1 550 16 is_stmt 0 view .LVU37
 157 00a2 03A9     		add	r1, sp, #12
 158 00a4 4046     		mov	r0, r8
 159 00a6 FFF7FEFF 		bl	HAL_GPIO_Init
 160              	.LVL5:
 551:Src/main.c    **** 
 552:Src/main.c    ****   /*Configure GPIO pin : LCD_RST_Pin */
 553:Src/main.c    ****   GPIO_InitStruct.Pin = LCD_RST_Pin;
 161              		.loc 1 553 3 is_stmt 1 view .LVU38
 162              		.loc 1 553 23 is_stmt 0 view .LVU39
 163 00aa 4FF0040A 		mov	r10, #4
 164 00ae CDF80CA0 		str	r10, [sp, #12]
 554:Src/main.c    ****   GPIO_InitStruct.Mode = GPIO_MODE_OUTPUT_PP;
 165              		.loc 1 554 3 is_stmt 1 view .LVU40
 166              		.loc 1 554 24 is_stmt 0 view .LVU41
 167 00b2 0496     		str	r6, [sp, #16]
 555:Src/main.c    ****   GPIO_InitStruct.Pull = GPIO_PULLDOWN;
 168              		.loc 1 555 3 is_stmt 1 view .LVU42
 169              		.loc 1 555 24 is_stmt 0 view .LVU43
 170 00b4 0227     		movs	r7, #2
 171 00b6 0597     		str	r7, [sp, #20]
 556:Src/main.c    ****   GPIO_InitStruct.Speed = GPIO_SPEED_FREQ_LOW;
 172              		.loc 1 556 3 is_stmt 1 view .LVU44
 173              		.loc 1 556 25 is_stmt 0 view .LVU45
 174 00b8 0694     		str	r4, [sp, #24]
 557:Src/main.c    ****   HAL_GPIO_Init(LCD_RST_GPIO_Port, &GPIO_InitStruct);
 175              		.loc 1 557 3 is_stmt 1 view .LVU46
 176              		.loc 1 557 16 is_stmt 0 view .LVU47
 177 00ba 03A9     		add	r1, sp, #12
 178 00bc 4046     		mov	r0, r8
 179 00be FFF7FEFF 		bl	HAL_GPIO_Init
 180              	.LVL6:
 558:Src/main.c    **** 
 559:Src/main.c    ****   /*Configure GPIO pin : MOTION_IT_Pin */
 560:Src/main.c    ****   GPIO_InitStruct.Pin = MOTION_IT_Pin;
 181              		.loc 1 560 3 is_stmt 1 view .LVU48
 182              		.loc 1 560 23 is_stmt 0 view .LVU49
ARM GAS  /tmp/cc2Vvk0o.s 			page 14


 183 00c2 0823     		movs	r3, #8
 184 00c4 0393     		str	r3, [sp, #12]
 561:Src/main.c    ****   GPIO_InitStruct.Mode = GPIO_MODE_IT_RISING_FALLING;
 185              		.loc 1 561 3 is_stmt 1 view .LVU50
 186              		.loc 1 561 24 is_stmt 0 view .LVU51
 187 00c6 1E4B     		ldr	r3, .L3+8
 188 00c8 0493     		str	r3, [sp, #16]
 562:Src/main.c    ****   GPIO_InitStruct.Pull = GPIO_PULLDOWN;
 189              		.loc 1 562 3 is_stmt 1 view .LVU52
 190              		.loc 1 562 24 is_stmt 0 view .LVU53
 191 00ca 0597     		str	r7, [sp, #20]
 563:Src/main.c    ****   HAL_GPIO_Init(MOTION_IT_GPIO_Port, &GPIO_InitStruct);
 192              		.loc 1 563 3 is_stmt 1 view .LVU54
 193              		.loc 1 563 16 is_stmt 0 view .LVU55
 194 00cc 03A9     		add	r1, sp, #12
 195 00ce 4046     		mov	r0, r8
 196 00d0 FFF7FEFF 		bl	HAL_GPIO_Init
 197              	.LVL7:
 564:Src/main.c    **** 
 565:Src/main.c    ****   /*Configure GPIO pins : KEY_PAD_2_Pin KEY_PAD_7_Pin KEY_PAD_6_Pin KEY_PAD_4_Pin */
 566:Src/main.c    ****   GPIO_InitStruct.Pin = KEY_PAD_2_Pin|KEY_PAD_7_Pin|KEY_PAD_6_Pin|KEY_PAD_4_Pin;
 198              		.loc 1 566 3 is_stmt 1 view .LVU56
 199              		.loc 1 566 23 is_stmt 0 view .LVU57
 200 00d4 4EF20203 		movw	r3, #57346
 201 00d8 0393     		str	r3, [sp, #12]
 567:Src/main.c    ****   GPIO_InitStruct.Mode = GPIO_MODE_INPUT;
 202              		.loc 1 567 3 is_stmt 1 view .LVU58
 203              		.loc 1 567 24 is_stmt 0 view .LVU59
 204 00da 0494     		str	r4, [sp, #16]
 568:Src/main.c    ****   GPIO_InitStruct.Pull = GPIO_PULLDOWN;
 205              		.loc 1 568 3 is_stmt 1 view .LVU60
 206              		.loc 1 568 24 is_stmt 0 view .LVU61
 207 00dc 0597     		str	r7, [sp, #20]
 569:Src/main.c    ****   HAL_GPIO_Init(GPIOB, &GPIO_InitStruct);
 208              		.loc 1 569 3 is_stmt 1 view .LVU62
 209              		.loc 1 569 16 is_stmt 0 view .LVU63
 210 00de 03A9     		add	r1, sp, #12
 211 00e0 2846     		mov	r0, r5
 212 00e2 FFF7FEFF 		bl	HAL_GPIO_Init
 213              	.LVL8:
 570:Src/main.c    **** 
 571:Src/main.c    ****   /*Configure GPIO pin : DOOR_LOCK_Pin */
 572:Src/main.c    ****   GPIO_InitStruct.Pin = DOOR_LOCK_Pin;
 214              		.loc 1 572 3 is_stmt 1 view .LVU64
 215              		.loc 1 572 23 is_stmt 0 view .LVU65
 216 00e6 CDF80CA0 		str	r10, [sp, #12]
 573:Src/main.c    ****   GPIO_InitStruct.Mode = GPIO_MODE_OUTPUT_PP;
 217              		.loc 1 573 3 is_stmt 1 view .LVU66
 218              		.loc 1 573 24 is_stmt 0 view .LVU67
 219 00ea 0496     		str	r6, [sp, #16]
 574:Src/main.c    ****   GPIO_InitStruct.Pull = GPIO_PULLDOWN;
 220              		.loc 1 574 3 is_stmt 1 view .LVU68
 221              		.loc 1 574 24 is_stmt 0 view .LVU69
 222 00ec 0597     		str	r7, [sp, #20]
 575:Src/main.c    ****   GPIO_InitStruct.Speed = GPIO_SPEED_FREQ_LOW;
 223              		.loc 1 575 3 is_stmt 1 view .LVU70
 224              		.loc 1 575 25 is_stmt 0 view .LVU71
ARM GAS  /tmp/cc2Vvk0o.s 			page 15


 225 00ee 0694     		str	r4, [sp, #24]
 576:Src/main.c    ****   HAL_GPIO_Init(DOOR_LOCK_GPIO_Port, &GPIO_InitStruct);
 226              		.loc 1 576 3 is_stmt 1 view .LVU72
 227              		.loc 1 576 16 is_stmt 0 view .LVU73
 228 00f0 03A9     		add	r1, sp, #12
 229 00f2 2846     		mov	r0, r5
 230 00f4 FFF7FEFF 		bl	HAL_GPIO_Init
 231              	.LVL9:
 577:Src/main.c    **** 
 578:Src/main.c    ****   /*Configure GPIO pins : LCD_CE_Pin LCD_DC_Pin */
 579:Src/main.c    ****   GPIO_InitStruct.Pin = LCD_CE_Pin|LCD_DC_Pin;
 232              		.loc 1 579 3 is_stmt 1 view .LVU74
 233              		.loc 1 579 23 is_stmt 0 view .LVU75
 234 00f8 4FF44078 		mov	r8, #768
 235 00fc CDF80C80 		str	r8, [sp, #12]
 580:Src/main.c    ****   GPIO_InitStruct.Mode = GPIO_MODE_OUTPUT_PP;
 236              		.loc 1 580 3 is_stmt 1 view .LVU76
 237              		.loc 1 580 24 is_stmt 0 view .LVU77
 238 0100 0496     		str	r6, [sp, #16]
 581:Src/main.c    ****   GPIO_InitStruct.Pull = GPIO_PULLDOWN;
 239              		.loc 1 581 3 is_stmt 1 view .LVU78
 240              		.loc 1 581 24 is_stmt 0 view .LVU79
 241 0102 0597     		str	r7, [sp, #20]
 582:Src/main.c    ****   GPIO_InitStruct.Speed = GPIO_SPEED_FREQ_LOW;
 242              		.loc 1 582 3 is_stmt 1 view .LVU80
 243              		.loc 1 582 25 is_stmt 0 view .LVU81
 244 0104 0694     		str	r4, [sp, #24]
 583:Src/main.c    ****   HAL_GPIO_Init(GPIOA, &GPIO_InitStruct);
 245              		.loc 1 583 3 is_stmt 1 view .LVU82
 246              		.loc 1 583 16 is_stmt 0 view .LVU83
 247 0106 03A9     		add	r1, sp, #12
 248 0108 4846     		mov	r0, r9
 249 010a FFF7FEFF 		bl	HAL_GPIO_Init
 250              	.LVL10:
 584:Src/main.c    **** 
 585:Src/main.c    ****   /*Configure GPIO pins : MOTION_DETECT_LED_Pin LED_ALARM_INDICATOR_Pin */
 586:Src/main.c    ****   GPIO_InitStruct.Pin = MOTION_DETECT_LED_Pin|LED_ALARM_INDICATOR_Pin;
 251              		.loc 1 586 3 is_stmt 1 view .LVU84
 252              		.loc 1 586 23 is_stmt 0 view .LVU85
 253 010e CDF80C80 		str	r8, [sp, #12]
 587:Src/main.c    ****   GPIO_InitStruct.Mode = GPIO_MODE_OUTPUT_PP;
 254              		.loc 1 587 3 is_stmt 1 view .LVU86
 255              		.loc 1 587 24 is_stmt 0 view .LVU87
 256 0112 0496     		str	r6, [sp, #16]
 588:Src/main.c    ****   GPIO_InitStruct.Pull = GPIO_NOPULL;
 257              		.loc 1 588 3 is_stmt 1 view .LVU88
 258              		.loc 1 588 24 is_stmt 0 view .LVU89
 259 0114 0594     		str	r4, [sp, #20]
 589:Src/main.c    ****   GPIO_InitStruct.Speed = GPIO_SPEED_FREQ_LOW;
 260              		.loc 1 589 3 is_stmt 1 view .LVU90
 261              		.loc 1 589 25 is_stmt 0 view .LVU91
 262 0116 0694     		str	r4, [sp, #24]
 590:Src/main.c    ****   HAL_GPIO_Init(GPIOB, &GPIO_InitStruct);
 263              		.loc 1 590 3 is_stmt 1 view .LVU92
 264              		.loc 1 590 16 is_stmt 0 view .LVU93
 265 0118 03A9     		add	r1, sp, #12
 266 011a 2846     		mov	r0, r5
ARM GAS  /tmp/cc2Vvk0o.s 			page 16


 267 011c FFF7FEFF 		bl	HAL_GPIO_Init
 268              	.LVL11:
 591:Src/main.c    **** 
 592:Src/main.c    ****   /* EXTI interrupt init*/
 593:Src/main.c    ****   HAL_NVIC_SetPriority(EXTI3_IRQn, 0, 0);
 269              		.loc 1 593 3 is_stmt 1 view .LVU94
 270              		.loc 1 593 23 is_stmt 0 view .LVU95
 271 0120 2246     		mov	r2, r4
 272 0122 2146     		mov	r1, r4
 273 0124 0920     		movs	r0, #9
 274 0126 FFF7FEFF 		bl	HAL_NVIC_SetPriority
 275              	.LVL12:
 594:Src/main.c    ****   HAL_NVIC_EnableIRQ(EXTI3_IRQn);
 276              		.loc 1 594 3 is_stmt 1 view .LVU96
 277              		.loc 1 594 21 is_stmt 0 view .LVU97
 278 012a 0920     		movs	r0, #9
 279 012c FFF7FEFF 		bl	HAL_NVIC_EnableIRQ
 280              	.LVL13:
 595:Src/main.c    **** 
 596:Src/main.c    **** }
 281              		.loc 1 596 1 view .LVU98
 282 0130 08B0     		add	sp, sp, #32
 283              	.LCFI2:
 284              		.cfi_def_cfa_offset 32
 285              		@ sp needed
 286 0132 BDE8F087 		pop	{r4, r5, r6, r7, r8, r9, r10, pc}
 287              	.L4:
 288 0136 00BF     		.align	2
 289              	.L3:
 290 0138 00380240 		.word	1073887232
 291 013c 00040240 		.word	1073873920
 292 0140 00003110 		.word	271646720
 293 0144 00080240 		.word	1073874944
 294 0148 00000240 		.word	1073872896
 295              		.cfi_endproc
 296              	.LFE1131:
 297              		.fnend
 299              		.section	.text._ZL11MX_DMA_Initv,"ax",%progbits
 300              		.align	1
 301              		.syntax unified
 302              		.thumb
 303              		.thumb_func
 304              		.fpu fpv4-sp-d16
 306              	_ZL11MX_DMA_Initv:
 307              		.fnstart
 308              	.LFB1130:
 503:Src/main.c    ****   /* DMA controller clock enable */
 309              		.loc 1 503 1 is_stmt 1 view -0
 310              		.cfi_startproc
 311              		@ args = 0, pretend = 0, frame = 8
 312              		@ frame_needed = 0, uses_anonymous_args = 0
 313 0000 00B5     		push	{lr}
 314              		.save {lr}
 315              	.LCFI3:
 316              		.cfi_def_cfa_offset 4
 317              		.cfi_offset 14, -4
 318              		.pad #12
ARM GAS  /tmp/cc2Vvk0o.s 			page 17


 319 0002 83B0     		sub	sp, sp, #12
 320              	.LCFI4:
 321              		.cfi_def_cfa_offset 16
 505:Src/main.c    **** 
 322              		.loc 1 505 3 view .LVU100
 323              	.LBB245:
 505:Src/main.c    **** 
 324              		.loc 1 505 3 view .LVU101
 325 0004 0021     		movs	r1, #0
 326 0006 0191     		str	r1, [sp, #4]
 505:Src/main.c    **** 
 327              		.loc 1 505 3 view .LVU102
 328 0008 094B     		ldr	r3, .L7
 329 000a 1A6B     		ldr	r2, [r3, #48]
 330 000c 42F40012 		orr	r2, r2, #2097152
 331 0010 1A63     		str	r2, [r3, #48]
 505:Src/main.c    **** 
 332              		.loc 1 505 3 view .LVU103
 333 0012 1B6B     		ldr	r3, [r3, #48]
 334 0014 03F40013 		and	r3, r3, #2097152
 335 0018 0193     		str	r3, [sp, #4]
 505:Src/main.c    **** 
 336              		.loc 1 505 3 view .LVU104
 337 001a 019B     		ldr	r3, [sp, #4]
 338              	.LBE245:
 509:Src/main.c    ****   HAL_NVIC_EnableIRQ(DMA1_Stream6_IRQn);
 339              		.loc 1 509 3 view .LVU105
 509:Src/main.c    ****   HAL_NVIC_EnableIRQ(DMA1_Stream6_IRQn);
 340              		.loc 1 509 23 is_stmt 0 view .LVU106
 341 001c 0A46     		mov	r2, r1
 342 001e 1120     		movs	r0, #17
 343 0020 FFF7FEFF 		bl	HAL_NVIC_SetPriority
 344              	.LVL14:
 510:Src/main.c    **** 
 345              		.loc 1 510 3 is_stmt 1 view .LVU107
 510:Src/main.c    **** 
 346              		.loc 1 510 21 is_stmt 0 view .LVU108
 347 0024 1120     		movs	r0, #17
 348 0026 FFF7FEFF 		bl	HAL_NVIC_EnableIRQ
 349              	.LVL15:
 512:Src/main.c    **** 
 350              		.loc 1 512 1 view .LVU109
 351 002a 03B0     		add	sp, sp, #12
 352              	.LCFI5:
 353              		.cfi_def_cfa_offset 4
 354              		@ sp needed
 355 002c 5DF804FB 		ldr	pc, [sp], #4
 356              	.L8:
 357              		.align	2
 358              	.L7:
 359 0030 00380240 		.word	1073887232
 360              		.cfi_endproc
 361              	.LFE1130:
 362              		.fnend
 364              		.section	.text._ZL12MX_SPI1_Initv,"ax",%progbits
 365              		.align	1
 366              		.syntax unified
ARM GAS  /tmp/cc2Vvk0o.s 			page 18


 367              		.thumb
 368              		.thumb_func
 369              		.fpu fpv4-sp-d16
 371              	_ZL12MX_SPI1_Initv:
 372              		.fnstart
 373              	.LFB1127:
 389:Src/main.c    **** 
 374              		.loc 1 389 1 is_stmt 1 view -0
 375              		.cfi_startproc
 376              		@ args = 0, pretend = 0, frame = 0
 377              		@ frame_needed = 0, uses_anonymous_args = 0
 378 0000 08B5     		push	{r3, lr}
 379              		.save {r3, lr}
 380              	.LCFI6:
 381              		.cfi_def_cfa_offset 8
 382              		.cfi_offset 3, -8
 383              		.cfi_offset 14, -4
 399:Src/main.c    ****   hspi1.Init.Mode = SPI_MODE_MASTER;
 384              		.loc 1 399 3 view .LVU111
 399:Src/main.c    ****   hspi1.Init.Mode = SPI_MODE_MASTER;
 385              		.loc 1 399 18 is_stmt 0 view .LVU112
 386 0002 0B48     		ldr	r0, .L11
 387 0004 0B4B     		ldr	r3, .L11+4
 388 0006 0360     		str	r3, [r0]
 400:Src/main.c    ****   hspi1.Init.Direction = SPI_DIRECTION_2LINES;
 389              		.loc 1 400 3 is_stmt 1 view .LVU113
 400:Src/main.c    ****   hspi1.Init.Direction = SPI_DIRECTION_2LINES;
 390              		.loc 1 400 19 is_stmt 0 view .LVU114
 391 0008 4FF48273 		mov	r3, #260
 392 000c 4360     		str	r3, [r0, #4]
 401:Src/main.c    ****   hspi1.Init.DataSize = SPI_DATASIZE_8BIT;
 393              		.loc 1 401 3 is_stmt 1 view .LVU115
 401:Src/main.c    ****   hspi1.Init.DataSize = SPI_DATASIZE_8BIT;
 394              		.loc 1 401 24 is_stmt 0 view .LVU116
 395 000e 0023     		movs	r3, #0
 396 0010 8360     		str	r3, [r0, #8]
 402:Src/main.c    ****   hspi1.Init.CLKPolarity = SPI_POLARITY_LOW;
 397              		.loc 1 402 3 is_stmt 1 view .LVU117
 402:Src/main.c    ****   hspi1.Init.CLKPolarity = SPI_POLARITY_LOW;
 398              		.loc 1 402 23 is_stmt 0 view .LVU118
 399 0012 C360     		str	r3, [r0, #12]
 403:Src/main.c    ****   hspi1.Init.CLKPhase = SPI_PHASE_1EDGE;
 400              		.loc 1 403 3 is_stmt 1 view .LVU119
 403:Src/main.c    ****   hspi1.Init.CLKPhase = SPI_PHASE_1EDGE;
 401              		.loc 1 403 26 is_stmt 0 view .LVU120
 402 0014 0361     		str	r3, [r0, #16]
 404:Src/main.c    ****   hspi1.Init.NSS = SPI_NSS_SOFT;
 403              		.loc 1 404 3 is_stmt 1 view .LVU121
 404:Src/main.c    ****   hspi1.Init.NSS = SPI_NSS_SOFT;
 404              		.loc 1 404 23 is_stmt 0 view .LVU122
 405 0016 4361     		str	r3, [r0, #20]
 405:Src/main.c    ****   hspi1.Init.BaudRatePrescaler = SPI_BAUDRATEPRESCALER_2;
 406              		.loc 1 405 3 is_stmt 1 view .LVU123
 405:Src/main.c    ****   hspi1.Init.BaudRatePrescaler = SPI_BAUDRATEPRESCALER_2;
 407              		.loc 1 405 18 is_stmt 0 view .LVU124
 408 0018 4FF40072 		mov	r2, #512
 409 001c 8261     		str	r2, [r0, #24]
ARM GAS  /tmp/cc2Vvk0o.s 			page 19


 406:Src/main.c    ****   hspi1.Init.FirstBit = SPI_FIRSTBIT_MSB;
 410              		.loc 1 406 3 is_stmt 1 view .LVU125
 406:Src/main.c    ****   hspi1.Init.FirstBit = SPI_FIRSTBIT_MSB;
 411              		.loc 1 406 32 is_stmt 0 view .LVU126
 412 001e C361     		str	r3, [r0, #28]
 407:Src/main.c    ****   hspi1.Init.TIMode = SPI_TIMODE_DISABLE;
 413              		.loc 1 407 3 is_stmt 1 view .LVU127
 407:Src/main.c    ****   hspi1.Init.TIMode = SPI_TIMODE_DISABLE;
 414              		.loc 1 407 23 is_stmt 0 view .LVU128
 415 0020 0362     		str	r3, [r0, #32]
 408:Src/main.c    ****   hspi1.Init.CRCCalculation = SPI_CRCCALCULATION_DISABLE;
 416              		.loc 1 408 3 is_stmt 1 view .LVU129
 408:Src/main.c    ****   hspi1.Init.CRCCalculation = SPI_CRCCALCULATION_DISABLE;
 417              		.loc 1 408 21 is_stmt 0 view .LVU130
 418 0022 4362     		str	r3, [r0, #36]
 409:Src/main.c    ****   hspi1.Init.CRCPolynomial = 10;
 419              		.loc 1 409 3 is_stmt 1 view .LVU131
 409:Src/main.c    ****   hspi1.Init.CRCPolynomial = 10;
 420              		.loc 1 409 29 is_stmt 0 view .LVU132
 421 0024 8362     		str	r3, [r0, #40]
 410:Src/main.c    ****   if (HAL_SPI_Init(&hspi1) != HAL_OK)
 422              		.loc 1 410 3 is_stmt 1 view .LVU133
 410:Src/main.c    ****   if (HAL_SPI_Init(&hspi1) != HAL_OK)
 423              		.loc 1 410 28 is_stmt 0 view .LVU134
 424 0026 0A23     		movs	r3, #10
 425 0028 C362     		str	r3, [r0, #44]
 411:Src/main.c    ****   {
 426              		.loc 1 411 3 is_stmt 1 view .LVU135
 411:Src/main.c    ****   {
 427              		.loc 1 411 19 is_stmt 0 view .LVU136
 428 002a FFF7FEFF 		bl	HAL_SPI_Init
 429              	.LVL16:
 419:Src/main.c    **** 
 430              		.loc 1 419 1 view .LVU137
 431 002e 08BD     		pop	{r3, pc}
 432              	.L12:
 433              		.align	2
 434              	.L11:
 435 0030 00000000 		.word	.LANCHOR0
 436 0034 00300140 		.word	1073819648
 437              		.cfi_endproc
 438              	.LFE1127:
 439              		.fnend
 441              		.section	.text._ZL19MX_USART2_UART_Initv,"ax",%progbits
 442              		.align	1
 443              		.syntax unified
 444              		.thumb
 445              		.thumb_func
 446              		.fpu fpv4-sp-d16
 448              	_ZL19MX_USART2_UART_Initv:
 449              		.fnstart
 450              	.LFB1129:
 472:Src/main.c    **** 
 451              		.loc 1 472 1 is_stmt 1 view -0
 452              		.cfi_startproc
 453              		@ args = 0, pretend = 0, frame = 0
 454              		@ frame_needed = 0, uses_anonymous_args = 0
ARM GAS  /tmp/cc2Vvk0o.s 			page 20


 455 0000 08B5     		push	{r3, lr}
 456              		.save {r3, lr}
 457              	.LCFI7:
 458              		.cfi_def_cfa_offset 8
 459              		.cfi_offset 3, -8
 460              		.cfi_offset 14, -4
 481:Src/main.c    ****   huart2.Init.BaudRate = 921600;
 461              		.loc 1 481 3 view .LVU139
 481:Src/main.c    ****   huart2.Init.BaudRate = 921600;
 462              		.loc 1 481 19 is_stmt 0 view .LVU140
 463 0002 0848     		ldr	r0, .L15
 464 0004 084B     		ldr	r3, .L15+4
 465 0006 0360     		str	r3, [r0]
 482:Src/main.c    ****   huart2.Init.WordLength = UART_WORDLENGTH_8B;
 466              		.loc 1 482 3 is_stmt 1 view .LVU141
 482:Src/main.c    ****   huart2.Init.WordLength = UART_WORDLENGTH_8B;
 467              		.loc 1 482 24 is_stmt 0 view .LVU142
 468 0008 4FF46123 		mov	r3, #921600
 469 000c 4360     		str	r3, [r0, #4]
 483:Src/main.c    ****   huart2.Init.StopBits = UART_STOPBITS_1;
 470              		.loc 1 483 3 is_stmt 1 view .LVU143
 483:Src/main.c    ****   huart2.Init.StopBits = UART_STOPBITS_1;
 471              		.loc 1 483 26 is_stmt 0 view .LVU144
 472 000e 0023     		movs	r3, #0
 473 0010 8360     		str	r3, [r0, #8]
 484:Src/main.c    ****   huart2.Init.Parity = UART_PARITY_NONE;
 474              		.loc 1 484 3 is_stmt 1 view .LVU145
 484:Src/main.c    ****   huart2.Init.Parity = UART_PARITY_NONE;
 475              		.loc 1 484 24 is_stmt 0 view .LVU146
 476 0012 C360     		str	r3, [r0, #12]
 485:Src/main.c    ****   huart2.Init.Mode = UART_MODE_TX;
 477              		.loc 1 485 3 is_stmt 1 view .LVU147
 485:Src/main.c    ****   huart2.Init.Mode = UART_MODE_TX;
 478              		.loc 1 485 22 is_stmt 0 view .LVU148
 479 0014 0361     		str	r3, [r0, #16]
 486:Src/main.c    ****   huart2.Init.HwFlowCtl = UART_HWCONTROL_NONE;
 480              		.loc 1 486 3 is_stmt 1 view .LVU149
 486:Src/main.c    ****   huart2.Init.HwFlowCtl = UART_HWCONTROL_NONE;
 481              		.loc 1 486 20 is_stmt 0 view .LVU150
 482 0016 0822     		movs	r2, #8
 483 0018 4261     		str	r2, [r0, #20]
 487:Src/main.c    ****   huart2.Init.OverSampling = UART_OVERSAMPLING_16;
 484              		.loc 1 487 3 is_stmt 1 view .LVU151
 487:Src/main.c    ****   huart2.Init.OverSampling = UART_OVERSAMPLING_16;
 485              		.loc 1 487 25 is_stmt 0 view .LVU152
 486 001a 8361     		str	r3, [r0, #24]
 488:Src/main.c    ****   if (HAL_UART_Init(&huart2) != HAL_OK)
 487              		.loc 1 488 3 is_stmt 1 view .LVU153
 488:Src/main.c    ****   if (HAL_UART_Init(&huart2) != HAL_OK)
 488              		.loc 1 488 28 is_stmt 0 view .LVU154
 489 001c C361     		str	r3, [r0, #28]
 489:Src/main.c    ****   {
 490              		.loc 1 489 3 is_stmt 1 view .LVU155
 489:Src/main.c    ****   {
 491              		.loc 1 489 20 is_stmt 0 view .LVU156
 492 001e FFF7FEFF 		bl	HAL_UART_Init
 493              	.LVL17:
ARM GAS  /tmp/cc2Vvk0o.s 			page 21


 497:Src/main.c    **** 
 494              		.loc 1 497 1 view .LVU157
 495 0022 08BD     		pop	{r3, pc}
 496              	.L16:
 497              		.align	2
 498              	.L15:
 499 0024 00000000 		.word	.LANCHOR1
 500 0028 00440040 		.word	1073759232
 501              		.cfi_endproc
 502              	.LFE1129:
 503              		.fnend
 505              		.section	.text._ZL13MX_TIM10_Initv,"ax",%progbits
 506              		.align	1
 507              		.syntax unified
 508              		.thumb
 509              		.thumb_func
 510              		.fpu fpv4-sp-d16
 512              	_ZL13MX_TIM10_Initv:
 513              		.fnstart
 514              	.LFB1128:
 427:Src/main.c    **** 
 515              		.loc 1 427 1 is_stmt 1 view -0
 516              		.cfi_startproc
 517              		@ args = 0, pretend = 0, frame = 32
 518              		@ frame_needed = 0, uses_anonymous_args = 0
 519 0000 30B5     		push	{r4, r5, lr}
 520              		.save {r4, r5, lr}
 521              	.LCFI8:
 522              		.cfi_def_cfa_offset 12
 523              		.cfi_offset 4, -12
 524              		.cfi_offset 5, -8
 525              		.cfi_offset 14, -4
 526              		.pad #36
 527 0002 89B0     		sub	sp, sp, #36
 528              	.LCFI9:
 529              		.cfi_def_cfa_offset 48
 433:Src/main.c    **** 
 530              		.loc 1 433 3 view .LVU159
 433:Src/main.c    **** 
 531              		.loc 1 433 22 is_stmt 0 view .LVU160
 532 0004 0024     		movs	r4, #0
 533 0006 0194     		str	r4, [sp, #4]
 534 0008 0294     		str	r4, [sp, #8]
 535 000a 0394     		str	r4, [sp, #12]
 536 000c 0494     		str	r4, [sp, #16]
 537 000e 0594     		str	r4, [sp, #20]
 538 0010 0694     		str	r4, [sp, #24]
 539 0012 0794     		str	r4, [sp, #28]
 438:Src/main.c    ****   htim10.Init.Prescaler = 40000;
 540              		.loc 1 438 3 is_stmt 1 view .LVU161
 438:Src/main.c    ****   htim10.Init.Prescaler = 40000;
 541              		.loc 1 438 19 is_stmt 0 view .LVU162
 542 0014 0E4D     		ldr	r5, .L19
 543 0016 0F4B     		ldr	r3, .L19+4
 544 0018 2B60     		str	r3, [r5]
 439:Src/main.c    ****   htim10.Init.CounterMode = TIM_COUNTERMODE_UP;
 545              		.loc 1 439 3 is_stmt 1 view .LVU163
ARM GAS  /tmp/cc2Vvk0o.s 			page 22


 439:Src/main.c    ****   htim10.Init.CounterMode = TIM_COUNTERMODE_UP;
 546              		.loc 1 439 25 is_stmt 0 view .LVU164
 547 001a 49F64043 		movw	r3, #40000
 548 001e 6B60     		str	r3, [r5, #4]
 440:Src/main.c    ****   htim10.Init.Period = 500;
 549              		.loc 1 440 3 is_stmt 1 view .LVU165
 440:Src/main.c    ****   htim10.Init.Period = 500;
 550              		.loc 1 440 27 is_stmt 0 view .LVU166
 551 0020 AC60     		str	r4, [r5, #8]
 441:Src/main.c    ****   htim10.Init.ClockDivision = TIM_CLOCKDIVISION_DIV1;
 552              		.loc 1 441 3 is_stmt 1 view .LVU167
 441:Src/main.c    ****   htim10.Init.ClockDivision = TIM_CLOCKDIVISION_DIV1;
 553              		.loc 1 441 22 is_stmt 0 view .LVU168
 554 0022 4FF4FA73 		mov	r3, #500
 555 0026 EB60     		str	r3, [r5, #12]
 442:Src/main.c    ****   htim10.Init.AutoReloadPreload = TIM_AUTORELOAD_PRELOAD_DISABLE;
 556              		.loc 1 442 3 is_stmt 1 view .LVU169
 442:Src/main.c    ****   htim10.Init.AutoReloadPreload = TIM_AUTORELOAD_PRELOAD_DISABLE;
 557              		.loc 1 442 29 is_stmt 0 view .LVU170
 558 0028 2C61     		str	r4, [r5, #16]
 443:Src/main.c    ****   if (HAL_TIM_Base_Init(&htim10) != HAL_OK)
 559              		.loc 1 443 3 is_stmt 1 view .LVU171
 443:Src/main.c    ****   if (HAL_TIM_Base_Init(&htim10) != HAL_OK)
 560              		.loc 1 443 33 is_stmt 0 view .LVU172
 561 002a AC61     		str	r4, [r5, #24]
 444:Src/main.c    ****   {
 562              		.loc 1 444 3 is_stmt 1 view .LVU173
 444:Src/main.c    ****   {
 563              		.loc 1 444 24 is_stmt 0 view .LVU174
 564 002c 2846     		mov	r0, r5
 565 002e FFF7FEFF 		bl	HAL_TIM_Base_Init
 566              	.LVL18:
 448:Src/main.c    ****   {
 567              		.loc 1 448 3 is_stmt 1 view .LVU175
 448:Src/main.c    ****   {
 568              		.loc 1 448 22 is_stmt 0 view .LVU176
 569 0032 2846     		mov	r0, r5
 570 0034 FFF7FEFF 		bl	HAL_TIM_OC_Init
 571              	.LVL19:
 452:Src/main.c    ****   sConfigOC.Pulse = 0;
 572              		.loc 1 452 3 is_stmt 1 view .LVU177
 452:Src/main.c    ****   sConfigOC.Pulse = 0;
 573              		.loc 1 452 20 is_stmt 0 view .LVU178
 574 0038 0194     		str	r4, [sp, #4]
 453:Src/main.c    ****   sConfigOC.OCPolarity = TIM_OCPOLARITY_HIGH;
 575              		.loc 1 453 3 is_stmt 1 view .LVU179
 453:Src/main.c    ****   sConfigOC.OCPolarity = TIM_OCPOLARITY_HIGH;
 576              		.loc 1 453 19 is_stmt 0 view .LVU180
 577 003a 0294     		str	r4, [sp, #8]
 454:Src/main.c    ****   sConfigOC.OCFastMode = TIM_OCFAST_DISABLE;
 578              		.loc 1 454 3 is_stmt 1 view .LVU181
 454:Src/main.c    ****   sConfigOC.OCFastMode = TIM_OCFAST_DISABLE;
 579              		.loc 1 454 24 is_stmt 0 view .LVU182
 580 003c 0394     		str	r4, [sp, #12]
 455:Src/main.c    ****   if (HAL_TIM_OC_ConfigChannel(&htim10, &sConfigOC, TIM_CHANNEL_1) != HAL_OK)
 581              		.loc 1 455 3 is_stmt 1 view .LVU183
 455:Src/main.c    ****   if (HAL_TIM_OC_ConfigChannel(&htim10, &sConfigOC, TIM_CHANNEL_1) != HAL_OK)
ARM GAS  /tmp/cc2Vvk0o.s 			page 23


 582              		.loc 1 455 24 is_stmt 0 view .LVU184
 583 003e 0594     		str	r4, [sp, #20]
 456:Src/main.c    ****   {
 584              		.loc 1 456 3 is_stmt 1 view .LVU185
 456:Src/main.c    ****   {
 585              		.loc 1 456 31 is_stmt 0 view .LVU186
 586 0040 2246     		mov	r2, r4
 587 0042 01A9     		add	r1, sp, #4
 588 0044 2846     		mov	r0, r5
 589 0046 FFF7FEFF 		bl	HAL_TIM_OC_ConfigChannel
 590              	.LVL20:
 464:Src/main.c    **** 
 591              		.loc 1 464 1 view .LVU187
 592 004a 09B0     		add	sp, sp, #36
 593              	.LCFI10:
 594              		.cfi_def_cfa_offset 12
 595              		@ sp needed
 596 004c 30BD     		pop	{r4, r5, pc}
 597              	.L20:
 598 004e 00BF     		.align	2
 599              	.L19:
 600 0050 00000000 		.word	.LANCHOR2
 601 0054 00440140 		.word	1073824768
 602              		.cfi_endproc
 603              	.LFE1128:
 604              		.fnend
 606              		.section	.text._ZL12MX_I2C1_Initv,"ax",%progbits
 607              		.align	1
 608              		.syntax unified
 609              		.thumb
 610              		.thumb_func
 611              		.fpu fpv4-sp-d16
 613              	_ZL12MX_I2C1_Initv:
 614              		.fnstart
 615              	.LFB1126:
 355:Src/main.c    **** 
 616              		.loc 1 355 1 is_stmt 1 view -0
 617              		.cfi_startproc
 618              		@ args = 0, pretend = 0, frame = 0
 619              		@ frame_needed = 0, uses_anonymous_args = 0
 620 0000 08B5     		push	{r3, lr}
 621              		.save {r3, lr}
 622              	.LCFI11:
 623              		.cfi_def_cfa_offset 8
 624              		.cfi_offset 3, -8
 625              		.cfi_offset 14, -4
 364:Src/main.c    ****   hi2c1.Init.ClockSpeed = 100000;
 626              		.loc 1 364 3 view .LVU189
 364:Src/main.c    ****   hi2c1.Init.ClockSpeed = 100000;
 627              		.loc 1 364 18 is_stmt 0 view .LVU190
 628 0002 0948     		ldr	r0, .L23
 629 0004 094B     		ldr	r3, .L23+4
 630 0006 0360     		str	r3, [r0]
 365:Src/main.c    ****   hi2c1.Init.DutyCycle = I2C_DUTYCYCLE_2;
 631              		.loc 1 365 3 is_stmt 1 view .LVU191
 365:Src/main.c    ****   hi2c1.Init.DutyCycle = I2C_DUTYCYCLE_2;
 632              		.loc 1 365 25 is_stmt 0 view .LVU192
ARM GAS  /tmp/cc2Vvk0o.s 			page 24


 633 0008 094B     		ldr	r3, .L23+8
 634 000a 4360     		str	r3, [r0, #4]
 366:Src/main.c    ****   hi2c1.Init.OwnAddress1 = 0;
 635              		.loc 1 366 3 is_stmt 1 view .LVU193
 366:Src/main.c    ****   hi2c1.Init.OwnAddress1 = 0;
 636              		.loc 1 366 24 is_stmt 0 view .LVU194
 637 000c 0023     		movs	r3, #0
 638 000e 8360     		str	r3, [r0, #8]
 367:Src/main.c    ****   hi2c1.Init.AddressingMode = I2C_ADDRESSINGMODE_7BIT;
 639              		.loc 1 367 3 is_stmt 1 view .LVU195
 367:Src/main.c    ****   hi2c1.Init.AddressingMode = I2C_ADDRESSINGMODE_7BIT;
 640              		.loc 1 367 26 is_stmt 0 view .LVU196
 641 0010 C360     		str	r3, [r0, #12]
 368:Src/main.c    ****   hi2c1.Init.DualAddressMode = I2C_DUALADDRESS_DISABLE;
 642              		.loc 1 368 3 is_stmt 1 view .LVU197
 368:Src/main.c    ****   hi2c1.Init.DualAddressMode = I2C_DUALADDRESS_DISABLE;
 643              		.loc 1 368 29 is_stmt 0 view .LVU198
 644 0012 4FF48042 		mov	r2, #16384
 645 0016 0261     		str	r2, [r0, #16]
 369:Src/main.c    ****   hi2c1.Init.OwnAddress2 = 0;
 646              		.loc 1 369 3 is_stmt 1 view .LVU199
 369:Src/main.c    ****   hi2c1.Init.OwnAddress2 = 0;
 647              		.loc 1 369 30 is_stmt 0 view .LVU200
 648 0018 4361     		str	r3, [r0, #20]
 370:Src/main.c    ****   hi2c1.Init.GeneralCallMode = I2C_GENERALCALL_DISABLE;
 649              		.loc 1 370 3 is_stmt 1 view .LVU201
 370:Src/main.c    ****   hi2c1.Init.GeneralCallMode = I2C_GENERALCALL_DISABLE;
 650              		.loc 1 370 26 is_stmt 0 view .LVU202
 651 001a 8361     		str	r3, [r0, #24]
 371:Src/main.c    ****   hi2c1.Init.NoStretchMode = I2C_NOSTRETCH_DISABLE;
 652              		.loc 1 371 3 is_stmt 1 view .LVU203
 371:Src/main.c    ****   hi2c1.Init.NoStretchMode = I2C_NOSTRETCH_DISABLE;
 653              		.loc 1 371 30 is_stmt 0 view .LVU204
 654 001c C361     		str	r3, [r0, #28]
 372:Src/main.c    ****   if (HAL_I2C_Init(&hi2c1) != HAL_OK)
 655              		.loc 1 372 3 is_stmt 1 view .LVU205
 372:Src/main.c    ****   if (HAL_I2C_Init(&hi2c1) != HAL_OK)
 656              		.loc 1 372 28 is_stmt 0 view .LVU206
 657 001e 0362     		str	r3, [r0, #32]
 373:Src/main.c    ****   {
 658              		.loc 1 373 3 is_stmt 1 view .LVU207
 373:Src/main.c    ****   {
 659              		.loc 1 373 19 is_stmt 0 view .LVU208
 660 0020 FFF7FEFF 		bl	HAL_I2C_Init
 661              	.LVL21:
 381:Src/main.c    **** 
 662              		.loc 1 381 1 view .LVU209
 663 0024 08BD     		pop	{r3, pc}
 664              	.L24:
 665 0026 00BF     		.align	2
 666              	.L23:
 667 0028 00000000 		.word	.LANCHOR3
 668 002c 00540040 		.word	1073763328
 669 0030 A0860100 		.word	100000
 670              		.cfi_endproc
 671              	.LFE1126:
 672              		.fnend
ARM GAS  /tmp/cc2Vvk0o.s 			page 25


 674              		.section	.text._Z41__static_initialization_and_destruction_0ii,"ax",%progbits
 675              		.align	1
 676              		.syntax unified
 677              		.thumb
 678              		.thumb_func
 679              		.fpu fpv4-sp-d16
 681              	_Z41__static_initialization_and_destruction_0ii:
 682              		.fnstart
 683              	.LVL22:
 684              	.LFB1597:
 597:Src/main.c    **** 
 598:Src/main.c    **** /* USER CODE BEGIN 4 */
 599:Src/main.c    **** 
 600:Src/main.c    **** /* USER CODE END 4 */
 601:Src/main.c    **** 
 602:Src/main.c    **** /**
 603:Src/main.c    ****   * @brief  This function is executed in case of error occurrence.
 604:Src/main.c    ****   * @retval None
 605:Src/main.c    ****   */
 606:Src/main.c    **** void Error_Handler(void)
 607:Src/main.c    **** {
 608:Src/main.c    ****   /* USER CODE BEGIN Error_Handler_Debug */
 609:Src/main.c    ****   /* User can add his own implementation to report the HAL error return state */
 610:Src/main.c    **** 
 611:Src/main.c    ****   /* USER CODE END Error_Handler_Debug */
 612:Src/main.c    **** }
 685              		.loc 1 612 1 is_stmt 1 view -0
 686              		.cfi_startproc
 687              		@ args = 0, pretend = 0, frame = 0
 688              		@ frame_needed = 0, uses_anonymous_args = 0
 689              		.loc 1 612 1 is_stmt 0 view .LVU211
 690 0000 0128     		cmp	r0, #1
 691 0002 00D0     		beq	.L31
 692 0004 7047     		bx	lr
 693              	.L31:
 694              		.loc 1 612 1 discriminator 1 view .LVU212
 695 0006 08B5     		push	{r3, lr}
 696              	.LCFI12:
 697              		.cfi_def_cfa_offset 8
 698              		.cfi_offset 3, -8
 699              		.cfi_offset 14, -4
 700              		.loc 1 612 1 discriminator 1 view .LVU213
 701 0008 4FF6FF73 		movw	r3, #65535
 702 000c 9942     		cmp	r1, r3
 703 000e 00D0     		beq	.L32
 704              	.LVL23:
 705              	.L25:
 706              		.loc 1 612 1 view .LVU214
 707 0010 08BD     		pop	{r3, pc}
 708              	.LVL24:
 709              	.L32:
  65:Src/main.c    **** lcd_nokia_5110 lcd_driver(&hspi1, LCD_CE_Pin, LCD_DC_Pin, LCD_RST_Pin);
 710              		.loc 1 65 8 view .LVU215
 711 0012 0B48     		ldr	r0, .L33
 712              	.LVL25:
  65:Src/main.c    **** lcd_nokia_5110 lcd_driver(&hspi1, LCD_CE_Pin, LCD_DC_Pin, LCD_RST_Pin);
 713              		.loc 1 65 8 view .LVU216
ARM GAS  /tmp/cc2Vvk0o.s 			page 26


 714 0014 FFF7FEFF 		bl	_ZN6keypadC1Ev
 715              	.LVL26:
 716              	.LBB246:
 717              	.LBI246:
 718              		.file 2 "APP/inc/lcd.h"
   1:APP/inc/lcd.h **** #ifndef __LCD__
   2:APP/inc/lcd.h **** #define __LCD__
   3:APP/inc/lcd.h **** 
   4:APP/inc/lcd.h **** #include <stdint.h>
   5:APP/inc/lcd.h **** #include "stm32f4xx_hal.h"
   6:APP/inc/lcd.h **** #include "font.h"
   7:APP/inc/lcd.h **** 
   8:APP/inc/lcd.h **** #define LCD_DC			GPIO_Pin_8
   9:APP/inc/lcd.h **** #define LCD_CE			GPIO_Pin_9
  10:APP/inc/lcd.h **** #define LCD_RST			GPIO_Pin_13
  11:APP/inc/lcd.h **** 
  12:APP/inc/lcd.h **** #define PCD8544_FUNCTION_SET		0x20
  13:APP/inc/lcd.h **** #define PCD8544_DISP_CONTROL		0x08
  14:APP/inc/lcd.h **** #define PCD8544_DISP_NORMAL			0x0c
  15:APP/inc/lcd.h **** #define PCD8544_SET_Y				0x40
  16:APP/inc/lcd.h **** #define PCD8544_SET_X				0x80
  17:APP/inc/lcd.h **** #define PCD8544_H_TC				0x04
  18:APP/inc/lcd.h **** #define PCD8544_H_BIAS				0x10
  19:APP/inc/lcd.h **** #define PCD8544_H_VOP				0x80
  20:APP/inc/lcd.h **** 
  21:APP/inc/lcd.h **** #define LCD_BUFFER_SIZE			(84 * 48 / 8)
  22:APP/inc/lcd.h **** 
  23:APP/inc/lcd.h **** class lcd_nokia_5110
  24:APP/inc/lcd.h **** {
  25:APP/inc/lcd.h **** private:
  26:APP/inc/lcd.h **** 	SPI_HandleTypeDef* hspi1_;
  27:APP/inc/lcd.h **** 	uint8_t lcd_buffer[LCD_BUFFER_SIZE];
  28:APP/inc/lcd.h **** 	uint16_t CE_PIN_;
  29:APP/inc/lcd.h **** 	uint16_t DC_PIN_;
  30:APP/inc/lcd.h **** 	uint16_t RST_PIN_;
  31:APP/inc/lcd.h **** 
  32:APP/inc/lcd.h **** 
  33:APP/inc/lcd.h **** 
  34:APP/inc/lcd.h **** public:
  35:APP/inc/lcd.h **** 	lcd_nokia_5110(SPI_HandleTypeDef* hspi1, uint16_t CE_PIN, uint16_t DC_PIN, uint16_t RST_PIN): 
 719              		.loc 2 35 2 is_stmt 1 view .LVU217
 720              	.LBB247:
 721              	.LBB248:
  36:APP/inc/lcd.h **** 				hspi1_(hspi1), CE_PIN_(CE_PIN), DC_PIN_(DC_PIN), RST_PIN_(RST_PIN){}
 722              		.loc 2 36 70 is_stmt 0 view .LVU218
 723 0018 0A4B     		ldr	r3, .L33+4
 724 001a 0B4A     		ldr	r2, .L33+8
 725 001c 1A60     		str	r2, [r3]
 726 001e 4FF48072 		mov	r2, #256
 727 0022 A3F8FC21 		strh	r2, [r3, #508]	@ movhi
 728 0026 4FF40072 		mov	r2, #512
 729 002a A3F8FE21 		strh	r2, [r3, #510]	@ movhi
 730 002e 0422     		movs	r2, #4
 731 0030 A3F80022 		strh	r2, [r3, #512]	@ movhi
 732              	.LVL27:
 733              		.loc 2 36 70 view .LVU219
 734              	.LBE248:
ARM GAS  /tmp/cc2Vvk0o.s 			page 27


 735              	.LBE247:
 736              	.LBE246:
 737              	.LBB249:
 738              	.LBI249:
 739              		.file 3 "APP/inc/buzzer.h"
   1:APP/inc/buzzer.h **** #include "stm32f4xx_hal.h"
   2:APP/inc/buzzer.h **** #include <stdint.h>
   3:APP/inc/buzzer.h **** 
   4:APP/inc/buzzer.h **** 
   5:APP/inc/buzzer.h **** 
   6:APP/inc/buzzer.h **** class buzzer
   7:APP/inc/buzzer.h **** {
   8:APP/inc/buzzer.h **** private:
   9:APP/inc/buzzer.h **** 	uint16_t BUZZER_PIN_;
  10:APP/inc/buzzer.h **** 	TIM_HandleTypeDef* timmer10_;
  11:APP/inc/buzzer.h **** 
  12:APP/inc/buzzer.h **** 	void rtc_timer_delay(uint16_t ms);
  13:APP/inc/buzzer.h **** 
  14:APP/inc/buzzer.h **** public:
  15:APP/inc/buzzer.h **** 	buzzer(uint16_t BUZZER_PIN, TIM_HandleTypeDef* timmer): BUZZER_PIN_(BUZZER_PIN), timmer10_(timmer)
 740              		.loc 3 15 2 is_stmt 1 view .LVU220
 741              	.LBB250:
 742              	.LBB251:
 743              		.loc 3 15 99 is_stmt 0 view .LVU221
 744 0034 054B     		ldr	r3, .L33+12
 745 0036 0122     		movs	r2, #1
 746 0038 1A80     		strh	r2, [r3]	@ movhi
 747 003a 054A     		ldr	r2, .L33+16
 748 003c 5A60     		str	r2, [r3, #4]
 749              	.LBE251:
 750              	.LBE250:
 751              	.LBE249:
 752              		.loc 1 612 1 view .LVU222
 753 003e E7E7     		b	.L25
 754              	.L34:
 755              		.align	2
 756              	.L33:
 757 0040 00000000 		.word	.LANCHOR4
 758 0044 00000000 		.word	.LANCHOR5
 759 0048 00000000 		.word	.LANCHOR0
 760 004c 00000000 		.word	.LANCHOR6
 761 0050 00000000 		.word	.LANCHOR2
 762              		.cfi_endproc
 763              	.LFE1597:
 764              		.cantunwind
 765              		.fnend
 767              		.section	.text._Z19DMATransferCompleteP19__DMA_HandleTypeDef,"ax",%progbits
 768              		.align	1
 769              		.global	_Z19DMATransferCompleteP19__DMA_HandleTypeDef
 770              		.syntax unified
 771              		.thumb
 772              		.thumb_func
 773              		.fpu fpv4-sp-d16
 775              	_Z19DMATransferCompleteP19__DMA_HandleTypeDef:
 776              		.fnstart
 777              	.LVL28:
 778              	.LFB1119:
ARM GAS  /tmp/cc2Vvk0o.s 			page 28


  91:Src/main.c    **** 
 779              		.loc 1 91 1 is_stmt 1 view -0
 780              		.cfi_startproc
 781              		@ args = 0, pretend = 0, frame = 0
 782              		@ frame_needed = 0, uses_anonymous_args = 0
 783              		@ link register save eliminated.
  93:Src/main.c    **** }
 784              		.loc 1 93 3 view .LVU224
  93:Src/main.c    **** }
 785              		.loc 1 93 10 is_stmt 0 view .LVU225
 786 0000 034B     		ldr	r3, .L36
 787 0002 1A68     		ldr	r2, [r3]
  93:Src/main.c    **** }
 788              		.loc 1 93 24 view .LVU226
 789 0004 5369     		ldr	r3, [r2, #20]
 790 0006 23F08003 		bic	r3, r3, #128
 791 000a 5361     		str	r3, [r2, #20]
  94:Src/main.c    **** 
 792              		.loc 1 94 1 view .LVU227
 793 000c 7047     		bx	lr
 794              	.L37:
 795 000e 00BF     		.align	2
 796              	.L36:
 797 0010 00000000 		.word	.LANCHOR1
 798              		.cfi_endproc
 799              	.LFE1119:
 800              		.cantunwind
 801              		.fnend
 803              		.section	.text.HAL_GPIO_EXTI_Callback,"ax",%progbits
 804              		.align	1
 805              		.global	HAL_GPIO_EXTI_Callback
 806              		.syntax unified
 807              		.thumb
 808              		.thumb_func
 809              		.fpu fpv4-sp-d16
 811              	HAL_GPIO_EXTI_Callback:
 812              		.fnstart
 813              	.LVL29:
 814              	.LFB1120:
  97:Src/main.c    ****   if(alarm_armed)
 815              		.loc 1 97 1 is_stmt 1 view -0
 816              		.cfi_startproc
 817              		@ args = 0, pretend = 0, frame = 0
 818              		@ frame_needed = 0, uses_anonymous_args = 0
  97:Src/main.c    ****   if(alarm_armed)
 819              		.loc 1 97 1 is_stmt 0 view .LVU229
 820 0000 08B5     		push	{r3, lr}
 821              		.save {r3, lr}
 822              	.LCFI13:
 823              		.cfi_def_cfa_offset 8
 824              		.cfi_offset 3, -8
 825              		.cfi_offset 14, -4
  98:Src/main.c    ****   {
 826              		.loc 1 98 3 is_stmt 1 view .LVU230
  98:Src/main.c    ****   {
 827              		.loc 1 98 17 is_stmt 0 view .LVU231
 828 0002 124B     		ldr	r3, .L44
ARM GAS  /tmp/cc2Vvk0o.s 			page 29


 829 0004 1B68     		ldr	r3, [r3]
  98:Src/main.c    ****   {
 830              		.loc 1 98 3 view .LVU232
 831 0006 5BB9     		cbnz	r3, .L43
 832              	.LVL30:
 833              	.L39:
 104:Src/main.c    ****   {
 834              		.loc 1 104 3 is_stmt 1 view .LVU233
 104:Src/main.c    ****   {
 835              		.loc 1 104 24 is_stmt 0 view .LVU234
 836 0008 114B     		ldr	r3, .L44+4
 837 000a 1B68     		ldr	r3, [r3]
 104:Src/main.c    ****   {
 838              		.loc 1 104 3 view .LVU235
 839 000c A3B1     		cbz	r3, .L40
 106:Src/main.c    ****     HAL_GPIO_WritePin(GPIOB, MOTION_DETECT_LED_Pin, GPIO_PIN_RESET);
 840              		.loc 1 106 5 is_stmt 1 view .LVU236
 106:Src/main.c    ****     HAL_GPIO_WritePin(GPIOB, MOTION_DETECT_LED_Pin, GPIO_PIN_RESET);
 841              		.loc 1 106 24 is_stmt 0 view .LVU237
 842 000e 0022     		movs	r2, #0
 843 0010 0F4B     		ldr	r3, .L44+4
 844 0012 1A60     		str	r2, [r3]
 107:Src/main.c    ****   }
 845              		.loc 1 107 5 is_stmt 1 view .LVU238
 107:Src/main.c    ****   }
 846              		.loc 1 107 22 is_stmt 0 view .LVU239
 847 0014 4FF48071 		mov	r1, #256
 848 0018 0E48     		ldr	r0, .L44+8
 849 001a FFF7FEFF 		bl	HAL_GPIO_WritePin
 850              	.LVL31:
 851              	.L38:
 114:Src/main.c    **** 
 852              		.loc 1 114 1 view .LVU240
 853 001e 08BD     		pop	{r3, pc}
 854              	.LVL32:
 855              	.L43:
 100:Src/main.c    ****     HAL_GPIO_WritePin(GPIOC, SIREN_PIN_Pin, GPIO_PIN_SET);
 856              		.loc 1 100 5 is_stmt 1 view .LVU241
 100:Src/main.c    ****     HAL_GPIO_WritePin(GPIOC, SIREN_PIN_Pin, GPIO_PIN_SET);
 857              		.loc 1 100 22 is_stmt 0 view .LVU242
 858 0020 0122     		movs	r2, #1
 859 0022 4FF40071 		mov	r1, #512
 860 0026 0B48     		ldr	r0, .L44+8
 861              	.LVL33:
 100:Src/main.c    ****     HAL_GPIO_WritePin(GPIOC, SIREN_PIN_Pin, GPIO_PIN_SET);
 862              		.loc 1 100 22 view .LVU243
 863 0028 FFF7FEFF 		bl	HAL_GPIO_WritePin
 864              	.LVL34:
 101:Src/main.c    ****   }
 865              		.loc 1 101 5 is_stmt 1 view .LVU244
 101:Src/main.c    ****   }
 866              		.loc 1 101 22 is_stmt 0 view .LVU245
 867 002c 0122     		movs	r2, #1
 868 002e 8021     		movs	r1, #128
 869 0030 0948     		ldr	r0, .L44+12
 870 0032 FFF7FEFF 		bl	HAL_GPIO_WritePin
 871              	.LVL35:
ARM GAS  /tmp/cc2Vvk0o.s 			page 30


 872 0036 E7E7     		b	.L39
 873              	.L40:
 111:Src/main.c    ****     HAL_GPIO_WritePin(GPIOB, MOTION_DETECT_LED_Pin, GPIO_PIN_SET);
 874              		.loc 1 111 5 is_stmt 1 view .LVU246
 111:Src/main.c    ****     HAL_GPIO_WritePin(GPIOB, MOTION_DETECT_LED_Pin, GPIO_PIN_SET);
 875              		.loc 1 111 24 is_stmt 0 view .LVU247
 876 0038 0122     		movs	r2, #1
 877 003a 054B     		ldr	r3, .L44+4
 878 003c 1A60     		str	r2, [r3]
 112:Src/main.c    ****   }  
 879              		.loc 1 112 5 is_stmt 1 view .LVU248
 112:Src/main.c    ****   }  
 880              		.loc 1 112 22 is_stmt 0 view .LVU249
 881 003e 4FF48071 		mov	r1, #256
 882 0042 0448     		ldr	r0, .L44+8
 883 0044 FFF7FEFF 		bl	HAL_GPIO_WritePin
 884              	.LVL36:
 114:Src/main.c    **** 
 885              		.loc 1 114 1 view .LVU250
 886 0048 E9E7     		b	.L38
 887              	.L45:
 888 004a 00BF     		.align	2
 889              	.L44:
 890 004c 00000000 		.word	.LANCHOR7
 891 0050 00000000 		.word	.LANCHOR8
 892 0054 00040240 		.word	1073873920
 893 0058 00080240 		.word	1073874944
 894              		.cfi_endproc
 895              	.LFE1120:
 896              		.fnend
 898              		.section	.text._Z9arm_alarmv,"ax",%progbits
 899              		.align	1
 900              		.global	_Z9arm_alarmv
 901              		.syntax unified
 902              		.thumb
 903              		.thumb_func
 904              		.fpu fpv4-sp-d16
 906              	_Z9arm_alarmv:
 907              		.fnstart
 908              	.LFB1121:
 117:Src/main.c    ****   HAL_GPIO_WritePin(GPIOC, ALARM_STATE_LED_Pin, GPIO_PIN_SET);
 909              		.loc 1 117 1 is_stmt 1 view -0
 910              		.cfi_startproc
 911              		@ args = 0, pretend = 0, frame = 0
 912              		@ frame_needed = 0, uses_anonymous_args = 0
 913 0000 08B5     		push	{r3, lr}
 914              		.save {r3, lr}
 915              	.LCFI14:
 916              		.cfi_def_cfa_offset 8
 917              		.cfi_offset 3, -8
 918              		.cfi_offset 14, -4
 118:Src/main.c    ****   alarm_armed = 1;
 919              		.loc 1 118 3 view .LVU252
 118:Src/main.c    ****   alarm_armed = 1;
 920              		.loc 1 118 20 is_stmt 0 view .LVU253
 921 0002 0122     		movs	r2, #1
 922 0004 4FF40071 		mov	r1, #512
ARM GAS  /tmp/cc2Vvk0o.s 			page 31


 923 0008 0348     		ldr	r0, .L48
 924 000a FFF7FEFF 		bl	HAL_GPIO_WritePin
 925              	.LVL37:
 119:Src/main.c    **** }
 926              		.loc 1 119 3 is_stmt 1 view .LVU254
 119:Src/main.c    **** }
 927              		.loc 1 119 15 is_stmt 0 view .LVU255
 928 000e 034B     		ldr	r3, .L48+4
 929 0010 0122     		movs	r2, #1
 930 0012 1A60     		str	r2, [r3]
 120:Src/main.c    **** 
 931              		.loc 1 120 1 view .LVU256
 932 0014 08BD     		pop	{r3, pc}
 933              	.L49:
 934 0016 00BF     		.align	2
 935              	.L48:
 936 0018 00080240 		.word	1073874944
 937 001c 00000000 		.word	.LANCHOR7
 938              		.cfi_endproc
 939              	.LFE1121:
 940              		.fnend
 942              		.section	.text._Z12disarm_alarmv,"ax",%progbits
 943              		.align	1
 944              		.global	_Z12disarm_alarmv
 945              		.syntax unified
 946              		.thumb
 947              		.thumb_func
 948              		.fpu fpv4-sp-d16
 950              	_Z12disarm_alarmv:
 951              		.fnstart
 952              	.LFB1122:
 123:Src/main.c    ****   HAL_GPIO_WritePin(GPIOC, SIREN_PIN_Pin, GPIO_PIN_RESET);
 953              		.loc 1 123 1 is_stmt 1 view -0
 954              		.cfi_startproc
 955              		@ args = 0, pretend = 0, frame = 0
 956              		@ frame_needed = 0, uses_anonymous_args = 0
 957 0000 10B5     		push	{r4, lr}
 958              		.save {r4, lr}
 959              	.LCFI15:
 960              		.cfi_def_cfa_offset 8
 961              		.cfi_offset 4, -8
 962              		.cfi_offset 14, -4
 124:Src/main.c    ****   HAL_GPIO_WritePin(GPIOC, ALARM_STATE_LED_Pin, GPIO_PIN_RESET);
 963              		.loc 1 124 3 view .LVU258
 124:Src/main.c    ****   HAL_GPIO_WritePin(GPIOC, ALARM_STATE_LED_Pin, GPIO_PIN_RESET);
 964              		.loc 1 124 20 is_stmt 0 view .LVU259
 965 0002 0B4C     		ldr	r4, .L52
 966 0004 0022     		movs	r2, #0
 967 0006 8021     		movs	r1, #128
 968 0008 2046     		mov	r0, r4
 969 000a FFF7FEFF 		bl	HAL_GPIO_WritePin
 970              	.LVL38:
 125:Src/main.c    ****   HAL_GPIO_WritePin(GPIOB, LED_ALARM_INDICATOR_Pin, GPIO_PIN_RESET);
 971              		.loc 1 125 3 is_stmt 1 view .LVU260
 125:Src/main.c    ****   HAL_GPIO_WritePin(GPIOB, LED_ALARM_INDICATOR_Pin, GPIO_PIN_RESET);
 972              		.loc 1 125 20 is_stmt 0 view .LVU261
 973 000e 0022     		movs	r2, #0
ARM GAS  /tmp/cc2Vvk0o.s 			page 32


 974 0010 4FF40071 		mov	r1, #512
 975 0014 2046     		mov	r0, r4
 976 0016 FFF7FEFF 		bl	HAL_GPIO_WritePin
 977              	.LVL39:
 126:Src/main.c    ****   
 978              		.loc 1 126 3 is_stmt 1 view .LVU262
 126:Src/main.c    ****   
 979              		.loc 1 126 20 is_stmt 0 view .LVU263
 980 001a 0022     		movs	r2, #0
 981 001c 4FF40071 		mov	r1, #512
 982 0020 0448     		ldr	r0, .L52+4
 983 0022 FFF7FEFF 		bl	HAL_GPIO_WritePin
 984              	.LVL40:
 128:Src/main.c    **** }
 985              		.loc 1 128 3 is_stmt 1 view .LVU264
 128:Src/main.c    **** }
 986              		.loc 1 128 15 is_stmt 0 view .LVU265
 987 0026 044B     		ldr	r3, .L52+8
 988 0028 0022     		movs	r2, #0
 989 002a 1A60     		str	r2, [r3]
 129:Src/main.c    **** 
 990              		.loc 1 129 1 view .LVU266
 991 002c 10BD     		pop	{r4, pc}
 992              	.L53:
 993 002e 00BF     		.align	2
 994              	.L52:
 995 0030 00080240 		.word	1073874944
 996 0034 00040240 		.word	1073873920
 997 0038 00000000 		.word	.LANCHOR7
 998              		.cfi_endproc
 999              	.LFE1122:
 1000              		.fnend
 1002              		.section	.text._Z10open_doorsv,"ax",%progbits
 1003              		.align	1
 1004              		.global	_Z10open_doorsv
 1005              		.syntax unified
 1006              		.thumb
 1007              		.thumb_func
 1008              		.fpu fpv4-sp-d16
 1010              	_Z10open_doorsv:
 1011              		.fnstart
 1012              	.LFB1123:
 132:Src/main.c    ****   disarm_alarm();
 1013              		.loc 1 132 1 is_stmt 1 view -0
 1014              		.cfi_startproc
 1015              		@ args = 0, pretend = 0, frame = 0
 1016              		@ frame_needed = 0, uses_anonymous_args = 0
 1017 0000 10B5     		push	{r4, lr}
 1018              		.save {r4, lr}
 1019              	.LCFI16:
 1020              		.cfi_def_cfa_offset 8
 1021              		.cfi_offset 4, -8
 1022              		.cfi_offset 14, -4
 133:Src/main.c    ****   HAL_GPIO_WritePin(DOOR_LOCK_GPIO_Port, DOOR_LOCK_Pin, GPIO_PIN_SET);
 1023              		.loc 1 133 3 view .LVU268
 133:Src/main.c    ****   HAL_GPIO_WritePin(DOOR_LOCK_GPIO_Port, DOOR_LOCK_Pin, GPIO_PIN_SET);
 1024              		.loc 1 133 15 is_stmt 0 view .LVU269
ARM GAS  /tmp/cc2Vvk0o.s 			page 33


 1025 0002 FFF7FEFF 		bl	_Z12disarm_alarmv
 1026              	.LVL41:
 134:Src/main.c    ****   buz.positive_soud();
 1027              		.loc 1 134 3 is_stmt 1 view .LVU270
 134:Src/main.c    ****   buz.positive_soud();
 1028              		.loc 1 134 20 is_stmt 0 view .LVU271
 1029 0006 094C     		ldr	r4, .L56
 1030 0008 0122     		movs	r2, #1
 1031 000a 0421     		movs	r1, #4
 1032 000c 2046     		mov	r0, r4
 1033 000e FFF7FEFF 		bl	HAL_GPIO_WritePin
 1034              	.LVL42:
 135:Src/main.c    ****   HAL_Delay(2000);
 1035              		.loc 1 135 3 is_stmt 1 view .LVU272
 135:Src/main.c    ****   HAL_Delay(2000);
 1036              		.loc 1 135 20 is_stmt 0 view .LVU273
 1037 0012 0748     		ldr	r0, .L56+4
 1038 0014 FFF7FEFF 		bl	_ZN6buzzer13positive_soudEv
 1039              	.LVL43:
 136:Src/main.c    ****   HAL_GPIO_WritePin(DOOR_LOCK_GPIO_Port, DOOR_LOCK_Pin, GPIO_PIN_RESET);
 1040              		.loc 1 136 3 is_stmt 1 view .LVU274
 136:Src/main.c    ****   HAL_GPIO_WritePin(DOOR_LOCK_GPIO_Port, DOOR_LOCK_Pin, GPIO_PIN_RESET);
 1041              		.loc 1 136 12 is_stmt 0 view .LVU275
 1042 0018 4FF4FA60 		mov	r0, #2000
 1043 001c FFF7FEFF 		bl	HAL_Delay
 1044              	.LVL44:
 137:Src/main.c    **** }
 1045              		.loc 1 137 3 is_stmt 1 view .LVU276
 137:Src/main.c    **** }
 1046              		.loc 1 137 20 is_stmt 0 view .LVU277
 1047 0020 0022     		movs	r2, #0
 1048 0022 0421     		movs	r1, #4
 1049 0024 2046     		mov	r0, r4
 1050 0026 FFF7FEFF 		bl	HAL_GPIO_WritePin
 1051              	.LVL45:
 138:Src/main.c    **** 
 1052              		.loc 1 138 1 view .LVU278
 1053 002a 10BD     		pop	{r4, pc}
 1054              	.L57:
 1055              		.align	2
 1056              	.L56:
 1057 002c 00040240 		.word	1073873920
 1058 0030 00000000 		.word	.LANCHOR6
 1059              		.cfi_endproc
 1060              	.LFE1123:
 1061              		.fnend
 1063              		.section	.text._Z18SystemClock_Configv,"ax",%progbits
 1064              		.align	1
 1065              		.global	_Z18SystemClock_Configv
 1066              		.syntax unified
 1067              		.thumb
 1068              		.thumb_func
 1069              		.fpu fpv4-sp-d16
 1071              	_Z18SystemClock_Configv:
 1072              		.fnstart
 1073              	.LFB1125:
 316:Src/main.c    ****   RCC_OscInitTypeDef RCC_OscInitStruct = {0};
ARM GAS  /tmp/cc2Vvk0o.s 			page 34


 1074              		.loc 1 316 1 is_stmt 1 view -0
 1075              		.cfi_startproc
 1076              		@ args = 0, pretend = 0, frame = 80
 1077              		@ frame_needed = 0, uses_anonymous_args = 0
 1078 0000 10B5     		push	{r4, lr}
 1079              		.save {r4, lr}
 1080              	.LCFI17:
 1081              		.cfi_def_cfa_offset 8
 1082              		.cfi_offset 4, -8
 1083              		.cfi_offset 14, -4
 1084              		.pad #80
 1085 0002 94B0     		sub	sp, sp, #80
 1086              	.LCFI18:
 1087              		.cfi_def_cfa_offset 88
 317:Src/main.c    ****   RCC_ClkInitTypeDef RCC_ClkInitStruct = {0};
 1088              		.loc 1 317 3 view .LVU280
 317:Src/main.c    ****   RCC_ClkInitTypeDef RCC_ClkInitStruct = {0};
 1089              		.loc 1 317 22 is_stmt 0 view .LVU281
 1090 0004 3022     		movs	r2, #48
 1091 0006 0021     		movs	r1, #0
 1092 0008 08A8     		add	r0, sp, #32
 1093 000a FFF7FEFF 		bl	memset
 1094              	.LVL46:
 318:Src/main.c    **** 
 1095              		.loc 1 318 3 is_stmt 1 view .LVU282
 318:Src/main.c    **** 
 1096              		.loc 1 318 22 is_stmt 0 view .LVU283
 1097 000e 0024     		movs	r4, #0
 1098 0010 0394     		str	r4, [sp, #12]
 1099 0012 0494     		str	r4, [sp, #16]
 1100 0014 0594     		str	r4, [sp, #20]
 1101 0016 0694     		str	r4, [sp, #24]
 1102 0018 0794     		str	r4, [sp, #28]
 322:Src/main.c    ****   __HAL_PWR_VOLTAGESCALING_CONFIG(PWR_REGULATOR_VOLTAGE_SCALE2);
 1103              		.loc 1 322 3 is_stmt 1 view .LVU284
 1104              	.LBB252:
 322:Src/main.c    ****   __HAL_PWR_VOLTAGESCALING_CONFIG(PWR_REGULATOR_VOLTAGE_SCALE2);
 1105              		.loc 1 322 3 view .LVU285
 1106 001a 0194     		str	r4, [sp, #4]
 322:Src/main.c    ****   __HAL_PWR_VOLTAGESCALING_CONFIG(PWR_REGULATOR_VOLTAGE_SCALE2);
 1107              		.loc 1 322 3 view .LVU286
 1108 001c 164B     		ldr	r3, .L60
 1109 001e 1A6C     		ldr	r2, [r3, #64]
 1110 0020 42F08052 		orr	r2, r2, #268435456
 1111 0024 1A64     		str	r2, [r3, #64]
 322:Src/main.c    ****   __HAL_PWR_VOLTAGESCALING_CONFIG(PWR_REGULATOR_VOLTAGE_SCALE2);
 1112              		.loc 1 322 3 view .LVU287
 1113 0026 1B6C     		ldr	r3, [r3, #64]
 1114 0028 03F08053 		and	r3, r3, #268435456
 1115 002c 0193     		str	r3, [sp, #4]
 322:Src/main.c    ****   __HAL_PWR_VOLTAGESCALING_CONFIG(PWR_REGULATOR_VOLTAGE_SCALE2);
 1116              		.loc 1 322 3 view .LVU288
 1117 002e 019B     		ldr	r3, [sp, #4]
 1118              	.LBE252:
 323:Src/main.c    ****   /** Initializes the CPU, AHB and APB busses clocks 
 1119              		.loc 1 323 3 view .LVU289
 1120              	.LBB253:
ARM GAS  /tmp/cc2Vvk0o.s 			page 35


 323:Src/main.c    ****   /** Initializes the CPU, AHB and APB busses clocks 
 1121              		.loc 1 323 3 view .LVU290
 1122 0030 0294     		str	r4, [sp, #8]
 323:Src/main.c    ****   /** Initializes the CPU, AHB and APB busses clocks 
 1123              		.loc 1 323 3 view .LVU291
 1124 0032 124A     		ldr	r2, .L60+4
 1125 0034 1368     		ldr	r3, [r2]
 1126 0036 23F44043 		bic	r3, r3, #49152
 1127 003a 43F40043 		orr	r3, r3, #32768
 1128 003e 1360     		str	r3, [r2]
 323:Src/main.c    ****   /** Initializes the CPU, AHB and APB busses clocks 
 1129              		.loc 1 323 3 view .LVU292
 1130 0040 1368     		ldr	r3, [r2]
 1131 0042 03F44043 		and	r3, r3, #49152
 1132 0046 0293     		str	r3, [sp, #8]
 323:Src/main.c    ****   /** Initializes the CPU, AHB and APB busses clocks 
 1133              		.loc 1 323 3 view .LVU293
 1134 0048 029B     		ldr	r3, [sp, #8]
 1135              	.LBE253:
 326:Src/main.c    ****   RCC_OscInitStruct.HSIState = RCC_HSI_ON;
 1136              		.loc 1 326 3 view .LVU294
 326:Src/main.c    ****   RCC_OscInitStruct.HSIState = RCC_HSI_ON;
 1137              		.loc 1 326 36 is_stmt 0 view .LVU295
 1138 004a 0223     		movs	r3, #2
 1139 004c 0893     		str	r3, [sp, #32]
 327:Src/main.c    ****   RCC_OscInitStruct.HSICalibrationValue = RCC_HSICALIBRATION_DEFAULT;
 1140              		.loc 1 327 3 is_stmt 1 view .LVU296
 327:Src/main.c    ****   RCC_OscInitStruct.HSICalibrationValue = RCC_HSICALIBRATION_DEFAULT;
 1141              		.loc 1 327 30 is_stmt 0 view .LVU297
 1142 004e 0123     		movs	r3, #1
 1143 0050 0B93     		str	r3, [sp, #44]
 328:Src/main.c    ****   RCC_OscInitStruct.PLL.PLLState = RCC_PLL_NONE;
 1144              		.loc 1 328 3 is_stmt 1 view .LVU298
 328:Src/main.c    ****   RCC_OscInitStruct.PLL.PLLState = RCC_PLL_NONE;
 1145              		.loc 1 328 41 is_stmt 0 view .LVU299
 1146 0052 1023     		movs	r3, #16
 1147 0054 0C93     		str	r3, [sp, #48]
 329:Src/main.c    ****   if (HAL_RCC_OscConfig(&RCC_OscInitStruct) != HAL_OK)
 1148              		.loc 1 329 3 is_stmt 1 view .LVU300
 329:Src/main.c    ****   if (HAL_RCC_OscConfig(&RCC_OscInitStruct) != HAL_OK)
 1149              		.loc 1 329 34 is_stmt 0 view .LVU301
 1150 0056 0E94     		str	r4, [sp, #56]
 330:Src/main.c    ****   {
 1151              		.loc 1 330 3 is_stmt 1 view .LVU302
 330:Src/main.c    ****   {
 1152              		.loc 1 330 24 is_stmt 0 view .LVU303
 1153 0058 08A8     		add	r0, sp, #32
 1154 005a FFF7FEFF 		bl	HAL_RCC_OscConfig
 1155              	.LVL47:
 336:Src/main.c    ****                               |RCC_CLOCKTYPE_PCLK1|RCC_CLOCKTYPE_PCLK2;
 1156              		.loc 1 336 3 is_stmt 1 view .LVU304
 336:Src/main.c    ****                               |RCC_CLOCKTYPE_PCLK1|RCC_CLOCKTYPE_PCLK2;
 1157              		.loc 1 336 31 is_stmt 0 view .LVU305
 1158 005e 0F23     		movs	r3, #15
 1159 0060 0393     		str	r3, [sp, #12]
 338:Src/main.c    ****   RCC_ClkInitStruct.AHBCLKDivider = RCC_SYSCLK_DIV1;
 1160              		.loc 1 338 3 is_stmt 1 view .LVU306
ARM GAS  /tmp/cc2Vvk0o.s 			page 36


 338:Src/main.c    ****   RCC_ClkInitStruct.AHBCLKDivider = RCC_SYSCLK_DIV1;
 1161              		.loc 1 338 34 is_stmt 0 view .LVU307
 1162 0062 0494     		str	r4, [sp, #16]
 339:Src/main.c    ****   RCC_ClkInitStruct.APB1CLKDivider = RCC_HCLK_DIV1;
 1163              		.loc 1 339 3 is_stmt 1 view .LVU308
 339:Src/main.c    ****   RCC_ClkInitStruct.APB1CLKDivider = RCC_HCLK_DIV1;
 1164              		.loc 1 339 35 is_stmt 0 view .LVU309
 1165 0064 0594     		str	r4, [sp, #20]
 340:Src/main.c    ****   RCC_ClkInitStruct.APB2CLKDivider = RCC_HCLK_DIV1;
 1166              		.loc 1 340 3 is_stmt 1 view .LVU310
 340:Src/main.c    ****   RCC_ClkInitStruct.APB2CLKDivider = RCC_HCLK_DIV1;
 1167              		.loc 1 340 36 is_stmt 0 view .LVU311
 1168 0066 0694     		str	r4, [sp, #24]
 341:Src/main.c    **** 
 1169              		.loc 1 341 3 is_stmt 1 view .LVU312
 341:Src/main.c    **** 
 1170              		.loc 1 341 36 is_stmt 0 view .LVU313
 1171 0068 0794     		str	r4, [sp, #28]
 343:Src/main.c    ****   {
 1172              		.loc 1 343 3 is_stmt 1 view .LVU314
 343:Src/main.c    ****   {
 1173              		.loc 1 343 26 is_stmt 0 view .LVU315
 1174 006a 2146     		mov	r1, r4
 1175 006c 03A8     		add	r0, sp, #12
 1176 006e FFF7FEFF 		bl	HAL_RCC_ClockConfig
 1177              	.LVL48:
 347:Src/main.c    **** 
 1178              		.loc 1 347 1 view .LVU316
 1179 0072 14B0     		add	sp, sp, #80
 1180              	.LCFI19:
 1181              		.cfi_def_cfa_offset 8
 1182              		@ sp needed
 1183 0074 10BD     		pop	{r4, pc}
 1184              	.L61:
 1185 0076 00BF     		.align	2
 1186              	.L60:
 1187 0078 00380240 		.word	1073887232
 1188 007c 00700040 		.word	1073770496
 1189              		.cfi_endproc
 1190              	.LFE1125:
 1191              		.fnend
 1193              		.section	.text.main,"ax",%progbits
 1194              		.align	1
 1195              		.global	main
 1196              		.syntax unified
 1197              		.thumb
 1198              		.thumb_func
 1199              		.fpu fpv4-sp-d16
 1201              	main:
 1202              		.fnstart
 1203              	.LFB1124:
 150:Src/main.c    ****   /* USER CODE BEGIN 1 */
 1204              		.loc 1 150 1 is_stmt 1 view -0
 1205              		.cfi_startproc
 1206              		@ args = 0, pretend = 0, frame = 88
 1207              		@ frame_needed = 0, uses_anonymous_args = 0
 1208 0000 70B5     		push	{r4, r5, r6, lr}
ARM GAS  /tmp/cc2Vvk0o.s 			page 37


 1209              		.save {r4, r5, r6, lr}
 1210              	.LCFI20:
 1211              		.cfi_def_cfa_offset 16
 1212              		.cfi_offset 4, -16
 1213              		.cfi_offset 5, -12
 1214              		.cfi_offset 6, -8
 1215              		.cfi_offset 14, -4
 1216              		.pad #104
 1217 0002 9AB0     		sub	sp, sp, #104
 1218              	.LCFI21:
 1219              		.cfi_def_cfa_offset 120
 159:Src/main.c    **** 
 1220              		.loc 1 159 3 view .LVU318
 1221              	.LEHB0:
 159:Src/main.c    **** 
 1222              		.loc 1 159 11 is_stmt 0 view .LVU319
 1223 0004 FFF7FEFF 		bl	HAL_Init
 1224              	.LVL49:
 166:Src/main.c    **** 
 1225              		.loc 1 166 3 is_stmt 1 view .LVU320
 166:Src/main.c    **** 
 1226              		.loc 1 166 21 is_stmt 0 view .LVU321
 1227 0008 FFF7FEFF 		bl	_Z18SystemClock_Configv
 1228              	.LVL50:
 173:Src/main.c    ****   MX_DMA_Init();
 1229              		.loc 1 173 3 is_stmt 1 view .LVU322
 173:Src/main.c    ****   MX_DMA_Init();
 1230              		.loc 1 173 15 is_stmt 0 view .LVU323
 1231 000c FFF7FEFF 		bl	_ZL12MX_GPIO_Initv
 1232              	.LVL51:
 174:Src/main.c    ****   MX_SPI1_Init();
 1233              		.loc 1 174 3 is_stmt 1 view .LVU324
 174:Src/main.c    ****   MX_SPI1_Init();
 1234              		.loc 1 174 14 is_stmt 0 view .LVU325
 1235 0010 FFF7FEFF 		bl	_ZL11MX_DMA_Initv
 1236              	.LVL52:
 175:Src/main.c    ****   MX_USART2_UART_Init();
 1237              		.loc 1 175 3 is_stmt 1 view .LVU326
 175:Src/main.c    ****   MX_USART2_UART_Init();
 1238              		.loc 1 175 15 is_stmt 0 view .LVU327
 1239 0014 FFF7FEFF 		bl	_ZL12MX_SPI1_Initv
 1240              	.LVL53:
 176:Src/main.c    ****   MX_TIM10_Init();
 1241              		.loc 1 176 3 is_stmt 1 view .LVU328
 176:Src/main.c    ****   MX_TIM10_Init();
 1242              		.loc 1 176 22 is_stmt 0 view .LVU329
 1243 0018 FFF7FEFF 		bl	_ZL19MX_USART2_UART_Initv
 1244              	.LVL54:
 177:Src/main.c    ****   MX_I2C1_Init();
 1245              		.loc 1 177 3 is_stmt 1 view .LVU330
 177:Src/main.c    ****   MX_I2C1_Init();
 1246              		.loc 1 177 16 is_stmt 0 view .LVU331
 1247 001c FFF7FEFF 		bl	_ZL13MX_TIM10_Initv
 1248              	.LVL55:
 178:Src/main.c    ****   /* USER CODE BEGIN 2 */
 1249              		.loc 1 178 3 is_stmt 1 view .LVU332
 178:Src/main.c    ****   /* USER CODE BEGIN 2 */
ARM GAS  /tmp/cc2Vvk0o.s 			page 38


 1250              		.loc 1 178 15 is_stmt 0 view .LVU333
 1251 0020 FFF7FEFF 		bl	_ZL12MX_I2C1_Initv
 1252              	.LVL56:
 180:Src/main.c    **** 
 1253              		.loc 1 180 3 is_stmt 1 view .LVU334
 182:Src/main.c    ****   // usart_log_manager usart_driver(&huart2, &hdma_usart2_tx);;
 1254              		.loc 1 182 3 view .LVU335
 1255              	.LBB322:
 1256              	.LBI322:
 1257              		.file 4 "/home/adam/STMCompiler/arm-none-eabi/include/c++/8.2.1/bits/allocator.h"
   1:/home/adam/STMCompiler/arm-none-eabi/include/c++/8.2.1/bits/allocator.h **** // Allocators -*- C++ -*-
   2:/home/adam/STMCompiler/arm-none-eabi/include/c++/8.2.1/bits/allocator.h **** 
   3:/home/adam/STMCompiler/arm-none-eabi/include/c++/8.2.1/bits/allocator.h **** // Copyright (C) 2001-2018 Free Software Foundation, Inc.
   4:/home/adam/STMCompiler/arm-none-eabi/include/c++/8.2.1/bits/allocator.h **** //
   5:/home/adam/STMCompiler/arm-none-eabi/include/c++/8.2.1/bits/allocator.h **** // This file is part of the GNU ISO C++ Library.  This library is free
   6:/home/adam/STMCompiler/arm-none-eabi/include/c++/8.2.1/bits/allocator.h **** // software; you can redistribute it and/or modify it under the
   7:/home/adam/STMCompiler/arm-none-eabi/include/c++/8.2.1/bits/allocator.h **** // terms of the GNU General Public License as published by the
   8:/home/adam/STMCompiler/arm-none-eabi/include/c++/8.2.1/bits/allocator.h **** // Free Software Foundation; either version 3, or (at your option)
   9:/home/adam/STMCompiler/arm-none-eabi/include/c++/8.2.1/bits/allocator.h **** // any later version.
  10:/home/adam/STMCompiler/arm-none-eabi/include/c++/8.2.1/bits/allocator.h **** 
  11:/home/adam/STMCompiler/arm-none-eabi/include/c++/8.2.1/bits/allocator.h **** // This library is distributed in the hope that it will be useful,
  12:/home/adam/STMCompiler/arm-none-eabi/include/c++/8.2.1/bits/allocator.h **** // but WITHOUT ANY WARRANTY; without even the implied warranty of
  13:/home/adam/STMCompiler/arm-none-eabi/include/c++/8.2.1/bits/allocator.h **** // MERCHANTABILITY or FITNESS FOR A PARTICULAR PURPOSE.  See the
  14:/home/adam/STMCompiler/arm-none-eabi/include/c++/8.2.1/bits/allocator.h **** // GNU General Public License for more details.
  15:/home/adam/STMCompiler/arm-none-eabi/include/c++/8.2.1/bits/allocator.h **** 
  16:/home/adam/STMCompiler/arm-none-eabi/include/c++/8.2.1/bits/allocator.h **** // Under Section 7 of GPL version 3, you are granted additional
  17:/home/adam/STMCompiler/arm-none-eabi/include/c++/8.2.1/bits/allocator.h **** // permissions described in the GCC Runtime Library Exception, version
  18:/home/adam/STMCompiler/arm-none-eabi/include/c++/8.2.1/bits/allocator.h **** // 3.1, as published by the Free Software Foundation.
  19:/home/adam/STMCompiler/arm-none-eabi/include/c++/8.2.1/bits/allocator.h **** 
  20:/home/adam/STMCompiler/arm-none-eabi/include/c++/8.2.1/bits/allocator.h **** // You should have received a copy of the GNU General Public License and
  21:/home/adam/STMCompiler/arm-none-eabi/include/c++/8.2.1/bits/allocator.h **** // a copy of the GCC Runtime Library Exception along with this program;
  22:/home/adam/STMCompiler/arm-none-eabi/include/c++/8.2.1/bits/allocator.h **** // see the files COPYING3 and COPYING.RUNTIME respectively.  If not, see
  23:/home/adam/STMCompiler/arm-none-eabi/include/c++/8.2.1/bits/allocator.h **** // <http://www.gnu.org/licenses/>.
  24:/home/adam/STMCompiler/arm-none-eabi/include/c++/8.2.1/bits/allocator.h **** 
  25:/home/adam/STMCompiler/arm-none-eabi/include/c++/8.2.1/bits/allocator.h **** /*
  26:/home/adam/STMCompiler/arm-none-eabi/include/c++/8.2.1/bits/allocator.h ****  * Copyright (c) 1996-1997
  27:/home/adam/STMCompiler/arm-none-eabi/include/c++/8.2.1/bits/allocator.h ****  * Silicon Graphics Computer Systems, Inc.
  28:/home/adam/STMCompiler/arm-none-eabi/include/c++/8.2.1/bits/allocator.h ****  *
  29:/home/adam/STMCompiler/arm-none-eabi/include/c++/8.2.1/bits/allocator.h ****  * Permission to use, copy, modify, distribute and sell this software
  30:/home/adam/STMCompiler/arm-none-eabi/include/c++/8.2.1/bits/allocator.h ****  * and its documentation for any purpose is hereby granted without fee,
  31:/home/adam/STMCompiler/arm-none-eabi/include/c++/8.2.1/bits/allocator.h ****  * provided that the above copyright notice appear in all copies and
  32:/home/adam/STMCompiler/arm-none-eabi/include/c++/8.2.1/bits/allocator.h ****  * that both that copyright notice and this permission notice appear
  33:/home/adam/STMCompiler/arm-none-eabi/include/c++/8.2.1/bits/allocator.h ****  * in supporting documentation.  Silicon Graphics makes no
  34:/home/adam/STMCompiler/arm-none-eabi/include/c++/8.2.1/bits/allocator.h ****  * representations about the suitability of this software for any
  35:/home/adam/STMCompiler/arm-none-eabi/include/c++/8.2.1/bits/allocator.h ****  * purpose.  It is provided "as is" without express or implied warranty.
  36:/home/adam/STMCompiler/arm-none-eabi/include/c++/8.2.1/bits/allocator.h ****  */
  37:/home/adam/STMCompiler/arm-none-eabi/include/c++/8.2.1/bits/allocator.h **** 
  38:/home/adam/STMCompiler/arm-none-eabi/include/c++/8.2.1/bits/allocator.h **** /** @file bits/allocator.h
  39:/home/adam/STMCompiler/arm-none-eabi/include/c++/8.2.1/bits/allocator.h ****  *  This is an internal header file, included by other library headers.
  40:/home/adam/STMCompiler/arm-none-eabi/include/c++/8.2.1/bits/allocator.h ****  *  Do not attempt to use it directly. @headername{memory}
  41:/home/adam/STMCompiler/arm-none-eabi/include/c++/8.2.1/bits/allocator.h ****  */
  42:/home/adam/STMCompiler/arm-none-eabi/include/c++/8.2.1/bits/allocator.h **** 
  43:/home/adam/STMCompiler/arm-none-eabi/include/c++/8.2.1/bits/allocator.h **** #ifndef _ALLOCATOR_H
  44:/home/adam/STMCompiler/arm-none-eabi/include/c++/8.2.1/bits/allocator.h **** #define _ALLOCATOR_H 1
  45:/home/adam/STMCompiler/arm-none-eabi/include/c++/8.2.1/bits/allocator.h **** 
  46:/home/adam/STMCompiler/arm-none-eabi/include/c++/8.2.1/bits/allocator.h **** #include <bits/c++allocator.h> // Define the base class to std::allocator.
  47:/home/adam/STMCompiler/arm-none-eabi/include/c++/8.2.1/bits/allocator.h **** #include <bits/memoryfwd.h>
ARM GAS  /tmp/cc2Vvk0o.s 			page 39


  48:/home/adam/STMCompiler/arm-none-eabi/include/c++/8.2.1/bits/allocator.h **** #if __cplusplus >= 201103L
  49:/home/adam/STMCompiler/arm-none-eabi/include/c++/8.2.1/bits/allocator.h **** #include <type_traits>
  50:/home/adam/STMCompiler/arm-none-eabi/include/c++/8.2.1/bits/allocator.h **** #endif
  51:/home/adam/STMCompiler/arm-none-eabi/include/c++/8.2.1/bits/allocator.h **** 
  52:/home/adam/STMCompiler/arm-none-eabi/include/c++/8.2.1/bits/allocator.h **** #define __cpp_lib_incomplete_container_elements 201505
  53:/home/adam/STMCompiler/arm-none-eabi/include/c++/8.2.1/bits/allocator.h **** #if __cplusplus >= 201103L
  54:/home/adam/STMCompiler/arm-none-eabi/include/c++/8.2.1/bits/allocator.h **** # define __cpp_lib_allocator_is_always_equal 201411
  55:/home/adam/STMCompiler/arm-none-eabi/include/c++/8.2.1/bits/allocator.h **** #endif
  56:/home/adam/STMCompiler/arm-none-eabi/include/c++/8.2.1/bits/allocator.h **** 
  57:/home/adam/STMCompiler/arm-none-eabi/include/c++/8.2.1/bits/allocator.h **** namespace std _GLIBCXX_VISIBILITY(default)
  58:/home/adam/STMCompiler/arm-none-eabi/include/c++/8.2.1/bits/allocator.h **** {
  59:/home/adam/STMCompiler/arm-none-eabi/include/c++/8.2.1/bits/allocator.h **** _GLIBCXX_BEGIN_NAMESPACE_VERSION
  60:/home/adam/STMCompiler/arm-none-eabi/include/c++/8.2.1/bits/allocator.h **** 
  61:/home/adam/STMCompiler/arm-none-eabi/include/c++/8.2.1/bits/allocator.h ****   /**
  62:/home/adam/STMCompiler/arm-none-eabi/include/c++/8.2.1/bits/allocator.h ****    *  @addtogroup allocators
  63:/home/adam/STMCompiler/arm-none-eabi/include/c++/8.2.1/bits/allocator.h ****    *  @{
  64:/home/adam/STMCompiler/arm-none-eabi/include/c++/8.2.1/bits/allocator.h ****    */
  65:/home/adam/STMCompiler/arm-none-eabi/include/c++/8.2.1/bits/allocator.h **** 
  66:/home/adam/STMCompiler/arm-none-eabi/include/c++/8.2.1/bits/allocator.h ****   /// allocator<void> specialization.
  67:/home/adam/STMCompiler/arm-none-eabi/include/c++/8.2.1/bits/allocator.h ****   template<>
  68:/home/adam/STMCompiler/arm-none-eabi/include/c++/8.2.1/bits/allocator.h ****     class allocator<void>
  69:/home/adam/STMCompiler/arm-none-eabi/include/c++/8.2.1/bits/allocator.h ****     {
  70:/home/adam/STMCompiler/arm-none-eabi/include/c++/8.2.1/bits/allocator.h ****     public:
  71:/home/adam/STMCompiler/arm-none-eabi/include/c++/8.2.1/bits/allocator.h ****       typedef size_t      size_type;
  72:/home/adam/STMCompiler/arm-none-eabi/include/c++/8.2.1/bits/allocator.h ****       typedef ptrdiff_t   difference_type;
  73:/home/adam/STMCompiler/arm-none-eabi/include/c++/8.2.1/bits/allocator.h ****       typedef void*       pointer;
  74:/home/adam/STMCompiler/arm-none-eabi/include/c++/8.2.1/bits/allocator.h ****       typedef const void* const_pointer;
  75:/home/adam/STMCompiler/arm-none-eabi/include/c++/8.2.1/bits/allocator.h ****       typedef void        value_type;
  76:/home/adam/STMCompiler/arm-none-eabi/include/c++/8.2.1/bits/allocator.h **** 
  77:/home/adam/STMCompiler/arm-none-eabi/include/c++/8.2.1/bits/allocator.h ****       template<typename _Tp1>
  78:/home/adam/STMCompiler/arm-none-eabi/include/c++/8.2.1/bits/allocator.h **** 	struct rebind
  79:/home/adam/STMCompiler/arm-none-eabi/include/c++/8.2.1/bits/allocator.h **** 	{ typedef allocator<_Tp1> other; };
  80:/home/adam/STMCompiler/arm-none-eabi/include/c++/8.2.1/bits/allocator.h **** 
  81:/home/adam/STMCompiler/arm-none-eabi/include/c++/8.2.1/bits/allocator.h **** #if __cplusplus >= 201103L
  82:/home/adam/STMCompiler/arm-none-eabi/include/c++/8.2.1/bits/allocator.h ****       // _GLIBCXX_RESOLVE_LIB_DEFECTS
  83:/home/adam/STMCompiler/arm-none-eabi/include/c++/8.2.1/bits/allocator.h ****       // 2103. std::allocator propagate_on_container_move_assignment
  84:/home/adam/STMCompiler/arm-none-eabi/include/c++/8.2.1/bits/allocator.h ****       typedef true_type propagate_on_container_move_assignment;
  85:/home/adam/STMCompiler/arm-none-eabi/include/c++/8.2.1/bits/allocator.h **** 
  86:/home/adam/STMCompiler/arm-none-eabi/include/c++/8.2.1/bits/allocator.h ****       typedef true_type is_always_equal;
  87:/home/adam/STMCompiler/arm-none-eabi/include/c++/8.2.1/bits/allocator.h **** 
  88:/home/adam/STMCompiler/arm-none-eabi/include/c++/8.2.1/bits/allocator.h ****       template<typename _Up, typename... _Args>
  89:/home/adam/STMCompiler/arm-none-eabi/include/c++/8.2.1/bits/allocator.h **** 	void
  90:/home/adam/STMCompiler/arm-none-eabi/include/c++/8.2.1/bits/allocator.h **** 	construct(_Up* __p, _Args&&... __args)
  91:/home/adam/STMCompiler/arm-none-eabi/include/c++/8.2.1/bits/allocator.h **** 	{ ::new((void *)__p) _Up(std::forward<_Args>(__args)...); }
  92:/home/adam/STMCompiler/arm-none-eabi/include/c++/8.2.1/bits/allocator.h **** 
  93:/home/adam/STMCompiler/arm-none-eabi/include/c++/8.2.1/bits/allocator.h ****       template<typename _Up>
  94:/home/adam/STMCompiler/arm-none-eabi/include/c++/8.2.1/bits/allocator.h **** 	void
  95:/home/adam/STMCompiler/arm-none-eabi/include/c++/8.2.1/bits/allocator.h **** 	destroy(_Up* __p) { __p->~_Up(); }
  96:/home/adam/STMCompiler/arm-none-eabi/include/c++/8.2.1/bits/allocator.h **** #endif
  97:/home/adam/STMCompiler/arm-none-eabi/include/c++/8.2.1/bits/allocator.h ****     };
  98:/home/adam/STMCompiler/arm-none-eabi/include/c++/8.2.1/bits/allocator.h **** 
  99:/home/adam/STMCompiler/arm-none-eabi/include/c++/8.2.1/bits/allocator.h ****   /**
 100:/home/adam/STMCompiler/arm-none-eabi/include/c++/8.2.1/bits/allocator.h ****    * @brief  The @a standard allocator, as per [20.4].
 101:/home/adam/STMCompiler/arm-none-eabi/include/c++/8.2.1/bits/allocator.h ****    *
 102:/home/adam/STMCompiler/arm-none-eabi/include/c++/8.2.1/bits/allocator.h ****    *  See https://gcc.gnu.org/onlinedocs/libstdc++/manual/memory.html#std.util.memory.allocator
 103:/home/adam/STMCompiler/arm-none-eabi/include/c++/8.2.1/bits/allocator.h ****    *  for further details.
 104:/home/adam/STMCompiler/arm-none-eabi/include/c++/8.2.1/bits/allocator.h ****    *
ARM GAS  /tmp/cc2Vvk0o.s 			page 40


 105:/home/adam/STMCompiler/arm-none-eabi/include/c++/8.2.1/bits/allocator.h ****    *  @tparam  _Tp  Type of allocated object.
 106:/home/adam/STMCompiler/arm-none-eabi/include/c++/8.2.1/bits/allocator.h ****    */
 107:/home/adam/STMCompiler/arm-none-eabi/include/c++/8.2.1/bits/allocator.h ****   template<typename _Tp>
 108:/home/adam/STMCompiler/arm-none-eabi/include/c++/8.2.1/bits/allocator.h ****     class allocator : public __allocator_base<_Tp>
 109:/home/adam/STMCompiler/arm-none-eabi/include/c++/8.2.1/bits/allocator.h ****     {
 110:/home/adam/STMCompiler/arm-none-eabi/include/c++/8.2.1/bits/allocator.h ****    public:
 111:/home/adam/STMCompiler/arm-none-eabi/include/c++/8.2.1/bits/allocator.h ****       typedef size_t     size_type;
 112:/home/adam/STMCompiler/arm-none-eabi/include/c++/8.2.1/bits/allocator.h ****       typedef ptrdiff_t  difference_type;
 113:/home/adam/STMCompiler/arm-none-eabi/include/c++/8.2.1/bits/allocator.h ****       typedef _Tp*       pointer;
 114:/home/adam/STMCompiler/arm-none-eabi/include/c++/8.2.1/bits/allocator.h ****       typedef const _Tp* const_pointer;
 115:/home/adam/STMCompiler/arm-none-eabi/include/c++/8.2.1/bits/allocator.h ****       typedef _Tp&       reference;
 116:/home/adam/STMCompiler/arm-none-eabi/include/c++/8.2.1/bits/allocator.h ****       typedef const _Tp& const_reference;
 117:/home/adam/STMCompiler/arm-none-eabi/include/c++/8.2.1/bits/allocator.h ****       typedef _Tp        value_type;
 118:/home/adam/STMCompiler/arm-none-eabi/include/c++/8.2.1/bits/allocator.h **** 
 119:/home/adam/STMCompiler/arm-none-eabi/include/c++/8.2.1/bits/allocator.h ****       template<typename _Tp1>
 120:/home/adam/STMCompiler/arm-none-eabi/include/c++/8.2.1/bits/allocator.h **** 	struct rebind
 121:/home/adam/STMCompiler/arm-none-eabi/include/c++/8.2.1/bits/allocator.h **** 	{ typedef allocator<_Tp1> other; };
 122:/home/adam/STMCompiler/arm-none-eabi/include/c++/8.2.1/bits/allocator.h **** 
 123:/home/adam/STMCompiler/arm-none-eabi/include/c++/8.2.1/bits/allocator.h **** #if __cplusplus >= 201103L
 124:/home/adam/STMCompiler/arm-none-eabi/include/c++/8.2.1/bits/allocator.h ****       // _GLIBCXX_RESOLVE_LIB_DEFECTS
 125:/home/adam/STMCompiler/arm-none-eabi/include/c++/8.2.1/bits/allocator.h ****       // 2103. std::allocator propagate_on_container_move_assignment
 126:/home/adam/STMCompiler/arm-none-eabi/include/c++/8.2.1/bits/allocator.h ****       typedef true_type propagate_on_container_move_assignment;
 127:/home/adam/STMCompiler/arm-none-eabi/include/c++/8.2.1/bits/allocator.h **** 
 128:/home/adam/STMCompiler/arm-none-eabi/include/c++/8.2.1/bits/allocator.h ****       typedef true_type is_always_equal;
 129:/home/adam/STMCompiler/arm-none-eabi/include/c++/8.2.1/bits/allocator.h **** #endif
 130:/home/adam/STMCompiler/arm-none-eabi/include/c++/8.2.1/bits/allocator.h **** 
 131:/home/adam/STMCompiler/arm-none-eabi/include/c++/8.2.1/bits/allocator.h ****       allocator() throw() { }
 1258              		.loc 4 131 7 view .LVU336
 1259              	.LBB323:
 1260              	.LBI323:
 1261              		.file 5 "/home/adam/STMCompiler/arm-none-eabi/include/c++/8.2.1/ext/new_allocator.h"
   1:/home/adam/STMCompiler/arm-none-eabi/include/c++/8.2.1/ext/new_allocator.h **** // Allocator that wraps operator new -*- C++ -*-
   2:/home/adam/STMCompiler/arm-none-eabi/include/c++/8.2.1/ext/new_allocator.h **** 
   3:/home/adam/STMCompiler/arm-none-eabi/include/c++/8.2.1/ext/new_allocator.h **** // Copyright (C) 2001-2018 Free Software Foundation, Inc.
   4:/home/adam/STMCompiler/arm-none-eabi/include/c++/8.2.1/ext/new_allocator.h **** //
   5:/home/adam/STMCompiler/arm-none-eabi/include/c++/8.2.1/ext/new_allocator.h **** // This file is part of the GNU ISO C++ Library.  This library is free
   6:/home/adam/STMCompiler/arm-none-eabi/include/c++/8.2.1/ext/new_allocator.h **** // software; you can redistribute it and/or modify it under the
   7:/home/adam/STMCompiler/arm-none-eabi/include/c++/8.2.1/ext/new_allocator.h **** // terms of the GNU General Public License as published by the
   8:/home/adam/STMCompiler/arm-none-eabi/include/c++/8.2.1/ext/new_allocator.h **** // Free Software Foundation; either version 3, or (at your option)
   9:/home/adam/STMCompiler/arm-none-eabi/include/c++/8.2.1/ext/new_allocator.h **** // any later version.
  10:/home/adam/STMCompiler/arm-none-eabi/include/c++/8.2.1/ext/new_allocator.h **** 
  11:/home/adam/STMCompiler/arm-none-eabi/include/c++/8.2.1/ext/new_allocator.h **** // This library is distributed in the hope that it will be useful,
  12:/home/adam/STMCompiler/arm-none-eabi/include/c++/8.2.1/ext/new_allocator.h **** // but WITHOUT ANY WARRANTY; without even the implied warranty of
  13:/home/adam/STMCompiler/arm-none-eabi/include/c++/8.2.1/ext/new_allocator.h **** // MERCHANTABILITY or FITNESS FOR A PARTICULAR PURPOSE.  See the
  14:/home/adam/STMCompiler/arm-none-eabi/include/c++/8.2.1/ext/new_allocator.h **** // GNU General Public License for more details.
  15:/home/adam/STMCompiler/arm-none-eabi/include/c++/8.2.1/ext/new_allocator.h **** 
  16:/home/adam/STMCompiler/arm-none-eabi/include/c++/8.2.1/ext/new_allocator.h **** // Under Section 7 of GPL version 3, you are granted additional
  17:/home/adam/STMCompiler/arm-none-eabi/include/c++/8.2.1/ext/new_allocator.h **** // permissions described in the GCC Runtime Library Exception, version
  18:/home/adam/STMCompiler/arm-none-eabi/include/c++/8.2.1/ext/new_allocator.h **** // 3.1, as published by the Free Software Foundation.
  19:/home/adam/STMCompiler/arm-none-eabi/include/c++/8.2.1/ext/new_allocator.h **** 
  20:/home/adam/STMCompiler/arm-none-eabi/include/c++/8.2.1/ext/new_allocator.h **** // You should have received a copy of the GNU General Public License and
  21:/home/adam/STMCompiler/arm-none-eabi/include/c++/8.2.1/ext/new_allocator.h **** // a copy of the GCC Runtime Library Exception along with this program;
  22:/home/adam/STMCompiler/arm-none-eabi/include/c++/8.2.1/ext/new_allocator.h **** // see the files COPYING3 and COPYING.RUNTIME respectively.  If not, see
  23:/home/adam/STMCompiler/arm-none-eabi/include/c++/8.2.1/ext/new_allocator.h **** // <http://www.gnu.org/licenses/>.
  24:/home/adam/STMCompiler/arm-none-eabi/include/c++/8.2.1/ext/new_allocator.h **** 
  25:/home/adam/STMCompiler/arm-none-eabi/include/c++/8.2.1/ext/new_allocator.h **** /** @file ext/new_allocator.h
  26:/home/adam/STMCompiler/arm-none-eabi/include/c++/8.2.1/ext/new_allocator.h ****  *  This file is a GNU extension to the Standard C++ Library.
ARM GAS  /tmp/cc2Vvk0o.s 			page 41


  27:/home/adam/STMCompiler/arm-none-eabi/include/c++/8.2.1/ext/new_allocator.h ****  */
  28:/home/adam/STMCompiler/arm-none-eabi/include/c++/8.2.1/ext/new_allocator.h **** 
  29:/home/adam/STMCompiler/arm-none-eabi/include/c++/8.2.1/ext/new_allocator.h **** #ifndef _NEW_ALLOCATOR_H
  30:/home/adam/STMCompiler/arm-none-eabi/include/c++/8.2.1/ext/new_allocator.h **** #define _NEW_ALLOCATOR_H 1
  31:/home/adam/STMCompiler/arm-none-eabi/include/c++/8.2.1/ext/new_allocator.h **** 
  32:/home/adam/STMCompiler/arm-none-eabi/include/c++/8.2.1/ext/new_allocator.h **** #include <bits/c++config.h>
  33:/home/adam/STMCompiler/arm-none-eabi/include/c++/8.2.1/ext/new_allocator.h **** #include <new>
  34:/home/adam/STMCompiler/arm-none-eabi/include/c++/8.2.1/ext/new_allocator.h **** #include <bits/functexcept.h>
  35:/home/adam/STMCompiler/arm-none-eabi/include/c++/8.2.1/ext/new_allocator.h **** #include <bits/move.h>
  36:/home/adam/STMCompiler/arm-none-eabi/include/c++/8.2.1/ext/new_allocator.h **** #if __cplusplus >= 201103L
  37:/home/adam/STMCompiler/arm-none-eabi/include/c++/8.2.1/ext/new_allocator.h **** #include <type_traits>
  38:/home/adam/STMCompiler/arm-none-eabi/include/c++/8.2.1/ext/new_allocator.h **** #endif
  39:/home/adam/STMCompiler/arm-none-eabi/include/c++/8.2.1/ext/new_allocator.h **** 
  40:/home/adam/STMCompiler/arm-none-eabi/include/c++/8.2.1/ext/new_allocator.h **** namespace __gnu_cxx _GLIBCXX_VISIBILITY(default)
  41:/home/adam/STMCompiler/arm-none-eabi/include/c++/8.2.1/ext/new_allocator.h **** {
  42:/home/adam/STMCompiler/arm-none-eabi/include/c++/8.2.1/ext/new_allocator.h **** _GLIBCXX_BEGIN_NAMESPACE_VERSION
  43:/home/adam/STMCompiler/arm-none-eabi/include/c++/8.2.1/ext/new_allocator.h **** 
  44:/home/adam/STMCompiler/arm-none-eabi/include/c++/8.2.1/ext/new_allocator.h ****   using std::size_t;
  45:/home/adam/STMCompiler/arm-none-eabi/include/c++/8.2.1/ext/new_allocator.h ****   using std::ptrdiff_t;
  46:/home/adam/STMCompiler/arm-none-eabi/include/c++/8.2.1/ext/new_allocator.h **** 
  47:/home/adam/STMCompiler/arm-none-eabi/include/c++/8.2.1/ext/new_allocator.h ****   /**
  48:/home/adam/STMCompiler/arm-none-eabi/include/c++/8.2.1/ext/new_allocator.h ****    *  @brief  An allocator that uses global new, as per [20.4].
  49:/home/adam/STMCompiler/arm-none-eabi/include/c++/8.2.1/ext/new_allocator.h ****    *  @ingroup allocators
  50:/home/adam/STMCompiler/arm-none-eabi/include/c++/8.2.1/ext/new_allocator.h ****    *
  51:/home/adam/STMCompiler/arm-none-eabi/include/c++/8.2.1/ext/new_allocator.h ****    *  This is precisely the allocator defined in the C++ Standard.
  52:/home/adam/STMCompiler/arm-none-eabi/include/c++/8.2.1/ext/new_allocator.h ****    *    - all allocation calls operator new
  53:/home/adam/STMCompiler/arm-none-eabi/include/c++/8.2.1/ext/new_allocator.h ****    *    - all deallocation calls operator delete
  54:/home/adam/STMCompiler/arm-none-eabi/include/c++/8.2.1/ext/new_allocator.h ****    *
  55:/home/adam/STMCompiler/arm-none-eabi/include/c++/8.2.1/ext/new_allocator.h ****    *  @tparam  _Tp  Type of allocated object.
  56:/home/adam/STMCompiler/arm-none-eabi/include/c++/8.2.1/ext/new_allocator.h ****    */
  57:/home/adam/STMCompiler/arm-none-eabi/include/c++/8.2.1/ext/new_allocator.h ****   template<typename _Tp>
  58:/home/adam/STMCompiler/arm-none-eabi/include/c++/8.2.1/ext/new_allocator.h ****     class new_allocator
  59:/home/adam/STMCompiler/arm-none-eabi/include/c++/8.2.1/ext/new_allocator.h ****     {
  60:/home/adam/STMCompiler/arm-none-eabi/include/c++/8.2.1/ext/new_allocator.h ****     public:
  61:/home/adam/STMCompiler/arm-none-eabi/include/c++/8.2.1/ext/new_allocator.h ****       typedef size_t     size_type;
  62:/home/adam/STMCompiler/arm-none-eabi/include/c++/8.2.1/ext/new_allocator.h ****       typedef ptrdiff_t  difference_type;
  63:/home/adam/STMCompiler/arm-none-eabi/include/c++/8.2.1/ext/new_allocator.h ****       typedef _Tp*       pointer;
  64:/home/adam/STMCompiler/arm-none-eabi/include/c++/8.2.1/ext/new_allocator.h ****       typedef const _Tp* const_pointer;
  65:/home/adam/STMCompiler/arm-none-eabi/include/c++/8.2.1/ext/new_allocator.h ****       typedef _Tp&       reference;
  66:/home/adam/STMCompiler/arm-none-eabi/include/c++/8.2.1/ext/new_allocator.h ****       typedef const _Tp& const_reference;
  67:/home/adam/STMCompiler/arm-none-eabi/include/c++/8.2.1/ext/new_allocator.h ****       typedef _Tp        value_type;
  68:/home/adam/STMCompiler/arm-none-eabi/include/c++/8.2.1/ext/new_allocator.h **** 
  69:/home/adam/STMCompiler/arm-none-eabi/include/c++/8.2.1/ext/new_allocator.h ****       template<typename _Tp1>
  70:/home/adam/STMCompiler/arm-none-eabi/include/c++/8.2.1/ext/new_allocator.h **** 	struct rebind
  71:/home/adam/STMCompiler/arm-none-eabi/include/c++/8.2.1/ext/new_allocator.h **** 	{ typedef new_allocator<_Tp1> other; };
  72:/home/adam/STMCompiler/arm-none-eabi/include/c++/8.2.1/ext/new_allocator.h **** 
  73:/home/adam/STMCompiler/arm-none-eabi/include/c++/8.2.1/ext/new_allocator.h **** #if __cplusplus >= 201103L
  74:/home/adam/STMCompiler/arm-none-eabi/include/c++/8.2.1/ext/new_allocator.h ****       // _GLIBCXX_RESOLVE_LIB_DEFECTS
  75:/home/adam/STMCompiler/arm-none-eabi/include/c++/8.2.1/ext/new_allocator.h ****       // 2103. propagate_on_container_move_assignment
  76:/home/adam/STMCompiler/arm-none-eabi/include/c++/8.2.1/ext/new_allocator.h ****       typedef std::true_type propagate_on_container_move_assignment;
  77:/home/adam/STMCompiler/arm-none-eabi/include/c++/8.2.1/ext/new_allocator.h **** #endif
  78:/home/adam/STMCompiler/arm-none-eabi/include/c++/8.2.1/ext/new_allocator.h **** 
  79:/home/adam/STMCompiler/arm-none-eabi/include/c++/8.2.1/ext/new_allocator.h ****       new_allocator() _GLIBCXX_USE_NOEXCEPT { }
 1262              		.loc 5 79 7 view .LVU337
 1263              		.loc 5 79 7 is_stmt 0 view .LVU338
 1264              	.LBE323:
 1265              	.LBE322:
ARM GAS  /tmp/cc2Vvk0o.s 			page 42


 182:Src/main.c    ****   // usart_log_manager usart_driver(&huart2, &hdma_usart2_tx);;
 1266              		.loc 1 182 26 view .LVU339
 1267 0024 19AA     		add	r2, sp, #100
 1268 0026 8F49     		ldr	r1, .L95
 1269 0028 13A8     		add	r0, sp, #76
 1270 002a FFF7FEFF 		bl	_ZNSt7__cxx1112basic_stringIcSt11char_traitsIcESaIcEEC1EPKcRKS3_
 1271              	.LVL57:
 1272              	.LEHE0:
 1273              	.LBB324:
 1274              	.LBI324:
 132:/home/adam/STMCompiler/arm-none-eabi/include/c++/8.2.1/bits/allocator.h **** 
 133:/home/adam/STMCompiler/arm-none-eabi/include/c++/8.2.1/bits/allocator.h ****       allocator(const allocator& __a) throw()
 134:/home/adam/STMCompiler/arm-none-eabi/include/c++/8.2.1/bits/allocator.h ****       : __allocator_base<_Tp>(__a) { }
 135:/home/adam/STMCompiler/arm-none-eabi/include/c++/8.2.1/bits/allocator.h **** 
 136:/home/adam/STMCompiler/arm-none-eabi/include/c++/8.2.1/bits/allocator.h ****       template<typename _Tp1>
 137:/home/adam/STMCompiler/arm-none-eabi/include/c++/8.2.1/bits/allocator.h **** 	allocator(const allocator<_Tp1>&) throw() { }
 138:/home/adam/STMCompiler/arm-none-eabi/include/c++/8.2.1/bits/allocator.h **** 
 139:/home/adam/STMCompiler/arm-none-eabi/include/c++/8.2.1/bits/allocator.h ****       ~allocator() throw() { }
 1275              		.loc 4 139 7 is_stmt 1 view .LVU340
 1276              	.LBB325:
 1277              	.LBI325:
  80:/home/adam/STMCompiler/arm-none-eabi/include/c++/8.2.1/ext/new_allocator.h **** 
  81:/home/adam/STMCompiler/arm-none-eabi/include/c++/8.2.1/ext/new_allocator.h ****       new_allocator(const new_allocator&) _GLIBCXX_USE_NOEXCEPT { }
  82:/home/adam/STMCompiler/arm-none-eabi/include/c++/8.2.1/ext/new_allocator.h **** 
  83:/home/adam/STMCompiler/arm-none-eabi/include/c++/8.2.1/ext/new_allocator.h ****       template<typename _Tp1>
  84:/home/adam/STMCompiler/arm-none-eabi/include/c++/8.2.1/ext/new_allocator.h **** 	new_allocator(const new_allocator<_Tp1>&) _GLIBCXX_USE_NOEXCEPT { }
  85:/home/adam/STMCompiler/arm-none-eabi/include/c++/8.2.1/ext/new_allocator.h **** 
  86:/home/adam/STMCompiler/arm-none-eabi/include/c++/8.2.1/ext/new_allocator.h ****       ~new_allocator() _GLIBCXX_USE_NOEXCEPT { }
 1278              		.loc 5 86 7 view .LVU341
 1279              		.loc 5 86 7 is_stmt 0 view .LVU342
 1280              	.LBE325:
 1281              	.LBE324:
 187:Src/main.c    **** 
 1282              		.loc 1 187 3 is_stmt 1 view .LVU343
 189:Src/main.c    ****   HAL_Delay(1000);
 1283              		.loc 1 189 3 view .LVU344
 189:Src/main.c    ****   HAL_Delay(1000);
 1284              		.loc 1 189 19 is_stmt 0 view .LVU345
 1285 002e 4FF47A73 		mov	r3, #1000
 1286 0032 0293     		str	r3, [sp, #8]
 1287 0034 0523     		movs	r3, #5
 1288 0036 0193     		str	r3, [sp, #4]
 1289 0038 11AB     		add	r3, sp, #68
 1290 003a 0093     		str	r3, [sp]
 1291 003c 0123     		movs	r3, #1
 1292 003e 0022     		movs	r2, #0
 1293 0040 A021     		movs	r1, #160
 1294 0042 8948     		ldr	r0, .L95+4
 1295              	.LEHB1:
 1296 0044 FFF7FEFF 		bl	HAL_I2C_Mem_Read
 1297              	.LVL58:
 190:Src/main.c    ****   char init_message[] = "1 - open doors2 - arm/dis";
 1298              		.loc 1 190 3 is_stmt 1 view .LVU346
 190:Src/main.c    ****   char init_message[] = "1 - open doors2 - arm/dis";
 1299              		.loc 1 190 12 is_stmt 0 view .LVU347
 1300 0048 4FF47A70 		mov	r0, #1000
 1301 004c FFF7FEFF 		bl	HAL_Delay
ARM GAS  /tmp/cc2Vvk0o.s 			page 43


 1302              	.LVL59:
 191:Src/main.c    ****   char password_text[] = "Password:";
 1303              		.loc 1 191 3 is_stmt 1 view .LVU348
 191:Src/main.c    ****   char password_text[] = "Password:";
 1304              		.loc 1 191 8 is_stmt 0 view .LVU349
 1305 0050 0AAC     		add	r4, sp, #40
 1306 0052 864D     		ldr	r5, .L95+8
 1307 0054 0FCD     		ldmia	r5!, {r0, r1, r2, r3}
 1308 0056 0FC4     		stmia	r4!, {r0, r1, r2, r3}
 1309 0058 95E80700 		ldm	r5, {r0, r1, r2}
 1310 005c 03C4     		stmia	r4!, {r0, r1}
 1311 005e 2280     		strh	r2, [r4]	@ movhi
 192:Src/main.c    ****   char key_buf[10];
 1312              		.loc 1 192 3 is_stmt 1 view .LVU350
 192:Src/main.c    ****   char key_buf[10];
 1313              		.loc 1 192 8 is_stmt 0 view .LVU351
 1314 0060 834A     		ldr	r2, .L95+12
 1315 0062 07AB     		add	r3, sp, #28
 1316 0064 07CA     		ldm	r2, {r0, r1, r2}
 1317 0066 03C3     		stmia	r3!, {r0, r1}
 1318 0068 1A80     		strh	r2, [r3]	@ movhi
 193:Src/main.c    ****   
 1319              		.loc 1 193 3 is_stmt 1 view .LVU352
 196:Src/main.c    ****   lcd_driver.clear();
 1320              		.loc 1 196 3 view .LVU353
 196:Src/main.c    ****   lcd_driver.clear();
 1321              		.loc 1 196 19 is_stmt 0 view .LVU354
 1322 006a 8248     		ldr	r0, .L95+16
 1323 006c FFF7FEFF 		bl	_ZN14lcd_nokia_51105setupEv
 1324              	.LVL60:
 197:Src/main.c    ****   lcd_driver.draw_text(0, 0, init_message);
 1325              		.loc 1 197 3 is_stmt 1 view .LVU355
 197:Src/main.c    ****   lcd_driver.draw_text(0, 0, init_message);
 1326              		.loc 1 197 19 is_stmt 0 view .LVU356
 1327 0070 8048     		ldr	r0, .L95+16
 1328 0072 FFF7FEFF 		bl	_ZN14lcd_nokia_51105clearEv
 1329              	.LVL61:
 198:Src/main.c    ****   lcd_driver.copy();
 1330              		.loc 1 198 3 is_stmt 1 view .LVU357
 198:Src/main.c    ****   lcd_driver.copy();
 1331              		.loc 1 198 23 is_stmt 0 view .LVU358
 1332 0076 0AAB     		add	r3, sp, #40
 1333 0078 0022     		movs	r2, #0
 1334 007a 1146     		mov	r1, r2
 1335 007c 7D48     		ldr	r0, .L95+16
 1336 007e FFF7FEFF 		bl	_ZN14lcd_nokia_51109draw_textEiiPKc
 1337              	.LVL62:
 199:Src/main.c    **** 
 1338              		.loc 1 199 3 is_stmt 1 view .LVU359
 199:Src/main.c    **** 
 1339              		.loc 1 199 18 is_stmt 0 view .LVU360
 1340 0082 7C48     		ldr	r0, .L95+16
 1341 0084 FFF7FEFF 		bl	_ZN14lcd_nokia_51104copyEv
 1342              	.LVL63:
 180:Src/main.c    **** 
 1343              		.loc 1 180 11 view .LVU361
 1344 0088 0024     		movs	r4, #0
ARM GAS  /tmp/cc2Vvk0o.s 			page 44


 1345              	.LVL64:
 1346              	.L79:
 207:Src/main.c    ****   {
 1347              		.loc 1 207 3 is_stmt 1 view .LVU362
 214:Src/main.c    ****     
 1348              		.loc 1 214 5 view .LVU363
 214:Src/main.c    ****     
 1349              		.loc 1 214 12 is_stmt 0 view .LVU364
 1350 008a 7B4B     		ldr	r3, .L95+20
 1351 008c 1A68     		ldr	r2, [r3]
 214:Src/main.c    ****     
 1352              		.loc 1 214 26 view .LVU365
 1353 008e 5369     		ldr	r3, [r2, #20]
 1354 0090 43F08003 		orr	r3, r3, #128
 1355 0094 5361     		str	r3, [r2, #20]
 216:Src/main.c    ****     {
 1356              		.loc 1 216 5 is_stmt 1 view .LVU366
 216:Src/main.c    ****     {
 1357              		.loc 1 216 8 is_stmt 0 view .LVU367
 1358 0096 794B     		ldr	r3, .L95+24
 1359 0098 1B68     		ldr	r3, [r3]
 216:Src/main.c    ****     {
 1360              		.loc 1 216 5 view .LVU368
 1361 009a 1BB1     		cbz	r3, .L66
 1362              	.LVL65:
 1363              	.L63:
 232:Src/main.c    ****     lcd_driver.draw_text(0,0,password_text);
 1364              		.loc 1 232 5 is_stmt 1 view .LVU369
 232:Src/main.c    ****     lcd_driver.draw_text(0,0,password_text);
 1365              		.loc 1 232 21 is_stmt 0 view .LVU370
 1366 009c 7548     		ldr	r0, .L95+16
 1367 009e FFF7FEFF 		bl	_ZN14lcd_nokia_51105clearEv
 1368              	.LVL66:
 1369 00a2 14E0     		b	.L85
 1370              	.L66:
 1371              	.LVL67:
 218:Src/main.c    ****       {
 1372              		.loc 1 218 7 is_stmt 1 view .LVU371
 218:Src/main.c    ****       {
 1373              		.loc 1 218 24 is_stmt 0 view .LVU372
 1374 00a4 313C     		subs	r4, r4, #49
 1375              	.LVL68:
 218:Src/main.c    ****       {
 1376              		.loc 1 218 24 view .LVU373
 1377 00a6 E4B2     		uxtb	r4, r4
 1378 00a8 012C     		cmp	r4, #1
 1379 00aa F7D9     		bls	.L63
 220:Src/main.c    ****         if(key == '1')
 1380              		.loc 1 220 9 is_stmt 1 view .LVU374
 220:Src/main.c    ****         if(key == '1')
 1381              		.loc 1 220 37 is_stmt 0 view .LVU375
 1382 00ac 7448     		ldr	r0, .L95+28
 1383 00ae FFF7FEFF 		bl	_ZN6keypad8read_keyEv
 1384              	.LVL69:
 1385 00b2 0446     		mov	r4, r0
 1386              	.LVL70:
 221:Src/main.c    ****         {
ARM GAS  /tmp/cc2Vvk0o.s 			page 45


 1387              		.loc 1 221 9 is_stmt 1 view .LVU376
 1388 00b4 3128     		cmp	r0, #49
 1389 00b6 06D0     		beq	.L86
 227:Src/main.c    ****         }
 1390              		.loc 1 227 11 view .LVU377
 227:Src/main.c    ****         }
 1391              		.loc 1 227 24 is_stmt 0 view .LVU378
 1392 00b8 704B     		ldr	r3, .L95+24
 1393 00ba 0222     		movs	r2, #2
 1394 00bc 1A60     		str	r2, [r3]
 1395              	.L65:
 229:Src/main.c    ****       }
 1396              		.loc 1 229 9 is_stmt 1 view .LVU379
 229:Src/main.c    ****       }
 1397              		.loc 1 229 18 is_stmt 0 view .LVU380
 1398 00be C820     		movs	r0, #200
 1399              	.LVL71:
 229:Src/main.c    ****       }
 1400              		.loc 1 229 18 view .LVU381
 1401 00c0 FFF7FEFF 		bl	HAL_Delay
 1402              	.LVL72:
 1403 00c4 EEE7     		b	.L66
 1404              	.LVL73:
 1405              	.L86:
 223:Src/main.c    ****         }
 1406              		.loc 1 223 11 is_stmt 1 view .LVU382
 223:Src/main.c    ****         }
 1407              		.loc 1 223 24 is_stmt 0 view .LVU383
 1408 00c6 6D4B     		ldr	r3, .L95+24
 1409 00c8 0122     		movs	r2, #1
 1410 00ca 1A60     		str	r2, [r3]
 1411 00cc F7E7     		b	.L65
 1412              	.LVL74:
 1413              	.L85:
 233:Src/main.c    ****     lcd_driver.draw_text(1, 0, &password[0]);
 1414              		.loc 1 233 5 is_stmt 1 view .LVU384
 233:Src/main.c    ****     lcd_driver.draw_text(1, 0, &password[0]);
 1415              		.loc 1 233 25 is_stmt 0 view .LVU385
 1416 00ce 07AB     		add	r3, sp, #28
 1417 00d0 0022     		movs	r2, #0
 1418 00d2 1146     		mov	r1, r2
 1419 00d4 6748     		ldr	r0, .L95+16
 1420 00d6 FFF7FEFF 		bl	_ZN14lcd_nokia_51109draw_textEiiPKc
 1421              	.LVL75:
 234:Src/main.c    ****     lcd_driver.copy();
 1422              		.loc 1 234 5 is_stmt 1 view .LVU386
 1423              	.LBB326:
 1424              	.LBI326:
 1425              		.file 6 "/home/adam/STMCompiler/arm-none-eabi/include/c++/8.2.1/bits/basic_string.h"
   1:/home/adam/STMCompiler/arm-none-eabi/include/c++/8.2.1/bits/basic_string.h **** // Components for manipulating sequences of characters -*- C++ -*-
   2:/home/adam/STMCompiler/arm-none-eabi/include/c++/8.2.1/bits/basic_string.h **** 
   3:/home/adam/STMCompiler/arm-none-eabi/include/c++/8.2.1/bits/basic_string.h **** // Copyright (C) 1997-2018 Free Software Foundation, Inc.
   4:/home/adam/STMCompiler/arm-none-eabi/include/c++/8.2.1/bits/basic_string.h **** //
   5:/home/adam/STMCompiler/arm-none-eabi/include/c++/8.2.1/bits/basic_string.h **** // This file is part of the GNU ISO C++ Library.  This library is free
   6:/home/adam/STMCompiler/arm-none-eabi/include/c++/8.2.1/bits/basic_string.h **** // software; you can redistribute it and/or modify it under the
   7:/home/adam/STMCompiler/arm-none-eabi/include/c++/8.2.1/bits/basic_string.h **** // terms of the GNU General Public License as published by the
   8:/home/adam/STMCompiler/arm-none-eabi/include/c++/8.2.1/bits/basic_string.h **** // Free Software Foundation; either version 3, or (at your option)
ARM GAS  /tmp/cc2Vvk0o.s 			page 46


   9:/home/adam/STMCompiler/arm-none-eabi/include/c++/8.2.1/bits/basic_string.h **** // any later version.
  10:/home/adam/STMCompiler/arm-none-eabi/include/c++/8.2.1/bits/basic_string.h **** 
  11:/home/adam/STMCompiler/arm-none-eabi/include/c++/8.2.1/bits/basic_string.h **** // This library is distributed in the hope that it will be useful,
  12:/home/adam/STMCompiler/arm-none-eabi/include/c++/8.2.1/bits/basic_string.h **** // but WITHOUT ANY WARRANTY; without even the implied warranty of
  13:/home/adam/STMCompiler/arm-none-eabi/include/c++/8.2.1/bits/basic_string.h **** // MERCHANTABILITY or FITNESS FOR A PARTICULAR PURPOSE.  See the
  14:/home/adam/STMCompiler/arm-none-eabi/include/c++/8.2.1/bits/basic_string.h **** // GNU General Public License for more details.
  15:/home/adam/STMCompiler/arm-none-eabi/include/c++/8.2.1/bits/basic_string.h **** 
  16:/home/adam/STMCompiler/arm-none-eabi/include/c++/8.2.1/bits/basic_string.h **** // Under Section 7 of GPL version 3, you are granted additional
  17:/home/adam/STMCompiler/arm-none-eabi/include/c++/8.2.1/bits/basic_string.h **** // permissions described in the GCC Runtime Library Exception, version
  18:/home/adam/STMCompiler/arm-none-eabi/include/c++/8.2.1/bits/basic_string.h **** // 3.1, as published by the Free Software Foundation.
  19:/home/adam/STMCompiler/arm-none-eabi/include/c++/8.2.1/bits/basic_string.h **** 
  20:/home/adam/STMCompiler/arm-none-eabi/include/c++/8.2.1/bits/basic_string.h **** // You should have received a copy of the GNU General Public License and
  21:/home/adam/STMCompiler/arm-none-eabi/include/c++/8.2.1/bits/basic_string.h **** // a copy of the GCC Runtime Library Exception along with this program;
  22:/home/adam/STMCompiler/arm-none-eabi/include/c++/8.2.1/bits/basic_string.h **** // see the files COPYING3 and COPYING.RUNTIME respectively.  If not, see
  23:/home/adam/STMCompiler/arm-none-eabi/include/c++/8.2.1/bits/basic_string.h **** // <http://www.gnu.org/licenses/>.
  24:/home/adam/STMCompiler/arm-none-eabi/include/c++/8.2.1/bits/basic_string.h **** 
  25:/home/adam/STMCompiler/arm-none-eabi/include/c++/8.2.1/bits/basic_string.h **** /** @file bits/basic_string.h
  26:/home/adam/STMCompiler/arm-none-eabi/include/c++/8.2.1/bits/basic_string.h ****  *  This is an internal header file, included by other library headers.
  27:/home/adam/STMCompiler/arm-none-eabi/include/c++/8.2.1/bits/basic_string.h ****  *  Do not attempt to use it directly. @headername{string}
  28:/home/adam/STMCompiler/arm-none-eabi/include/c++/8.2.1/bits/basic_string.h ****  */
  29:/home/adam/STMCompiler/arm-none-eabi/include/c++/8.2.1/bits/basic_string.h **** 
  30:/home/adam/STMCompiler/arm-none-eabi/include/c++/8.2.1/bits/basic_string.h **** //
  31:/home/adam/STMCompiler/arm-none-eabi/include/c++/8.2.1/bits/basic_string.h **** // ISO C++ 14882: 21 Strings library
  32:/home/adam/STMCompiler/arm-none-eabi/include/c++/8.2.1/bits/basic_string.h **** //
  33:/home/adam/STMCompiler/arm-none-eabi/include/c++/8.2.1/bits/basic_string.h **** 
  34:/home/adam/STMCompiler/arm-none-eabi/include/c++/8.2.1/bits/basic_string.h **** #ifndef _BASIC_STRING_H
  35:/home/adam/STMCompiler/arm-none-eabi/include/c++/8.2.1/bits/basic_string.h **** #define _BASIC_STRING_H 1
  36:/home/adam/STMCompiler/arm-none-eabi/include/c++/8.2.1/bits/basic_string.h **** 
  37:/home/adam/STMCompiler/arm-none-eabi/include/c++/8.2.1/bits/basic_string.h **** #pragma GCC system_header
  38:/home/adam/STMCompiler/arm-none-eabi/include/c++/8.2.1/bits/basic_string.h **** 
  39:/home/adam/STMCompiler/arm-none-eabi/include/c++/8.2.1/bits/basic_string.h **** #include <ext/atomicity.h>
  40:/home/adam/STMCompiler/arm-none-eabi/include/c++/8.2.1/bits/basic_string.h **** #include <ext/alloc_traits.h>
  41:/home/adam/STMCompiler/arm-none-eabi/include/c++/8.2.1/bits/basic_string.h **** #include <debug/debug.h>
  42:/home/adam/STMCompiler/arm-none-eabi/include/c++/8.2.1/bits/basic_string.h **** 
  43:/home/adam/STMCompiler/arm-none-eabi/include/c++/8.2.1/bits/basic_string.h **** #if __cplusplus >= 201103L
  44:/home/adam/STMCompiler/arm-none-eabi/include/c++/8.2.1/bits/basic_string.h **** #include <initializer_list>
  45:/home/adam/STMCompiler/arm-none-eabi/include/c++/8.2.1/bits/basic_string.h **** #endif
  46:/home/adam/STMCompiler/arm-none-eabi/include/c++/8.2.1/bits/basic_string.h **** 
  47:/home/adam/STMCompiler/arm-none-eabi/include/c++/8.2.1/bits/basic_string.h **** #if __cplusplus > 201402L
  48:/home/adam/STMCompiler/arm-none-eabi/include/c++/8.2.1/bits/basic_string.h **** # include <string_view>
  49:/home/adam/STMCompiler/arm-none-eabi/include/c++/8.2.1/bits/basic_string.h **** #endif
  50:/home/adam/STMCompiler/arm-none-eabi/include/c++/8.2.1/bits/basic_string.h **** 
  51:/home/adam/STMCompiler/arm-none-eabi/include/c++/8.2.1/bits/basic_string.h **** 
  52:/home/adam/STMCompiler/arm-none-eabi/include/c++/8.2.1/bits/basic_string.h **** namespace std _GLIBCXX_VISIBILITY(default)
  53:/home/adam/STMCompiler/arm-none-eabi/include/c++/8.2.1/bits/basic_string.h **** {
  54:/home/adam/STMCompiler/arm-none-eabi/include/c++/8.2.1/bits/basic_string.h **** _GLIBCXX_BEGIN_NAMESPACE_VERSION
  55:/home/adam/STMCompiler/arm-none-eabi/include/c++/8.2.1/bits/basic_string.h **** 
  56:/home/adam/STMCompiler/arm-none-eabi/include/c++/8.2.1/bits/basic_string.h **** #if _GLIBCXX_USE_CXX11_ABI
  57:/home/adam/STMCompiler/arm-none-eabi/include/c++/8.2.1/bits/basic_string.h **** _GLIBCXX_BEGIN_NAMESPACE_CXX11
  58:/home/adam/STMCompiler/arm-none-eabi/include/c++/8.2.1/bits/basic_string.h ****   /**
  59:/home/adam/STMCompiler/arm-none-eabi/include/c++/8.2.1/bits/basic_string.h ****    *  @class basic_string basic_string.h <string>
  60:/home/adam/STMCompiler/arm-none-eabi/include/c++/8.2.1/bits/basic_string.h ****    *  @brief  Managing sequences of characters and character-like objects.
  61:/home/adam/STMCompiler/arm-none-eabi/include/c++/8.2.1/bits/basic_string.h ****    *
  62:/home/adam/STMCompiler/arm-none-eabi/include/c++/8.2.1/bits/basic_string.h ****    *  @ingroup strings
  63:/home/adam/STMCompiler/arm-none-eabi/include/c++/8.2.1/bits/basic_string.h ****    *  @ingroup sequences
  64:/home/adam/STMCompiler/arm-none-eabi/include/c++/8.2.1/bits/basic_string.h ****    *
  65:/home/adam/STMCompiler/arm-none-eabi/include/c++/8.2.1/bits/basic_string.h ****    *  @tparam _CharT  Type of character
ARM GAS  /tmp/cc2Vvk0o.s 			page 47


  66:/home/adam/STMCompiler/arm-none-eabi/include/c++/8.2.1/bits/basic_string.h ****    *  @tparam _Traits  Traits for character type, defaults to
  67:/home/adam/STMCompiler/arm-none-eabi/include/c++/8.2.1/bits/basic_string.h ****    *                   char_traits<_CharT>.
  68:/home/adam/STMCompiler/arm-none-eabi/include/c++/8.2.1/bits/basic_string.h ****    *  @tparam _Alloc  Allocator type, defaults to allocator<_CharT>.
  69:/home/adam/STMCompiler/arm-none-eabi/include/c++/8.2.1/bits/basic_string.h ****    *
  70:/home/adam/STMCompiler/arm-none-eabi/include/c++/8.2.1/bits/basic_string.h ****    *  Meets the requirements of a <a href="tables.html#65">container</a>, a
  71:/home/adam/STMCompiler/arm-none-eabi/include/c++/8.2.1/bits/basic_string.h ****    *  <a href="tables.html#66">reversible container</a>, and a
  72:/home/adam/STMCompiler/arm-none-eabi/include/c++/8.2.1/bits/basic_string.h ****    *  <a href="tables.html#67">sequence</a>.  Of the
  73:/home/adam/STMCompiler/arm-none-eabi/include/c++/8.2.1/bits/basic_string.h ****    *  <a href="tables.html#68">optional sequence requirements</a>, only
  74:/home/adam/STMCompiler/arm-none-eabi/include/c++/8.2.1/bits/basic_string.h ****    *  @c push_back, @c at, and @c %array access are supported.
  75:/home/adam/STMCompiler/arm-none-eabi/include/c++/8.2.1/bits/basic_string.h ****    */
  76:/home/adam/STMCompiler/arm-none-eabi/include/c++/8.2.1/bits/basic_string.h ****   template<typename _CharT, typename _Traits, typename _Alloc>
  77:/home/adam/STMCompiler/arm-none-eabi/include/c++/8.2.1/bits/basic_string.h ****     class basic_string
  78:/home/adam/STMCompiler/arm-none-eabi/include/c++/8.2.1/bits/basic_string.h ****     {
  79:/home/adam/STMCompiler/arm-none-eabi/include/c++/8.2.1/bits/basic_string.h ****       typedef typename __gnu_cxx::__alloc_traits<_Alloc>::template
  80:/home/adam/STMCompiler/arm-none-eabi/include/c++/8.2.1/bits/basic_string.h **** 	rebind<_CharT>::other _Char_alloc_type;
  81:/home/adam/STMCompiler/arm-none-eabi/include/c++/8.2.1/bits/basic_string.h ****       typedef __gnu_cxx::__alloc_traits<_Char_alloc_type> _Alloc_traits;
  82:/home/adam/STMCompiler/arm-none-eabi/include/c++/8.2.1/bits/basic_string.h **** 
  83:/home/adam/STMCompiler/arm-none-eabi/include/c++/8.2.1/bits/basic_string.h ****       // Types:
  84:/home/adam/STMCompiler/arm-none-eabi/include/c++/8.2.1/bits/basic_string.h ****     public:
  85:/home/adam/STMCompiler/arm-none-eabi/include/c++/8.2.1/bits/basic_string.h ****       typedef _Traits					traits_type;
  86:/home/adam/STMCompiler/arm-none-eabi/include/c++/8.2.1/bits/basic_string.h ****       typedef typename _Traits::char_type		value_type;
  87:/home/adam/STMCompiler/arm-none-eabi/include/c++/8.2.1/bits/basic_string.h ****       typedef _Char_alloc_type				allocator_type;
  88:/home/adam/STMCompiler/arm-none-eabi/include/c++/8.2.1/bits/basic_string.h ****       typedef typename _Alloc_traits::size_type		size_type;
  89:/home/adam/STMCompiler/arm-none-eabi/include/c++/8.2.1/bits/basic_string.h ****       typedef typename _Alloc_traits::difference_type	difference_type;
  90:/home/adam/STMCompiler/arm-none-eabi/include/c++/8.2.1/bits/basic_string.h ****       typedef typename _Alloc_traits::reference		reference;
  91:/home/adam/STMCompiler/arm-none-eabi/include/c++/8.2.1/bits/basic_string.h ****       typedef typename _Alloc_traits::const_reference	const_reference;
  92:/home/adam/STMCompiler/arm-none-eabi/include/c++/8.2.1/bits/basic_string.h ****       typedef typename _Alloc_traits::pointer		pointer;
  93:/home/adam/STMCompiler/arm-none-eabi/include/c++/8.2.1/bits/basic_string.h ****       typedef typename _Alloc_traits::const_pointer	const_pointer;
  94:/home/adam/STMCompiler/arm-none-eabi/include/c++/8.2.1/bits/basic_string.h ****       typedef __gnu_cxx::__normal_iterator<pointer, basic_string>  iterator;
  95:/home/adam/STMCompiler/arm-none-eabi/include/c++/8.2.1/bits/basic_string.h ****       typedef __gnu_cxx::__normal_iterator<const_pointer, basic_string>
  96:/home/adam/STMCompiler/arm-none-eabi/include/c++/8.2.1/bits/basic_string.h **** 							const_iterator;
  97:/home/adam/STMCompiler/arm-none-eabi/include/c++/8.2.1/bits/basic_string.h ****       typedef std::reverse_iterator<const_iterator>	const_reverse_iterator;
  98:/home/adam/STMCompiler/arm-none-eabi/include/c++/8.2.1/bits/basic_string.h ****       typedef std::reverse_iterator<iterator>		reverse_iterator;
  99:/home/adam/STMCompiler/arm-none-eabi/include/c++/8.2.1/bits/basic_string.h **** 
 100:/home/adam/STMCompiler/arm-none-eabi/include/c++/8.2.1/bits/basic_string.h ****       ///  Value returned by various member functions when they fail.
 101:/home/adam/STMCompiler/arm-none-eabi/include/c++/8.2.1/bits/basic_string.h ****       static const size_type	npos = static_cast<size_type>(-1);
 102:/home/adam/STMCompiler/arm-none-eabi/include/c++/8.2.1/bits/basic_string.h **** 
 103:/home/adam/STMCompiler/arm-none-eabi/include/c++/8.2.1/bits/basic_string.h ****     private:
 104:/home/adam/STMCompiler/arm-none-eabi/include/c++/8.2.1/bits/basic_string.h ****       // type used for positions in insert, erase etc.
 105:/home/adam/STMCompiler/arm-none-eabi/include/c++/8.2.1/bits/basic_string.h **** #if __cplusplus < 201103L
 106:/home/adam/STMCompiler/arm-none-eabi/include/c++/8.2.1/bits/basic_string.h ****       typedef iterator __const_iterator;
 107:/home/adam/STMCompiler/arm-none-eabi/include/c++/8.2.1/bits/basic_string.h **** #else
 108:/home/adam/STMCompiler/arm-none-eabi/include/c++/8.2.1/bits/basic_string.h ****       typedef const_iterator __const_iterator;
 109:/home/adam/STMCompiler/arm-none-eabi/include/c++/8.2.1/bits/basic_string.h **** #endif
 110:/home/adam/STMCompiler/arm-none-eabi/include/c++/8.2.1/bits/basic_string.h **** 
 111:/home/adam/STMCompiler/arm-none-eabi/include/c++/8.2.1/bits/basic_string.h **** #if __cplusplus > 201402L
 112:/home/adam/STMCompiler/arm-none-eabi/include/c++/8.2.1/bits/basic_string.h ****       // A helper type for avoiding boiler-plate.
 113:/home/adam/STMCompiler/arm-none-eabi/include/c++/8.2.1/bits/basic_string.h ****       typedef basic_string_view<_CharT, _Traits> __sv_type;
 114:/home/adam/STMCompiler/arm-none-eabi/include/c++/8.2.1/bits/basic_string.h **** 
 115:/home/adam/STMCompiler/arm-none-eabi/include/c++/8.2.1/bits/basic_string.h ****       template<typename _Tp, typename _Res>
 116:/home/adam/STMCompiler/arm-none-eabi/include/c++/8.2.1/bits/basic_string.h **** 	using _If_sv = enable_if_t<
 117:/home/adam/STMCompiler/arm-none-eabi/include/c++/8.2.1/bits/basic_string.h **** 	  __and_<is_convertible<const _Tp&, __sv_type>,
 118:/home/adam/STMCompiler/arm-none-eabi/include/c++/8.2.1/bits/basic_string.h **** 		 __not_<is_convertible<const _Tp*, const basic_string*>>,
 119:/home/adam/STMCompiler/arm-none-eabi/include/c++/8.2.1/bits/basic_string.h **** 		 __not_<is_convertible<const _Tp&, const _CharT*>>>::value,
 120:/home/adam/STMCompiler/arm-none-eabi/include/c++/8.2.1/bits/basic_string.h **** 	  _Res>;
 121:/home/adam/STMCompiler/arm-none-eabi/include/c++/8.2.1/bits/basic_string.h **** 
 122:/home/adam/STMCompiler/arm-none-eabi/include/c++/8.2.1/bits/basic_string.h ****       // Allows an implicit conversion to __sv_type.
ARM GAS  /tmp/cc2Vvk0o.s 			page 48


 123:/home/adam/STMCompiler/arm-none-eabi/include/c++/8.2.1/bits/basic_string.h ****       static __sv_type
 124:/home/adam/STMCompiler/arm-none-eabi/include/c++/8.2.1/bits/basic_string.h ****       _S_to_string_view(__sv_type __svt) noexcept
 125:/home/adam/STMCompiler/arm-none-eabi/include/c++/8.2.1/bits/basic_string.h ****       { return __svt; }
 126:/home/adam/STMCompiler/arm-none-eabi/include/c++/8.2.1/bits/basic_string.h **** 
 127:/home/adam/STMCompiler/arm-none-eabi/include/c++/8.2.1/bits/basic_string.h ****       // Wraps a string_view by explicit conversion and thus
 128:/home/adam/STMCompiler/arm-none-eabi/include/c++/8.2.1/bits/basic_string.h ****       // allows to add an internal constructor that does not
 129:/home/adam/STMCompiler/arm-none-eabi/include/c++/8.2.1/bits/basic_string.h ****       // participate in overload resolution when a string_view
 130:/home/adam/STMCompiler/arm-none-eabi/include/c++/8.2.1/bits/basic_string.h ****       // is provided.
 131:/home/adam/STMCompiler/arm-none-eabi/include/c++/8.2.1/bits/basic_string.h ****       struct __sv_wrapper
 132:/home/adam/STMCompiler/arm-none-eabi/include/c++/8.2.1/bits/basic_string.h ****       {
 133:/home/adam/STMCompiler/arm-none-eabi/include/c++/8.2.1/bits/basic_string.h **** 	explicit __sv_wrapper(__sv_type __sv) noexcept : _M_sv(__sv) { }
 134:/home/adam/STMCompiler/arm-none-eabi/include/c++/8.2.1/bits/basic_string.h **** 	__sv_type _M_sv;
 135:/home/adam/STMCompiler/arm-none-eabi/include/c++/8.2.1/bits/basic_string.h ****       };
 136:/home/adam/STMCompiler/arm-none-eabi/include/c++/8.2.1/bits/basic_string.h **** #endif
 137:/home/adam/STMCompiler/arm-none-eabi/include/c++/8.2.1/bits/basic_string.h **** 
 138:/home/adam/STMCompiler/arm-none-eabi/include/c++/8.2.1/bits/basic_string.h ****       // Use empty-base optimization: http://www.cantrip.org/emptyopt.html
 139:/home/adam/STMCompiler/arm-none-eabi/include/c++/8.2.1/bits/basic_string.h ****       struct _Alloc_hider : allocator_type // TODO check __is_final
 140:/home/adam/STMCompiler/arm-none-eabi/include/c++/8.2.1/bits/basic_string.h ****       {
 141:/home/adam/STMCompiler/arm-none-eabi/include/c++/8.2.1/bits/basic_string.h **** #if __cplusplus < 201103L
 142:/home/adam/STMCompiler/arm-none-eabi/include/c++/8.2.1/bits/basic_string.h **** 	_Alloc_hider(pointer __dat, const _Alloc& __a = _Alloc())
 143:/home/adam/STMCompiler/arm-none-eabi/include/c++/8.2.1/bits/basic_string.h **** 	: allocator_type(__a), _M_p(__dat) { }
 144:/home/adam/STMCompiler/arm-none-eabi/include/c++/8.2.1/bits/basic_string.h **** #else
 145:/home/adam/STMCompiler/arm-none-eabi/include/c++/8.2.1/bits/basic_string.h **** 	_Alloc_hider(pointer __dat, const _Alloc& __a)
 146:/home/adam/STMCompiler/arm-none-eabi/include/c++/8.2.1/bits/basic_string.h **** 	: allocator_type(__a), _M_p(__dat) { }
 147:/home/adam/STMCompiler/arm-none-eabi/include/c++/8.2.1/bits/basic_string.h **** 
 148:/home/adam/STMCompiler/arm-none-eabi/include/c++/8.2.1/bits/basic_string.h **** 	_Alloc_hider(pointer __dat, _Alloc&& __a = _Alloc())
 149:/home/adam/STMCompiler/arm-none-eabi/include/c++/8.2.1/bits/basic_string.h **** 	: allocator_type(std::move(__a)), _M_p(__dat) { }
 150:/home/adam/STMCompiler/arm-none-eabi/include/c++/8.2.1/bits/basic_string.h **** #endif
 151:/home/adam/STMCompiler/arm-none-eabi/include/c++/8.2.1/bits/basic_string.h **** 
 152:/home/adam/STMCompiler/arm-none-eabi/include/c++/8.2.1/bits/basic_string.h **** 	pointer _M_p; // The actual data.
 153:/home/adam/STMCompiler/arm-none-eabi/include/c++/8.2.1/bits/basic_string.h ****       };
 154:/home/adam/STMCompiler/arm-none-eabi/include/c++/8.2.1/bits/basic_string.h **** 
 155:/home/adam/STMCompiler/arm-none-eabi/include/c++/8.2.1/bits/basic_string.h ****       _Alloc_hider	_M_dataplus;
 156:/home/adam/STMCompiler/arm-none-eabi/include/c++/8.2.1/bits/basic_string.h ****       size_type		_M_string_length;
 157:/home/adam/STMCompiler/arm-none-eabi/include/c++/8.2.1/bits/basic_string.h **** 
 158:/home/adam/STMCompiler/arm-none-eabi/include/c++/8.2.1/bits/basic_string.h ****       enum { _S_local_capacity = 15 / sizeof(_CharT) };
 159:/home/adam/STMCompiler/arm-none-eabi/include/c++/8.2.1/bits/basic_string.h **** 
 160:/home/adam/STMCompiler/arm-none-eabi/include/c++/8.2.1/bits/basic_string.h ****       union
 161:/home/adam/STMCompiler/arm-none-eabi/include/c++/8.2.1/bits/basic_string.h ****       {
 162:/home/adam/STMCompiler/arm-none-eabi/include/c++/8.2.1/bits/basic_string.h **** 	_CharT           _M_local_buf[_S_local_capacity + 1];
 163:/home/adam/STMCompiler/arm-none-eabi/include/c++/8.2.1/bits/basic_string.h **** 	size_type        _M_allocated_capacity;
 164:/home/adam/STMCompiler/arm-none-eabi/include/c++/8.2.1/bits/basic_string.h ****       };
 165:/home/adam/STMCompiler/arm-none-eabi/include/c++/8.2.1/bits/basic_string.h **** 
 166:/home/adam/STMCompiler/arm-none-eabi/include/c++/8.2.1/bits/basic_string.h ****       void
 167:/home/adam/STMCompiler/arm-none-eabi/include/c++/8.2.1/bits/basic_string.h ****       _M_data(pointer __p)
 168:/home/adam/STMCompiler/arm-none-eabi/include/c++/8.2.1/bits/basic_string.h ****       { _M_dataplus._M_p = __p; }
 169:/home/adam/STMCompiler/arm-none-eabi/include/c++/8.2.1/bits/basic_string.h **** 
 170:/home/adam/STMCompiler/arm-none-eabi/include/c++/8.2.1/bits/basic_string.h ****       void
 171:/home/adam/STMCompiler/arm-none-eabi/include/c++/8.2.1/bits/basic_string.h ****       _M_length(size_type __length)
 172:/home/adam/STMCompiler/arm-none-eabi/include/c++/8.2.1/bits/basic_string.h ****       { _M_string_length = __length; }
 173:/home/adam/STMCompiler/arm-none-eabi/include/c++/8.2.1/bits/basic_string.h **** 
 174:/home/adam/STMCompiler/arm-none-eabi/include/c++/8.2.1/bits/basic_string.h ****       pointer
 175:/home/adam/STMCompiler/arm-none-eabi/include/c++/8.2.1/bits/basic_string.h ****       _M_data() const
 176:/home/adam/STMCompiler/arm-none-eabi/include/c++/8.2.1/bits/basic_string.h ****       { return _M_dataplus._M_p; }
 177:/home/adam/STMCompiler/arm-none-eabi/include/c++/8.2.1/bits/basic_string.h **** 
 178:/home/adam/STMCompiler/arm-none-eabi/include/c++/8.2.1/bits/basic_string.h ****       pointer
 179:/home/adam/STMCompiler/arm-none-eabi/include/c++/8.2.1/bits/basic_string.h ****       _M_local_data()
ARM GAS  /tmp/cc2Vvk0o.s 			page 49


 180:/home/adam/STMCompiler/arm-none-eabi/include/c++/8.2.1/bits/basic_string.h ****       {
 181:/home/adam/STMCompiler/arm-none-eabi/include/c++/8.2.1/bits/basic_string.h **** #if __cplusplus >= 201103L
 182:/home/adam/STMCompiler/arm-none-eabi/include/c++/8.2.1/bits/basic_string.h **** 	return std::pointer_traits<pointer>::pointer_to(*_M_local_buf);
 183:/home/adam/STMCompiler/arm-none-eabi/include/c++/8.2.1/bits/basic_string.h **** #else
 184:/home/adam/STMCompiler/arm-none-eabi/include/c++/8.2.1/bits/basic_string.h **** 	return pointer(_M_local_buf);
 185:/home/adam/STMCompiler/arm-none-eabi/include/c++/8.2.1/bits/basic_string.h **** #endif
 186:/home/adam/STMCompiler/arm-none-eabi/include/c++/8.2.1/bits/basic_string.h ****       }
 187:/home/adam/STMCompiler/arm-none-eabi/include/c++/8.2.1/bits/basic_string.h **** 
 188:/home/adam/STMCompiler/arm-none-eabi/include/c++/8.2.1/bits/basic_string.h ****       const_pointer
 189:/home/adam/STMCompiler/arm-none-eabi/include/c++/8.2.1/bits/basic_string.h ****       _M_local_data() const
 190:/home/adam/STMCompiler/arm-none-eabi/include/c++/8.2.1/bits/basic_string.h ****       {
 191:/home/adam/STMCompiler/arm-none-eabi/include/c++/8.2.1/bits/basic_string.h **** #if __cplusplus >= 201103L
 192:/home/adam/STMCompiler/arm-none-eabi/include/c++/8.2.1/bits/basic_string.h **** 	return std::pointer_traits<const_pointer>::pointer_to(*_M_local_buf);
 193:/home/adam/STMCompiler/arm-none-eabi/include/c++/8.2.1/bits/basic_string.h **** #else
 194:/home/adam/STMCompiler/arm-none-eabi/include/c++/8.2.1/bits/basic_string.h **** 	return const_pointer(_M_local_buf);
 195:/home/adam/STMCompiler/arm-none-eabi/include/c++/8.2.1/bits/basic_string.h **** #endif
 196:/home/adam/STMCompiler/arm-none-eabi/include/c++/8.2.1/bits/basic_string.h ****       }
 197:/home/adam/STMCompiler/arm-none-eabi/include/c++/8.2.1/bits/basic_string.h **** 
 198:/home/adam/STMCompiler/arm-none-eabi/include/c++/8.2.1/bits/basic_string.h ****       void
 199:/home/adam/STMCompiler/arm-none-eabi/include/c++/8.2.1/bits/basic_string.h ****       _M_capacity(size_type __capacity)
 200:/home/adam/STMCompiler/arm-none-eabi/include/c++/8.2.1/bits/basic_string.h ****       { _M_allocated_capacity = __capacity; }
 201:/home/adam/STMCompiler/arm-none-eabi/include/c++/8.2.1/bits/basic_string.h **** 
 202:/home/adam/STMCompiler/arm-none-eabi/include/c++/8.2.1/bits/basic_string.h ****       void
 203:/home/adam/STMCompiler/arm-none-eabi/include/c++/8.2.1/bits/basic_string.h ****       _M_set_length(size_type __n)
 204:/home/adam/STMCompiler/arm-none-eabi/include/c++/8.2.1/bits/basic_string.h ****       {
 205:/home/adam/STMCompiler/arm-none-eabi/include/c++/8.2.1/bits/basic_string.h **** 	_M_length(__n);
 206:/home/adam/STMCompiler/arm-none-eabi/include/c++/8.2.1/bits/basic_string.h **** 	traits_type::assign(_M_data()[__n], _CharT());
 207:/home/adam/STMCompiler/arm-none-eabi/include/c++/8.2.1/bits/basic_string.h ****       }
 208:/home/adam/STMCompiler/arm-none-eabi/include/c++/8.2.1/bits/basic_string.h **** 
 209:/home/adam/STMCompiler/arm-none-eabi/include/c++/8.2.1/bits/basic_string.h ****       bool
 210:/home/adam/STMCompiler/arm-none-eabi/include/c++/8.2.1/bits/basic_string.h ****       _M_is_local() const
 211:/home/adam/STMCompiler/arm-none-eabi/include/c++/8.2.1/bits/basic_string.h ****       { return _M_data() == _M_local_data(); }
 212:/home/adam/STMCompiler/arm-none-eabi/include/c++/8.2.1/bits/basic_string.h **** 
 213:/home/adam/STMCompiler/arm-none-eabi/include/c++/8.2.1/bits/basic_string.h ****       // Create & Destroy
 214:/home/adam/STMCompiler/arm-none-eabi/include/c++/8.2.1/bits/basic_string.h ****       pointer
 215:/home/adam/STMCompiler/arm-none-eabi/include/c++/8.2.1/bits/basic_string.h ****       _M_create(size_type&, size_type);
 216:/home/adam/STMCompiler/arm-none-eabi/include/c++/8.2.1/bits/basic_string.h **** 
 217:/home/adam/STMCompiler/arm-none-eabi/include/c++/8.2.1/bits/basic_string.h ****       void
 218:/home/adam/STMCompiler/arm-none-eabi/include/c++/8.2.1/bits/basic_string.h ****       _M_dispose()
 219:/home/adam/STMCompiler/arm-none-eabi/include/c++/8.2.1/bits/basic_string.h ****       {
 220:/home/adam/STMCompiler/arm-none-eabi/include/c++/8.2.1/bits/basic_string.h **** 	if (!_M_is_local())
 221:/home/adam/STMCompiler/arm-none-eabi/include/c++/8.2.1/bits/basic_string.h **** 	  _M_destroy(_M_allocated_capacity);
 222:/home/adam/STMCompiler/arm-none-eabi/include/c++/8.2.1/bits/basic_string.h ****       }
 223:/home/adam/STMCompiler/arm-none-eabi/include/c++/8.2.1/bits/basic_string.h **** 
 224:/home/adam/STMCompiler/arm-none-eabi/include/c++/8.2.1/bits/basic_string.h ****       void
 225:/home/adam/STMCompiler/arm-none-eabi/include/c++/8.2.1/bits/basic_string.h ****       _M_destroy(size_type __size) throw()
 226:/home/adam/STMCompiler/arm-none-eabi/include/c++/8.2.1/bits/basic_string.h ****       { _Alloc_traits::deallocate(_M_get_allocator(), _M_data(), __size + 1); }
 227:/home/adam/STMCompiler/arm-none-eabi/include/c++/8.2.1/bits/basic_string.h **** 
 228:/home/adam/STMCompiler/arm-none-eabi/include/c++/8.2.1/bits/basic_string.h ****       // _M_construct_aux is used to implement the 21.3.1 para 15 which
 229:/home/adam/STMCompiler/arm-none-eabi/include/c++/8.2.1/bits/basic_string.h ****       // requires special behaviour if _InIterator is an integral type
 230:/home/adam/STMCompiler/arm-none-eabi/include/c++/8.2.1/bits/basic_string.h ****       template<typename _InIterator>
 231:/home/adam/STMCompiler/arm-none-eabi/include/c++/8.2.1/bits/basic_string.h ****         void
 232:/home/adam/STMCompiler/arm-none-eabi/include/c++/8.2.1/bits/basic_string.h ****         _M_construct_aux(_InIterator __beg, _InIterator __end,
 233:/home/adam/STMCompiler/arm-none-eabi/include/c++/8.2.1/bits/basic_string.h **** 			 std::__false_type)
 234:/home/adam/STMCompiler/arm-none-eabi/include/c++/8.2.1/bits/basic_string.h **** 	{
 235:/home/adam/STMCompiler/arm-none-eabi/include/c++/8.2.1/bits/basic_string.h ****           typedef typename iterator_traits<_InIterator>::iterator_category _Tag;
 236:/home/adam/STMCompiler/arm-none-eabi/include/c++/8.2.1/bits/basic_string.h ****           _M_construct(__beg, __end, _Tag());
ARM GAS  /tmp/cc2Vvk0o.s 			page 50


 237:/home/adam/STMCompiler/arm-none-eabi/include/c++/8.2.1/bits/basic_string.h **** 	}
 238:/home/adam/STMCompiler/arm-none-eabi/include/c++/8.2.1/bits/basic_string.h **** 
 239:/home/adam/STMCompiler/arm-none-eabi/include/c++/8.2.1/bits/basic_string.h ****       // _GLIBCXX_RESOLVE_LIB_DEFECTS
 240:/home/adam/STMCompiler/arm-none-eabi/include/c++/8.2.1/bits/basic_string.h ****       // 438. Ambiguity in the "do the right thing" clause
 241:/home/adam/STMCompiler/arm-none-eabi/include/c++/8.2.1/bits/basic_string.h ****       template<typename _Integer>
 242:/home/adam/STMCompiler/arm-none-eabi/include/c++/8.2.1/bits/basic_string.h ****         void
 243:/home/adam/STMCompiler/arm-none-eabi/include/c++/8.2.1/bits/basic_string.h ****         _M_construct_aux(_Integer __beg, _Integer __end, std::__true_type)
 244:/home/adam/STMCompiler/arm-none-eabi/include/c++/8.2.1/bits/basic_string.h **** 	{ _M_construct_aux_2(static_cast<size_type>(__beg), __end); }
 245:/home/adam/STMCompiler/arm-none-eabi/include/c++/8.2.1/bits/basic_string.h **** 
 246:/home/adam/STMCompiler/arm-none-eabi/include/c++/8.2.1/bits/basic_string.h ****       void
 247:/home/adam/STMCompiler/arm-none-eabi/include/c++/8.2.1/bits/basic_string.h ****       _M_construct_aux_2(size_type __req, _CharT __c)
 248:/home/adam/STMCompiler/arm-none-eabi/include/c++/8.2.1/bits/basic_string.h ****       { _M_construct(__req, __c); }
 249:/home/adam/STMCompiler/arm-none-eabi/include/c++/8.2.1/bits/basic_string.h **** 
 250:/home/adam/STMCompiler/arm-none-eabi/include/c++/8.2.1/bits/basic_string.h ****       template<typename _InIterator>
 251:/home/adam/STMCompiler/arm-none-eabi/include/c++/8.2.1/bits/basic_string.h ****         void
 252:/home/adam/STMCompiler/arm-none-eabi/include/c++/8.2.1/bits/basic_string.h ****         _M_construct(_InIterator __beg, _InIterator __end)
 253:/home/adam/STMCompiler/arm-none-eabi/include/c++/8.2.1/bits/basic_string.h **** 	{
 254:/home/adam/STMCompiler/arm-none-eabi/include/c++/8.2.1/bits/basic_string.h **** 	  typedef typename std::__is_integer<_InIterator>::__type _Integral;
 255:/home/adam/STMCompiler/arm-none-eabi/include/c++/8.2.1/bits/basic_string.h **** 	  _M_construct_aux(__beg, __end, _Integral());
 256:/home/adam/STMCompiler/arm-none-eabi/include/c++/8.2.1/bits/basic_string.h ****         }
 257:/home/adam/STMCompiler/arm-none-eabi/include/c++/8.2.1/bits/basic_string.h **** 
 258:/home/adam/STMCompiler/arm-none-eabi/include/c++/8.2.1/bits/basic_string.h ****       // For Input Iterators, used in istreambuf_iterators, etc.
 259:/home/adam/STMCompiler/arm-none-eabi/include/c++/8.2.1/bits/basic_string.h ****       template<typename _InIterator>
 260:/home/adam/STMCompiler/arm-none-eabi/include/c++/8.2.1/bits/basic_string.h ****         void
 261:/home/adam/STMCompiler/arm-none-eabi/include/c++/8.2.1/bits/basic_string.h ****         _M_construct(_InIterator __beg, _InIterator __end,
 262:/home/adam/STMCompiler/arm-none-eabi/include/c++/8.2.1/bits/basic_string.h **** 		     std::input_iterator_tag);
 263:/home/adam/STMCompiler/arm-none-eabi/include/c++/8.2.1/bits/basic_string.h **** 
 264:/home/adam/STMCompiler/arm-none-eabi/include/c++/8.2.1/bits/basic_string.h ****       // For forward_iterators up to random_access_iterators, used for
 265:/home/adam/STMCompiler/arm-none-eabi/include/c++/8.2.1/bits/basic_string.h ****       // string::iterator, _CharT*, etc.
 266:/home/adam/STMCompiler/arm-none-eabi/include/c++/8.2.1/bits/basic_string.h ****       template<typename _FwdIterator>
 267:/home/adam/STMCompiler/arm-none-eabi/include/c++/8.2.1/bits/basic_string.h ****         void
 268:/home/adam/STMCompiler/arm-none-eabi/include/c++/8.2.1/bits/basic_string.h ****         _M_construct(_FwdIterator __beg, _FwdIterator __end,
 269:/home/adam/STMCompiler/arm-none-eabi/include/c++/8.2.1/bits/basic_string.h **** 		     std::forward_iterator_tag);
 270:/home/adam/STMCompiler/arm-none-eabi/include/c++/8.2.1/bits/basic_string.h **** 
 271:/home/adam/STMCompiler/arm-none-eabi/include/c++/8.2.1/bits/basic_string.h ****       void
 272:/home/adam/STMCompiler/arm-none-eabi/include/c++/8.2.1/bits/basic_string.h ****       _M_construct(size_type __req, _CharT __c);
 273:/home/adam/STMCompiler/arm-none-eabi/include/c++/8.2.1/bits/basic_string.h **** 
 274:/home/adam/STMCompiler/arm-none-eabi/include/c++/8.2.1/bits/basic_string.h ****       allocator_type&
 275:/home/adam/STMCompiler/arm-none-eabi/include/c++/8.2.1/bits/basic_string.h ****       _M_get_allocator()
 276:/home/adam/STMCompiler/arm-none-eabi/include/c++/8.2.1/bits/basic_string.h ****       { return _M_dataplus; }
 277:/home/adam/STMCompiler/arm-none-eabi/include/c++/8.2.1/bits/basic_string.h **** 
 278:/home/adam/STMCompiler/arm-none-eabi/include/c++/8.2.1/bits/basic_string.h ****       const allocator_type&
 279:/home/adam/STMCompiler/arm-none-eabi/include/c++/8.2.1/bits/basic_string.h ****       _M_get_allocator() const
 280:/home/adam/STMCompiler/arm-none-eabi/include/c++/8.2.1/bits/basic_string.h ****       { return _M_dataplus; }
 281:/home/adam/STMCompiler/arm-none-eabi/include/c++/8.2.1/bits/basic_string.h **** 
 282:/home/adam/STMCompiler/arm-none-eabi/include/c++/8.2.1/bits/basic_string.h ****     private:
 283:/home/adam/STMCompiler/arm-none-eabi/include/c++/8.2.1/bits/basic_string.h **** 
 284:/home/adam/STMCompiler/arm-none-eabi/include/c++/8.2.1/bits/basic_string.h **** #ifdef _GLIBCXX_DISAMBIGUATE_REPLACE_INST
 285:/home/adam/STMCompiler/arm-none-eabi/include/c++/8.2.1/bits/basic_string.h ****       // The explicit instantiations in misc-inst.cc require this due to
 286:/home/adam/STMCompiler/arm-none-eabi/include/c++/8.2.1/bits/basic_string.h ****       // https://gcc.gnu.org/bugzilla/show_bug.cgi?id=64063
 287:/home/adam/STMCompiler/arm-none-eabi/include/c++/8.2.1/bits/basic_string.h ****       template<typename _Tp, bool _Requires =
 288:/home/adam/STMCompiler/arm-none-eabi/include/c++/8.2.1/bits/basic_string.h **** 	       !__are_same<_Tp, _CharT*>::__value
 289:/home/adam/STMCompiler/arm-none-eabi/include/c++/8.2.1/bits/basic_string.h **** 	       && !__are_same<_Tp, const _CharT*>::__value
 290:/home/adam/STMCompiler/arm-none-eabi/include/c++/8.2.1/bits/basic_string.h **** 	       && !__are_same<_Tp, iterator>::__value
 291:/home/adam/STMCompiler/arm-none-eabi/include/c++/8.2.1/bits/basic_string.h **** 	       && !__are_same<_Tp, const_iterator>::__value>
 292:/home/adam/STMCompiler/arm-none-eabi/include/c++/8.2.1/bits/basic_string.h **** 	struct __enable_if_not_native_iterator
 293:/home/adam/STMCompiler/arm-none-eabi/include/c++/8.2.1/bits/basic_string.h **** 	{ typedef basic_string& __type; };
ARM GAS  /tmp/cc2Vvk0o.s 			page 51


 294:/home/adam/STMCompiler/arm-none-eabi/include/c++/8.2.1/bits/basic_string.h ****       template<typename _Tp>
 295:/home/adam/STMCompiler/arm-none-eabi/include/c++/8.2.1/bits/basic_string.h **** 	struct __enable_if_not_native_iterator<_Tp, false> { };
 296:/home/adam/STMCompiler/arm-none-eabi/include/c++/8.2.1/bits/basic_string.h **** #endif
 297:/home/adam/STMCompiler/arm-none-eabi/include/c++/8.2.1/bits/basic_string.h **** 
 298:/home/adam/STMCompiler/arm-none-eabi/include/c++/8.2.1/bits/basic_string.h ****       size_type
 299:/home/adam/STMCompiler/arm-none-eabi/include/c++/8.2.1/bits/basic_string.h ****       _M_check(size_type __pos, const char* __s) const
 300:/home/adam/STMCompiler/arm-none-eabi/include/c++/8.2.1/bits/basic_string.h ****       {
 301:/home/adam/STMCompiler/arm-none-eabi/include/c++/8.2.1/bits/basic_string.h **** 	if (__pos > this->size())
 302:/home/adam/STMCompiler/arm-none-eabi/include/c++/8.2.1/bits/basic_string.h **** 	  __throw_out_of_range_fmt(__N("%s: __pos (which is %zu) > "
 303:/home/adam/STMCompiler/arm-none-eabi/include/c++/8.2.1/bits/basic_string.h **** 				       "this->size() (which is %zu)"),
 304:/home/adam/STMCompiler/arm-none-eabi/include/c++/8.2.1/bits/basic_string.h **** 				   __s, __pos, this->size());
 305:/home/adam/STMCompiler/arm-none-eabi/include/c++/8.2.1/bits/basic_string.h **** 	return __pos;
 306:/home/adam/STMCompiler/arm-none-eabi/include/c++/8.2.1/bits/basic_string.h ****       }
 307:/home/adam/STMCompiler/arm-none-eabi/include/c++/8.2.1/bits/basic_string.h **** 
 308:/home/adam/STMCompiler/arm-none-eabi/include/c++/8.2.1/bits/basic_string.h ****       void
 309:/home/adam/STMCompiler/arm-none-eabi/include/c++/8.2.1/bits/basic_string.h ****       _M_check_length(size_type __n1, size_type __n2, const char* __s) const
 310:/home/adam/STMCompiler/arm-none-eabi/include/c++/8.2.1/bits/basic_string.h ****       {
 311:/home/adam/STMCompiler/arm-none-eabi/include/c++/8.2.1/bits/basic_string.h **** 	if (this->max_size() - (this->size() - __n1) < __n2)
 312:/home/adam/STMCompiler/arm-none-eabi/include/c++/8.2.1/bits/basic_string.h **** 	  __throw_length_error(__N(__s));
 313:/home/adam/STMCompiler/arm-none-eabi/include/c++/8.2.1/bits/basic_string.h ****       }
 314:/home/adam/STMCompiler/arm-none-eabi/include/c++/8.2.1/bits/basic_string.h **** 
 315:/home/adam/STMCompiler/arm-none-eabi/include/c++/8.2.1/bits/basic_string.h **** 
 316:/home/adam/STMCompiler/arm-none-eabi/include/c++/8.2.1/bits/basic_string.h ****       // NB: _M_limit doesn't check for a bad __pos value.
 317:/home/adam/STMCompiler/arm-none-eabi/include/c++/8.2.1/bits/basic_string.h ****       size_type
 318:/home/adam/STMCompiler/arm-none-eabi/include/c++/8.2.1/bits/basic_string.h ****       _M_limit(size_type __pos, size_type __off) const _GLIBCXX_NOEXCEPT
 319:/home/adam/STMCompiler/arm-none-eabi/include/c++/8.2.1/bits/basic_string.h ****       {
 320:/home/adam/STMCompiler/arm-none-eabi/include/c++/8.2.1/bits/basic_string.h **** 	const bool __testoff =  __off < this->size() - __pos;
 321:/home/adam/STMCompiler/arm-none-eabi/include/c++/8.2.1/bits/basic_string.h **** 	return __testoff ? __off : this->size() - __pos;
 322:/home/adam/STMCompiler/arm-none-eabi/include/c++/8.2.1/bits/basic_string.h ****       }
 323:/home/adam/STMCompiler/arm-none-eabi/include/c++/8.2.1/bits/basic_string.h **** 
 324:/home/adam/STMCompiler/arm-none-eabi/include/c++/8.2.1/bits/basic_string.h ****       // True if _Rep and source do not overlap.
 325:/home/adam/STMCompiler/arm-none-eabi/include/c++/8.2.1/bits/basic_string.h ****       bool
 326:/home/adam/STMCompiler/arm-none-eabi/include/c++/8.2.1/bits/basic_string.h ****       _M_disjunct(const _CharT* __s) const _GLIBCXX_NOEXCEPT
 327:/home/adam/STMCompiler/arm-none-eabi/include/c++/8.2.1/bits/basic_string.h ****       {
 328:/home/adam/STMCompiler/arm-none-eabi/include/c++/8.2.1/bits/basic_string.h **** 	return (less<const _CharT*>()(__s, _M_data())
 329:/home/adam/STMCompiler/arm-none-eabi/include/c++/8.2.1/bits/basic_string.h **** 		|| less<const _CharT*>()(_M_data() + this->size(), __s));
 330:/home/adam/STMCompiler/arm-none-eabi/include/c++/8.2.1/bits/basic_string.h ****       }
 331:/home/adam/STMCompiler/arm-none-eabi/include/c++/8.2.1/bits/basic_string.h **** 
 332:/home/adam/STMCompiler/arm-none-eabi/include/c++/8.2.1/bits/basic_string.h ****       // When __n = 1 way faster than the general multichar
 333:/home/adam/STMCompiler/arm-none-eabi/include/c++/8.2.1/bits/basic_string.h ****       // traits_type::copy/move/assign.
 334:/home/adam/STMCompiler/arm-none-eabi/include/c++/8.2.1/bits/basic_string.h ****       static void
 335:/home/adam/STMCompiler/arm-none-eabi/include/c++/8.2.1/bits/basic_string.h ****       _S_copy(_CharT* __d, const _CharT* __s, size_type __n)
 336:/home/adam/STMCompiler/arm-none-eabi/include/c++/8.2.1/bits/basic_string.h ****       {
 337:/home/adam/STMCompiler/arm-none-eabi/include/c++/8.2.1/bits/basic_string.h **** 	if (__n == 1)
 338:/home/adam/STMCompiler/arm-none-eabi/include/c++/8.2.1/bits/basic_string.h **** 	  traits_type::assign(*__d, *__s);
 339:/home/adam/STMCompiler/arm-none-eabi/include/c++/8.2.1/bits/basic_string.h **** 	else
 340:/home/adam/STMCompiler/arm-none-eabi/include/c++/8.2.1/bits/basic_string.h **** 	  traits_type::copy(__d, __s, __n);
 341:/home/adam/STMCompiler/arm-none-eabi/include/c++/8.2.1/bits/basic_string.h ****       }
 342:/home/adam/STMCompiler/arm-none-eabi/include/c++/8.2.1/bits/basic_string.h **** 
 343:/home/adam/STMCompiler/arm-none-eabi/include/c++/8.2.1/bits/basic_string.h ****       static void
 344:/home/adam/STMCompiler/arm-none-eabi/include/c++/8.2.1/bits/basic_string.h ****       _S_move(_CharT* __d, const _CharT* __s, size_type __n)
 345:/home/adam/STMCompiler/arm-none-eabi/include/c++/8.2.1/bits/basic_string.h ****       {
 346:/home/adam/STMCompiler/arm-none-eabi/include/c++/8.2.1/bits/basic_string.h **** 	if (__n == 1)
 347:/home/adam/STMCompiler/arm-none-eabi/include/c++/8.2.1/bits/basic_string.h **** 	  traits_type::assign(*__d, *__s);
 348:/home/adam/STMCompiler/arm-none-eabi/include/c++/8.2.1/bits/basic_string.h **** 	else
 349:/home/adam/STMCompiler/arm-none-eabi/include/c++/8.2.1/bits/basic_string.h **** 	  traits_type::move(__d, __s, __n);
 350:/home/adam/STMCompiler/arm-none-eabi/include/c++/8.2.1/bits/basic_string.h ****       }
ARM GAS  /tmp/cc2Vvk0o.s 			page 52


 351:/home/adam/STMCompiler/arm-none-eabi/include/c++/8.2.1/bits/basic_string.h **** 
 352:/home/adam/STMCompiler/arm-none-eabi/include/c++/8.2.1/bits/basic_string.h ****       static void
 353:/home/adam/STMCompiler/arm-none-eabi/include/c++/8.2.1/bits/basic_string.h ****       _S_assign(_CharT* __d, size_type __n, _CharT __c)
 354:/home/adam/STMCompiler/arm-none-eabi/include/c++/8.2.1/bits/basic_string.h ****       {
 355:/home/adam/STMCompiler/arm-none-eabi/include/c++/8.2.1/bits/basic_string.h **** 	if (__n == 1)
 356:/home/adam/STMCompiler/arm-none-eabi/include/c++/8.2.1/bits/basic_string.h **** 	  traits_type::assign(*__d, __c);
 357:/home/adam/STMCompiler/arm-none-eabi/include/c++/8.2.1/bits/basic_string.h **** 	else
 358:/home/adam/STMCompiler/arm-none-eabi/include/c++/8.2.1/bits/basic_string.h **** 	  traits_type::assign(__d, __n, __c);
 359:/home/adam/STMCompiler/arm-none-eabi/include/c++/8.2.1/bits/basic_string.h ****       }
 360:/home/adam/STMCompiler/arm-none-eabi/include/c++/8.2.1/bits/basic_string.h **** 
 361:/home/adam/STMCompiler/arm-none-eabi/include/c++/8.2.1/bits/basic_string.h ****       // _S_copy_chars is a separate template to permit specialization
 362:/home/adam/STMCompiler/arm-none-eabi/include/c++/8.2.1/bits/basic_string.h ****       // to optimize for the common case of pointers as iterators.
 363:/home/adam/STMCompiler/arm-none-eabi/include/c++/8.2.1/bits/basic_string.h ****       template<class _Iterator>
 364:/home/adam/STMCompiler/arm-none-eabi/include/c++/8.2.1/bits/basic_string.h ****         static void
 365:/home/adam/STMCompiler/arm-none-eabi/include/c++/8.2.1/bits/basic_string.h ****         _S_copy_chars(_CharT* __p, _Iterator __k1, _Iterator __k2)
 366:/home/adam/STMCompiler/arm-none-eabi/include/c++/8.2.1/bits/basic_string.h ****         {
 367:/home/adam/STMCompiler/arm-none-eabi/include/c++/8.2.1/bits/basic_string.h **** 	  for (; __k1 != __k2; ++__k1, (void)++__p)
 368:/home/adam/STMCompiler/arm-none-eabi/include/c++/8.2.1/bits/basic_string.h **** 	    traits_type::assign(*__p, *__k1); // These types are off.
 369:/home/adam/STMCompiler/arm-none-eabi/include/c++/8.2.1/bits/basic_string.h **** 	}
 370:/home/adam/STMCompiler/arm-none-eabi/include/c++/8.2.1/bits/basic_string.h **** 
 371:/home/adam/STMCompiler/arm-none-eabi/include/c++/8.2.1/bits/basic_string.h ****       static void
 372:/home/adam/STMCompiler/arm-none-eabi/include/c++/8.2.1/bits/basic_string.h ****       _S_copy_chars(_CharT* __p, iterator __k1, iterator __k2) _GLIBCXX_NOEXCEPT
 373:/home/adam/STMCompiler/arm-none-eabi/include/c++/8.2.1/bits/basic_string.h ****       { _S_copy_chars(__p, __k1.base(), __k2.base()); }
 374:/home/adam/STMCompiler/arm-none-eabi/include/c++/8.2.1/bits/basic_string.h **** 
 375:/home/adam/STMCompiler/arm-none-eabi/include/c++/8.2.1/bits/basic_string.h ****       static void
 376:/home/adam/STMCompiler/arm-none-eabi/include/c++/8.2.1/bits/basic_string.h ****       _S_copy_chars(_CharT* __p, const_iterator __k1, const_iterator __k2)
 377:/home/adam/STMCompiler/arm-none-eabi/include/c++/8.2.1/bits/basic_string.h ****       _GLIBCXX_NOEXCEPT
 378:/home/adam/STMCompiler/arm-none-eabi/include/c++/8.2.1/bits/basic_string.h ****       { _S_copy_chars(__p, __k1.base(), __k2.base()); }
 379:/home/adam/STMCompiler/arm-none-eabi/include/c++/8.2.1/bits/basic_string.h **** 
 380:/home/adam/STMCompiler/arm-none-eabi/include/c++/8.2.1/bits/basic_string.h ****       static void
 381:/home/adam/STMCompiler/arm-none-eabi/include/c++/8.2.1/bits/basic_string.h ****       _S_copy_chars(_CharT* __p, _CharT* __k1, _CharT* __k2) _GLIBCXX_NOEXCEPT
 382:/home/adam/STMCompiler/arm-none-eabi/include/c++/8.2.1/bits/basic_string.h ****       { _S_copy(__p, __k1, __k2 - __k1); }
 383:/home/adam/STMCompiler/arm-none-eabi/include/c++/8.2.1/bits/basic_string.h **** 
 384:/home/adam/STMCompiler/arm-none-eabi/include/c++/8.2.1/bits/basic_string.h ****       static void
 385:/home/adam/STMCompiler/arm-none-eabi/include/c++/8.2.1/bits/basic_string.h ****       _S_copy_chars(_CharT* __p, const _CharT* __k1, const _CharT* __k2)
 386:/home/adam/STMCompiler/arm-none-eabi/include/c++/8.2.1/bits/basic_string.h ****       _GLIBCXX_NOEXCEPT
 387:/home/adam/STMCompiler/arm-none-eabi/include/c++/8.2.1/bits/basic_string.h ****       { _S_copy(__p, __k1, __k2 - __k1); }
 388:/home/adam/STMCompiler/arm-none-eabi/include/c++/8.2.1/bits/basic_string.h **** 
 389:/home/adam/STMCompiler/arm-none-eabi/include/c++/8.2.1/bits/basic_string.h ****       static int
 390:/home/adam/STMCompiler/arm-none-eabi/include/c++/8.2.1/bits/basic_string.h ****       _S_compare(size_type __n1, size_type __n2) _GLIBCXX_NOEXCEPT
 391:/home/adam/STMCompiler/arm-none-eabi/include/c++/8.2.1/bits/basic_string.h ****       {
 392:/home/adam/STMCompiler/arm-none-eabi/include/c++/8.2.1/bits/basic_string.h **** 	const difference_type __d = difference_type(__n1 - __n2);
 393:/home/adam/STMCompiler/arm-none-eabi/include/c++/8.2.1/bits/basic_string.h **** 
 394:/home/adam/STMCompiler/arm-none-eabi/include/c++/8.2.1/bits/basic_string.h **** 	if (__d > __gnu_cxx::__numeric_traits<int>::__max)
 395:/home/adam/STMCompiler/arm-none-eabi/include/c++/8.2.1/bits/basic_string.h **** 	  return __gnu_cxx::__numeric_traits<int>::__max;
 396:/home/adam/STMCompiler/arm-none-eabi/include/c++/8.2.1/bits/basic_string.h **** 	else if (__d < __gnu_cxx::__numeric_traits<int>::__min)
 397:/home/adam/STMCompiler/arm-none-eabi/include/c++/8.2.1/bits/basic_string.h **** 	  return __gnu_cxx::__numeric_traits<int>::__min;
 398:/home/adam/STMCompiler/arm-none-eabi/include/c++/8.2.1/bits/basic_string.h **** 	else
 399:/home/adam/STMCompiler/arm-none-eabi/include/c++/8.2.1/bits/basic_string.h **** 	  return int(__d);
 400:/home/adam/STMCompiler/arm-none-eabi/include/c++/8.2.1/bits/basic_string.h ****       }
 401:/home/adam/STMCompiler/arm-none-eabi/include/c++/8.2.1/bits/basic_string.h **** 
 402:/home/adam/STMCompiler/arm-none-eabi/include/c++/8.2.1/bits/basic_string.h ****       void
 403:/home/adam/STMCompiler/arm-none-eabi/include/c++/8.2.1/bits/basic_string.h ****       _M_assign(const basic_string&);
 404:/home/adam/STMCompiler/arm-none-eabi/include/c++/8.2.1/bits/basic_string.h **** 
 405:/home/adam/STMCompiler/arm-none-eabi/include/c++/8.2.1/bits/basic_string.h ****       void
 406:/home/adam/STMCompiler/arm-none-eabi/include/c++/8.2.1/bits/basic_string.h ****       _M_mutate(size_type __pos, size_type __len1, const _CharT* __s,
 407:/home/adam/STMCompiler/arm-none-eabi/include/c++/8.2.1/bits/basic_string.h **** 		size_type __len2);
ARM GAS  /tmp/cc2Vvk0o.s 			page 53


 408:/home/adam/STMCompiler/arm-none-eabi/include/c++/8.2.1/bits/basic_string.h **** 
 409:/home/adam/STMCompiler/arm-none-eabi/include/c++/8.2.1/bits/basic_string.h ****       void
 410:/home/adam/STMCompiler/arm-none-eabi/include/c++/8.2.1/bits/basic_string.h ****       _M_erase(size_type __pos, size_type __n);
 411:/home/adam/STMCompiler/arm-none-eabi/include/c++/8.2.1/bits/basic_string.h **** 
 412:/home/adam/STMCompiler/arm-none-eabi/include/c++/8.2.1/bits/basic_string.h ****     public:
 413:/home/adam/STMCompiler/arm-none-eabi/include/c++/8.2.1/bits/basic_string.h ****       // Construct/copy/destroy:
 414:/home/adam/STMCompiler/arm-none-eabi/include/c++/8.2.1/bits/basic_string.h ****       // NB: We overload ctors in some cases instead of using default
 415:/home/adam/STMCompiler/arm-none-eabi/include/c++/8.2.1/bits/basic_string.h ****       // arguments, per 17.4.4.4 para. 2 item 2.
 416:/home/adam/STMCompiler/arm-none-eabi/include/c++/8.2.1/bits/basic_string.h **** 
 417:/home/adam/STMCompiler/arm-none-eabi/include/c++/8.2.1/bits/basic_string.h ****       /**
 418:/home/adam/STMCompiler/arm-none-eabi/include/c++/8.2.1/bits/basic_string.h ****        *  @brief  Default constructor creates an empty string.
 419:/home/adam/STMCompiler/arm-none-eabi/include/c++/8.2.1/bits/basic_string.h ****        */
 420:/home/adam/STMCompiler/arm-none-eabi/include/c++/8.2.1/bits/basic_string.h ****       basic_string()
 421:/home/adam/STMCompiler/arm-none-eabi/include/c++/8.2.1/bits/basic_string.h ****       _GLIBCXX_NOEXCEPT_IF(is_nothrow_default_constructible<_Alloc>::value)
 422:/home/adam/STMCompiler/arm-none-eabi/include/c++/8.2.1/bits/basic_string.h ****       : _M_dataplus(_M_local_data())
 423:/home/adam/STMCompiler/arm-none-eabi/include/c++/8.2.1/bits/basic_string.h ****       { _M_set_length(0); }
 424:/home/adam/STMCompiler/arm-none-eabi/include/c++/8.2.1/bits/basic_string.h **** 
 425:/home/adam/STMCompiler/arm-none-eabi/include/c++/8.2.1/bits/basic_string.h ****       /**
 426:/home/adam/STMCompiler/arm-none-eabi/include/c++/8.2.1/bits/basic_string.h ****        *  @brief  Construct an empty string using allocator @a a.
 427:/home/adam/STMCompiler/arm-none-eabi/include/c++/8.2.1/bits/basic_string.h ****        */
 428:/home/adam/STMCompiler/arm-none-eabi/include/c++/8.2.1/bits/basic_string.h ****       explicit
 429:/home/adam/STMCompiler/arm-none-eabi/include/c++/8.2.1/bits/basic_string.h ****       basic_string(const _Alloc& __a) _GLIBCXX_NOEXCEPT
 430:/home/adam/STMCompiler/arm-none-eabi/include/c++/8.2.1/bits/basic_string.h ****       : _M_dataplus(_M_local_data(), __a)
 431:/home/adam/STMCompiler/arm-none-eabi/include/c++/8.2.1/bits/basic_string.h ****       { _M_set_length(0); }
 432:/home/adam/STMCompiler/arm-none-eabi/include/c++/8.2.1/bits/basic_string.h **** 
 433:/home/adam/STMCompiler/arm-none-eabi/include/c++/8.2.1/bits/basic_string.h ****       /**
 434:/home/adam/STMCompiler/arm-none-eabi/include/c++/8.2.1/bits/basic_string.h ****        *  @brief  Construct string with copy of value of @a __str.
 435:/home/adam/STMCompiler/arm-none-eabi/include/c++/8.2.1/bits/basic_string.h ****        *  @param  __str  Source string.
 436:/home/adam/STMCompiler/arm-none-eabi/include/c++/8.2.1/bits/basic_string.h ****        */
 437:/home/adam/STMCompiler/arm-none-eabi/include/c++/8.2.1/bits/basic_string.h ****       basic_string(const basic_string& __str)
 438:/home/adam/STMCompiler/arm-none-eabi/include/c++/8.2.1/bits/basic_string.h ****       : _M_dataplus(_M_local_data(),
 439:/home/adam/STMCompiler/arm-none-eabi/include/c++/8.2.1/bits/basic_string.h **** 		    _Alloc_traits::_S_select_on_copy(__str._M_get_allocator()))
 440:/home/adam/STMCompiler/arm-none-eabi/include/c++/8.2.1/bits/basic_string.h ****       { _M_construct(__str._M_data(), __str._M_data() + __str.length()); }
 441:/home/adam/STMCompiler/arm-none-eabi/include/c++/8.2.1/bits/basic_string.h **** 
 442:/home/adam/STMCompiler/arm-none-eabi/include/c++/8.2.1/bits/basic_string.h ****       // _GLIBCXX_RESOLVE_LIB_DEFECTS
 443:/home/adam/STMCompiler/arm-none-eabi/include/c++/8.2.1/bits/basic_string.h ****       // 2583. no way to supply an allocator for basic_string(str, pos)
 444:/home/adam/STMCompiler/arm-none-eabi/include/c++/8.2.1/bits/basic_string.h ****       /**
 445:/home/adam/STMCompiler/arm-none-eabi/include/c++/8.2.1/bits/basic_string.h ****        *  @brief  Construct string as copy of a substring.
 446:/home/adam/STMCompiler/arm-none-eabi/include/c++/8.2.1/bits/basic_string.h ****        *  @param  __str  Source string.
 447:/home/adam/STMCompiler/arm-none-eabi/include/c++/8.2.1/bits/basic_string.h ****        *  @param  __pos  Index of first character to copy from.
 448:/home/adam/STMCompiler/arm-none-eabi/include/c++/8.2.1/bits/basic_string.h ****        *  @param  __a  Allocator to use.
 449:/home/adam/STMCompiler/arm-none-eabi/include/c++/8.2.1/bits/basic_string.h ****        */
 450:/home/adam/STMCompiler/arm-none-eabi/include/c++/8.2.1/bits/basic_string.h ****       basic_string(const basic_string& __str, size_type __pos,
 451:/home/adam/STMCompiler/arm-none-eabi/include/c++/8.2.1/bits/basic_string.h **** 		   const _Alloc& __a = _Alloc())
 452:/home/adam/STMCompiler/arm-none-eabi/include/c++/8.2.1/bits/basic_string.h ****       : _M_dataplus(_M_local_data(), __a)
 453:/home/adam/STMCompiler/arm-none-eabi/include/c++/8.2.1/bits/basic_string.h ****       {
 454:/home/adam/STMCompiler/arm-none-eabi/include/c++/8.2.1/bits/basic_string.h **** 	const _CharT* __start = __str._M_data()
 455:/home/adam/STMCompiler/arm-none-eabi/include/c++/8.2.1/bits/basic_string.h **** 	  + __str._M_check(__pos, "basic_string::basic_string");
 456:/home/adam/STMCompiler/arm-none-eabi/include/c++/8.2.1/bits/basic_string.h **** 	_M_construct(__start, __start + __str._M_limit(__pos, npos));
 457:/home/adam/STMCompiler/arm-none-eabi/include/c++/8.2.1/bits/basic_string.h ****       }
 458:/home/adam/STMCompiler/arm-none-eabi/include/c++/8.2.1/bits/basic_string.h **** 
 459:/home/adam/STMCompiler/arm-none-eabi/include/c++/8.2.1/bits/basic_string.h ****       /**
 460:/home/adam/STMCompiler/arm-none-eabi/include/c++/8.2.1/bits/basic_string.h ****        *  @brief  Construct string as copy of a substring.
 461:/home/adam/STMCompiler/arm-none-eabi/include/c++/8.2.1/bits/basic_string.h ****        *  @param  __str  Source string.
 462:/home/adam/STMCompiler/arm-none-eabi/include/c++/8.2.1/bits/basic_string.h ****        *  @param  __pos  Index of first character to copy from.
 463:/home/adam/STMCompiler/arm-none-eabi/include/c++/8.2.1/bits/basic_string.h ****        *  @param  __n  Number of characters to copy.
 464:/home/adam/STMCompiler/arm-none-eabi/include/c++/8.2.1/bits/basic_string.h ****        */
ARM GAS  /tmp/cc2Vvk0o.s 			page 54


 465:/home/adam/STMCompiler/arm-none-eabi/include/c++/8.2.1/bits/basic_string.h ****       basic_string(const basic_string& __str, size_type __pos,
 466:/home/adam/STMCompiler/arm-none-eabi/include/c++/8.2.1/bits/basic_string.h **** 		   size_type __n)
 467:/home/adam/STMCompiler/arm-none-eabi/include/c++/8.2.1/bits/basic_string.h ****       : _M_dataplus(_M_local_data())
 468:/home/adam/STMCompiler/arm-none-eabi/include/c++/8.2.1/bits/basic_string.h ****       {
 469:/home/adam/STMCompiler/arm-none-eabi/include/c++/8.2.1/bits/basic_string.h **** 	const _CharT* __start = __str._M_data()
 470:/home/adam/STMCompiler/arm-none-eabi/include/c++/8.2.1/bits/basic_string.h **** 	  + __str._M_check(__pos, "basic_string::basic_string");
 471:/home/adam/STMCompiler/arm-none-eabi/include/c++/8.2.1/bits/basic_string.h **** 	_M_construct(__start, __start + __str._M_limit(__pos, __n));
 472:/home/adam/STMCompiler/arm-none-eabi/include/c++/8.2.1/bits/basic_string.h ****       }
 473:/home/adam/STMCompiler/arm-none-eabi/include/c++/8.2.1/bits/basic_string.h **** 
 474:/home/adam/STMCompiler/arm-none-eabi/include/c++/8.2.1/bits/basic_string.h ****       /**
 475:/home/adam/STMCompiler/arm-none-eabi/include/c++/8.2.1/bits/basic_string.h ****        *  @brief  Construct string as copy of a substring.
 476:/home/adam/STMCompiler/arm-none-eabi/include/c++/8.2.1/bits/basic_string.h ****        *  @param  __str  Source string.
 477:/home/adam/STMCompiler/arm-none-eabi/include/c++/8.2.1/bits/basic_string.h ****        *  @param  __pos  Index of first character to copy from.
 478:/home/adam/STMCompiler/arm-none-eabi/include/c++/8.2.1/bits/basic_string.h ****        *  @param  __n  Number of characters to copy.
 479:/home/adam/STMCompiler/arm-none-eabi/include/c++/8.2.1/bits/basic_string.h ****        *  @param  __a  Allocator to use.
 480:/home/adam/STMCompiler/arm-none-eabi/include/c++/8.2.1/bits/basic_string.h ****        */
 481:/home/adam/STMCompiler/arm-none-eabi/include/c++/8.2.1/bits/basic_string.h ****       basic_string(const basic_string& __str, size_type __pos,
 482:/home/adam/STMCompiler/arm-none-eabi/include/c++/8.2.1/bits/basic_string.h **** 		   size_type __n, const _Alloc& __a)
 483:/home/adam/STMCompiler/arm-none-eabi/include/c++/8.2.1/bits/basic_string.h ****       : _M_dataplus(_M_local_data(), __a)
 484:/home/adam/STMCompiler/arm-none-eabi/include/c++/8.2.1/bits/basic_string.h ****       {
 485:/home/adam/STMCompiler/arm-none-eabi/include/c++/8.2.1/bits/basic_string.h **** 	const _CharT* __start
 486:/home/adam/STMCompiler/arm-none-eabi/include/c++/8.2.1/bits/basic_string.h **** 	  = __str._M_data() + __str._M_check(__pos, "string::string");
 487:/home/adam/STMCompiler/arm-none-eabi/include/c++/8.2.1/bits/basic_string.h **** 	_M_construct(__start, __start + __str._M_limit(__pos, __n));
 488:/home/adam/STMCompiler/arm-none-eabi/include/c++/8.2.1/bits/basic_string.h ****       }
 489:/home/adam/STMCompiler/arm-none-eabi/include/c++/8.2.1/bits/basic_string.h **** 
 490:/home/adam/STMCompiler/arm-none-eabi/include/c++/8.2.1/bits/basic_string.h ****       /**
 491:/home/adam/STMCompiler/arm-none-eabi/include/c++/8.2.1/bits/basic_string.h ****        *  @brief  Construct string initialized by a character %array.
 492:/home/adam/STMCompiler/arm-none-eabi/include/c++/8.2.1/bits/basic_string.h ****        *  @param  __s  Source character %array.
 493:/home/adam/STMCompiler/arm-none-eabi/include/c++/8.2.1/bits/basic_string.h ****        *  @param  __n  Number of characters to copy.
 494:/home/adam/STMCompiler/arm-none-eabi/include/c++/8.2.1/bits/basic_string.h ****        *  @param  __a  Allocator to use (default is default allocator).
 495:/home/adam/STMCompiler/arm-none-eabi/include/c++/8.2.1/bits/basic_string.h ****        *
 496:/home/adam/STMCompiler/arm-none-eabi/include/c++/8.2.1/bits/basic_string.h ****        *  NB: @a __s must have at least @a __n characters, &apos;\\0&apos;
 497:/home/adam/STMCompiler/arm-none-eabi/include/c++/8.2.1/bits/basic_string.h ****        *  has no special meaning.
 498:/home/adam/STMCompiler/arm-none-eabi/include/c++/8.2.1/bits/basic_string.h ****        */
 499:/home/adam/STMCompiler/arm-none-eabi/include/c++/8.2.1/bits/basic_string.h ****       basic_string(const _CharT* __s, size_type __n,
 500:/home/adam/STMCompiler/arm-none-eabi/include/c++/8.2.1/bits/basic_string.h **** 		   const _Alloc& __a = _Alloc())
 501:/home/adam/STMCompiler/arm-none-eabi/include/c++/8.2.1/bits/basic_string.h ****       : _M_dataplus(_M_local_data(), __a)
 502:/home/adam/STMCompiler/arm-none-eabi/include/c++/8.2.1/bits/basic_string.h ****       { _M_construct(__s, __s + __n); }
 503:/home/adam/STMCompiler/arm-none-eabi/include/c++/8.2.1/bits/basic_string.h **** 
 504:/home/adam/STMCompiler/arm-none-eabi/include/c++/8.2.1/bits/basic_string.h ****       /**
 505:/home/adam/STMCompiler/arm-none-eabi/include/c++/8.2.1/bits/basic_string.h ****        *  @brief  Construct string as copy of a C string.
 506:/home/adam/STMCompiler/arm-none-eabi/include/c++/8.2.1/bits/basic_string.h ****        *  @param  __s  Source C string.
 507:/home/adam/STMCompiler/arm-none-eabi/include/c++/8.2.1/bits/basic_string.h ****        *  @param  __a  Allocator to use (default is default allocator).
 508:/home/adam/STMCompiler/arm-none-eabi/include/c++/8.2.1/bits/basic_string.h ****        */
 509:/home/adam/STMCompiler/arm-none-eabi/include/c++/8.2.1/bits/basic_string.h **** #if __cpp_deduction_guides && ! defined _GLIBCXX_DEFINING_STRING_INSTANTIATIONS
 510:/home/adam/STMCompiler/arm-none-eabi/include/c++/8.2.1/bits/basic_string.h ****       // _GLIBCXX_RESOLVE_LIB_DEFECTS
 511:/home/adam/STMCompiler/arm-none-eabi/include/c++/8.2.1/bits/basic_string.h ****       // 3076. basic_string CTAD ambiguity
 512:/home/adam/STMCompiler/arm-none-eabi/include/c++/8.2.1/bits/basic_string.h ****       template<typename = _RequireAllocator<_Alloc>>
 513:/home/adam/STMCompiler/arm-none-eabi/include/c++/8.2.1/bits/basic_string.h **** #endif
 514:/home/adam/STMCompiler/arm-none-eabi/include/c++/8.2.1/bits/basic_string.h ****       basic_string(const _CharT* __s, const _Alloc& __a = _Alloc())
 515:/home/adam/STMCompiler/arm-none-eabi/include/c++/8.2.1/bits/basic_string.h ****       : _M_dataplus(_M_local_data(), __a)
 516:/home/adam/STMCompiler/arm-none-eabi/include/c++/8.2.1/bits/basic_string.h ****       { _M_construct(__s, __s ? __s + traits_type::length(__s) : __s+npos); }
 517:/home/adam/STMCompiler/arm-none-eabi/include/c++/8.2.1/bits/basic_string.h **** 
 518:/home/adam/STMCompiler/arm-none-eabi/include/c++/8.2.1/bits/basic_string.h ****       /**
 519:/home/adam/STMCompiler/arm-none-eabi/include/c++/8.2.1/bits/basic_string.h ****        *  @brief  Construct string as multiple characters.
 520:/home/adam/STMCompiler/arm-none-eabi/include/c++/8.2.1/bits/basic_string.h ****        *  @param  __n  Number of characters.
 521:/home/adam/STMCompiler/arm-none-eabi/include/c++/8.2.1/bits/basic_string.h ****        *  @param  __c  Character to use.
ARM GAS  /tmp/cc2Vvk0o.s 			page 55


 522:/home/adam/STMCompiler/arm-none-eabi/include/c++/8.2.1/bits/basic_string.h ****        *  @param  __a  Allocator to use (default is default allocator).
 523:/home/adam/STMCompiler/arm-none-eabi/include/c++/8.2.1/bits/basic_string.h ****        */
 524:/home/adam/STMCompiler/arm-none-eabi/include/c++/8.2.1/bits/basic_string.h **** #if __cpp_deduction_guides && ! defined _GLIBCXX_DEFINING_STRING_INSTANTIATIONS
 525:/home/adam/STMCompiler/arm-none-eabi/include/c++/8.2.1/bits/basic_string.h ****       // _GLIBCXX_RESOLVE_LIB_DEFECTS
 526:/home/adam/STMCompiler/arm-none-eabi/include/c++/8.2.1/bits/basic_string.h ****       // 3076. basic_string CTAD ambiguity
 527:/home/adam/STMCompiler/arm-none-eabi/include/c++/8.2.1/bits/basic_string.h ****       template<typename = _RequireAllocator<_Alloc>>
 528:/home/adam/STMCompiler/arm-none-eabi/include/c++/8.2.1/bits/basic_string.h **** #endif
 529:/home/adam/STMCompiler/arm-none-eabi/include/c++/8.2.1/bits/basic_string.h ****       basic_string(size_type __n, _CharT __c, const _Alloc& __a = _Alloc())
 530:/home/adam/STMCompiler/arm-none-eabi/include/c++/8.2.1/bits/basic_string.h ****       : _M_dataplus(_M_local_data(), __a)
 531:/home/adam/STMCompiler/arm-none-eabi/include/c++/8.2.1/bits/basic_string.h ****       { _M_construct(__n, __c); }
 532:/home/adam/STMCompiler/arm-none-eabi/include/c++/8.2.1/bits/basic_string.h **** 
 533:/home/adam/STMCompiler/arm-none-eabi/include/c++/8.2.1/bits/basic_string.h **** #if __cplusplus >= 201103L
 534:/home/adam/STMCompiler/arm-none-eabi/include/c++/8.2.1/bits/basic_string.h ****       /**
 535:/home/adam/STMCompiler/arm-none-eabi/include/c++/8.2.1/bits/basic_string.h ****        *  @brief  Move construct string.
 536:/home/adam/STMCompiler/arm-none-eabi/include/c++/8.2.1/bits/basic_string.h ****        *  @param  __str  Source string.
 537:/home/adam/STMCompiler/arm-none-eabi/include/c++/8.2.1/bits/basic_string.h ****        *
 538:/home/adam/STMCompiler/arm-none-eabi/include/c++/8.2.1/bits/basic_string.h ****        *  The newly-created string contains the exact contents of @a __str.
 539:/home/adam/STMCompiler/arm-none-eabi/include/c++/8.2.1/bits/basic_string.h ****        *  @a __str is a valid, but unspecified string.
 540:/home/adam/STMCompiler/arm-none-eabi/include/c++/8.2.1/bits/basic_string.h ****        **/
 541:/home/adam/STMCompiler/arm-none-eabi/include/c++/8.2.1/bits/basic_string.h ****       basic_string(basic_string&& __str) noexcept
 542:/home/adam/STMCompiler/arm-none-eabi/include/c++/8.2.1/bits/basic_string.h ****       : _M_dataplus(_M_local_data(), std::move(__str._M_get_allocator()))
 543:/home/adam/STMCompiler/arm-none-eabi/include/c++/8.2.1/bits/basic_string.h ****       {
 544:/home/adam/STMCompiler/arm-none-eabi/include/c++/8.2.1/bits/basic_string.h **** 	if (__str._M_is_local())
 545:/home/adam/STMCompiler/arm-none-eabi/include/c++/8.2.1/bits/basic_string.h **** 	  {
 546:/home/adam/STMCompiler/arm-none-eabi/include/c++/8.2.1/bits/basic_string.h **** 	    traits_type::copy(_M_local_buf, __str._M_local_buf,
 547:/home/adam/STMCompiler/arm-none-eabi/include/c++/8.2.1/bits/basic_string.h **** 			      _S_local_capacity + 1);
 548:/home/adam/STMCompiler/arm-none-eabi/include/c++/8.2.1/bits/basic_string.h **** 	  }
 549:/home/adam/STMCompiler/arm-none-eabi/include/c++/8.2.1/bits/basic_string.h **** 	else
 550:/home/adam/STMCompiler/arm-none-eabi/include/c++/8.2.1/bits/basic_string.h **** 	  {
 551:/home/adam/STMCompiler/arm-none-eabi/include/c++/8.2.1/bits/basic_string.h **** 	    _M_data(__str._M_data());
 552:/home/adam/STMCompiler/arm-none-eabi/include/c++/8.2.1/bits/basic_string.h **** 	    _M_capacity(__str._M_allocated_capacity);
 553:/home/adam/STMCompiler/arm-none-eabi/include/c++/8.2.1/bits/basic_string.h **** 	  }
 554:/home/adam/STMCompiler/arm-none-eabi/include/c++/8.2.1/bits/basic_string.h **** 
 555:/home/adam/STMCompiler/arm-none-eabi/include/c++/8.2.1/bits/basic_string.h **** 	// Must use _M_length() here not _M_set_length() because
 556:/home/adam/STMCompiler/arm-none-eabi/include/c++/8.2.1/bits/basic_string.h **** 	// basic_stringbuf relies on writing into unallocated capacity so
 557:/home/adam/STMCompiler/arm-none-eabi/include/c++/8.2.1/bits/basic_string.h **** 	// we mess up the contents if we put a '\0' in the string.
 558:/home/adam/STMCompiler/arm-none-eabi/include/c++/8.2.1/bits/basic_string.h **** 	_M_length(__str.length());
 559:/home/adam/STMCompiler/arm-none-eabi/include/c++/8.2.1/bits/basic_string.h **** 	__str._M_data(__str._M_local_data());
 560:/home/adam/STMCompiler/arm-none-eabi/include/c++/8.2.1/bits/basic_string.h **** 	__str._M_set_length(0);
 561:/home/adam/STMCompiler/arm-none-eabi/include/c++/8.2.1/bits/basic_string.h ****       }
 562:/home/adam/STMCompiler/arm-none-eabi/include/c++/8.2.1/bits/basic_string.h **** 
 563:/home/adam/STMCompiler/arm-none-eabi/include/c++/8.2.1/bits/basic_string.h ****       /**
 564:/home/adam/STMCompiler/arm-none-eabi/include/c++/8.2.1/bits/basic_string.h ****        *  @brief  Construct string from an initializer %list.
 565:/home/adam/STMCompiler/arm-none-eabi/include/c++/8.2.1/bits/basic_string.h ****        *  @param  __l  std::initializer_list of characters.
 566:/home/adam/STMCompiler/arm-none-eabi/include/c++/8.2.1/bits/basic_string.h ****        *  @param  __a  Allocator to use (default is default allocator).
 567:/home/adam/STMCompiler/arm-none-eabi/include/c++/8.2.1/bits/basic_string.h ****        */
 568:/home/adam/STMCompiler/arm-none-eabi/include/c++/8.2.1/bits/basic_string.h ****       basic_string(initializer_list<_CharT> __l, const _Alloc& __a = _Alloc())
 569:/home/adam/STMCompiler/arm-none-eabi/include/c++/8.2.1/bits/basic_string.h ****       : _M_dataplus(_M_local_data(), __a)
 570:/home/adam/STMCompiler/arm-none-eabi/include/c++/8.2.1/bits/basic_string.h ****       { _M_construct(__l.begin(), __l.end()); }
 571:/home/adam/STMCompiler/arm-none-eabi/include/c++/8.2.1/bits/basic_string.h **** 
 572:/home/adam/STMCompiler/arm-none-eabi/include/c++/8.2.1/bits/basic_string.h ****       basic_string(const basic_string& __str, const _Alloc& __a)
 573:/home/adam/STMCompiler/arm-none-eabi/include/c++/8.2.1/bits/basic_string.h ****       : _M_dataplus(_M_local_data(), __a)
